{
  "abi": [
    {
      "inputs": [
        {
          "internalType": "address",
          "name": "_wormhole",
          "type": "address"
        },
        {
          "internalType": "address",
          "name": "_wormholeSimulator",
          "type": "address"
        },
        {
          "internalType": "contract Vm",
          "name": "vm_",
          "type": "address"
        }
      ],
      "stateMutability": "nonpayable",
      "type": "constructor"
    },
    {
      "inputs": [
        {
          "internalType": "uint8",
          "name": "parsed",
          "type": "uint8"
        },
        {
          "internalType": "uint8",
          "name": "expected",
          "type": "uint8"
        }
      ],
      "name": "InvalidPayloadId",
      "type": "error"
    },
    {
      "inputs": [
        {
          "internalType": "uint256",
          "name": "received",
          "type": "uint256"
        },
        {
          "internalType": "uint256",
          "name": "expected",
          "type": "uint256"
        }
      ],
      "name": "InvalidPayloadLength",
      "type": "error"
    },
    {
      "inputs": [
        {
          "internalType": "bytes32",
          "name": "",
          "type": "bytes32"
        }
      ],
      "name": "NotAnEvmAddress",
      "type": "error"
    },
    {
      "inputs": [
        {
          "internalType": "uint8",
          "name": "version",
          "type": "uint8"
        },
        {
          "internalType": "uint8",
          "name": "expectedVersion",
          "type": "uint8"
        }
      ],
      "name": "UnexpectedExecutionInfoVersion",
      "type": "error"
    },
    {
      "inputs": [
        {
          "internalType": "uint16",
          "name": "chainId",
          "type": "uint16"
        },
        {
          "internalType": "uint64",
          "name": "deliveryVAASequence",
          "type": "uint64"
        }
      ],
      "name": "getPastDeliveryVAA",
      "outputs": [
        {
          "internalType": "bytes",
          "name": "",
          "type": "bytes"
        }
      ],
      "stateMutability": "view",
      "type": "function"
    },
    {
      "inputs": [
        {
          "internalType": "uint16",
          "name": "chainId",
          "type": "uint16"
        },
        {
          "internalType": "uint64",
          "name": "deliveryVAASequence",
          "type": "uint64"
        }
      ],
      "name": "getPastEncodedVMs",
      "outputs": [
        {
          "internalType": "bytes[]",
          "name": "",
          "type": "bytes[]"
        }
      ],
      "stateMutability": "view",
      "type": "function"
    },
    {
      "inputs": [
        {
          "internalType": "uint16",
          "name": "chainId",
          "type": "uint16"
        },
        {
          "internalType": "address",
          "name": "wormholeRelayerContractAddress",
          "type": "address"
        },
        {
          "internalType": "uint256",
          "name": "fork",
          "type": "uint256"
        }
      ],
      "name": "registerChain",
      "outputs": [],
      "stateMutability": "nonpayable",
      "type": "function"
    },
    {
      "inputs": [
        {
          "components": [
            {
              "internalType": "bytes32[]",
              "name": "topics",
              "type": "bytes32[]"
            },
            {
              "internalType": "bytes",
              "name": "data",
              "type": "bytes"
            },
            {
              "internalType": "address",
              "name": "emitter",
              "type": "address"
            }
          ],
          "internalType": "struct VmSafe.Log[]",
          "name": "logs",
          "type": "tuple[]"
        }
      ],
      "name": "relay",
      "outputs": [],
      "stateMutability": "nonpayable",
      "type": "function"
    },
    {
      "inputs": [
        {
          "components": [
            {
              "internalType": "bytes32[]",
              "name": "topics",
              "type": "bytes32[]"
            },
            {
              "internalType": "bytes",
              "name": "data",
              "type": "bytes"
            },
            {
              "internalType": "address",
              "name": "emitter",
              "type": "address"
            }
          ],
          "internalType": "struct VmSafe.Log[]",
          "name": "logs",
          "type": "tuple[]"
        },
        {
          "internalType": "bool",
          "name": "debugLogging",
          "type": "bool"
        }
      ],
      "name": "relay",
      "outputs": [],
      "stateMutability": "nonpayable",
      "type": "function"
    },
    {
      "inputs": [
        {
          "internalType": "bytes",
          "name": "deliveryOverrides",
          "type": "bytes"
        }
      ],
      "name": "relay",
      "outputs": [],
      "stateMutability": "nonpayable",
      "type": "function"
    },
    {
      "inputs": [
        {
          "components": [
            {
              "internalType": "bytes32[]",
              "name": "topics",
              "type": "bytes32[]"
            },
            {
              "internalType": "bytes",
              "name": "data",
              "type": "bytes"
            },
            {
              "internalType": "address",
              "name": "emitter",
              "type": "address"
            }
          ],
          "internalType": "struct VmSafe.Log[]",
          "name": "logs",
          "type": "tuple[]"
        },
        {
          "internalType": "bytes",
          "name": "deliveryOverrides",
          "type": "bytes"
        },
        {
          "internalType": "bool",
          "name": "debugLogging",
          "type": "bool"
        }
      ],
      "name": "relay",
      "outputs": [],
      "stateMutability": "nonpayable",
      "type": "function"
    },
    {
      "inputs": [],
      "name": "relay",
      "outputs": [],
      "stateMutability": "nonpayable",
      "type": "function"
    },
    {
      "inputs": [],
      "name": "vm",
      "outputs": [
        {
          "internalType": "contract Vm",
          "name": "",
          "type": "address"
        }
      ],
      "stateMutability": "view",
      "type": "function"
    },
    {
      "stateMutability": "payable",
      "type": "receive"
    }
  ],
  "bytecode": {
    "object": "0x60806040523480156200001157600080fd5b5060405162002a3138038062002a31833981016040819052620000349162000123565b6000805462010000600160b01b031916620100006001600160a01b0386811682029290921792839055600180546001600160a01b0319908116878516179091556002805490911685841617905560408051634d4502c960e11b815290519190930490911691639a8a05929160048083019260209291908290030181865afa158015620000c4573d6000803e3d6000fd5b505050506040513d601f19601f82011682018060405250810190620000ea919062000177565b6000805461ffff191661ffff9290921691909117905550620001a4915050565b6001600160a01b03811681146200012057600080fd5b50565b6000806000606084860312156200013957600080fd5b835162000146816200010a565b602085015190935062000159816200010a565b60408501519092506200016c816200010a565b809150509250925092565b6000602082840312156200018a57600080fd5b815161ffff811681146200019d57600080fd5b9392505050565b61287d80620001b46000396000f3fe60806040526004361061008a5760003560e01c806380cb624d1161005957806380cb624d146101895780638f0d6f17146101b6578063900d59d4146101d6578063b59589d1146101f6578063d6fef2e41461020b57600080fd5b80631f87d3df1461009657806323f2fa36146100b85780633a7684631461012c578063789b24171461016957600080fd5b3661009157005b600080fd5b3480156100a257600080fd5b506100b66100b1366004611ddd565b610238565b005b3480156100c457600080fd5b506100b66100d3366004611e21565b61ffff909216600081815260036020908152604080832080546001600160a01b039096166001600160a01b0319909616959095179094556004815283822085905593815260059093529120805461ffff19169091179055565b34801561013857600080fd5b5060025461014c906001600160a01b031681565b6040516001600160a01b0390911681526020015b60405180910390f35b34801561017557600080fd5b506100b6610184366004611e72565b610256565b34801561019557600080fd5b506101a96101a4366004611ed4565b610274565b6040516101609190611f69565b3480156101c257600080fd5b506100b66101d1366004611f83565b610342565b3480156101e257600080fd5b506100b66101f1366004611fb7565b6103ba565b34801561020257600080fd5b506100b6610ab4565b34801561021757600080fd5b5061022b610226366004611ed4565b610b2a565b604051610160919061207f565b610253816040518060200160405280600081525060006103ba565b50565b6102708260405180602001604052806000815250836103ba565b5050565b606060076000848460405160200161028d929190612092565b60405160208183030381529060405280519060200120815260200190815260200160002080546102bc906120bc565b80601f01602080910402602001604051908101604052809291908181526020018280546102e8906120bc565b80156103355780601f1061030a57610100808354040283529160200191610335565b820191906000526020600020905b81548152906001019060200180831161031857829003601f168201915b5050505050905092915050565b6002546040805163064554e960e21b81529051610253926001600160a01b03169163191553a4916004808301926000929190829003018183875af115801561038e573d6000803e3d6000fd5b505050506040513d6000823e601f3d908101601f191682016040526103b69190810190612140565b8260005b600060056000600260009054906101000a90046001600160a01b03166001600160a01b0316632f103f226040518163ffffffff1660e01b8152600401602060405180830381865afa158015610413573d6000803e3d6000fd5b505050506040513d601f19601f8201168201806040525081019061043791906122ac565b8152602080820192909252604090810160009081205461ffff16808252600390935220549091506001600160a01b03166104ce5760405162461bcd60e51b815260206004820152602d60248201527f436861696e206e6f7420726567697374657265642077697468204d6f636b4f6660448201526c3331b430b4b72932b630bcb2b960991b60648201526084015b60405180910390fd5b6002546000805461ffff16815260046020819052604091829020549151639ebf682760e01b8152908101919091526001600160a01b0390911690639ebf682790602401600060405180830381600087803b15801561052b57600080fd5b505af115801561053f573d6000803e3d6000fd5b50506001546040516355a58d7d60e01b8152600093506001600160a01b0390911691506355a58d7d9061057690889060040161233a565b600060405180830381865afa158015610593573d6000803e3d6000fd5b505050506040513d6000823e601f3d908101601f191682016040526105bb9190810190612140565b905082156105e6576105e6604051806060016040528060228152602001612826602291398251610c3f565b600081516001600160401b0381111561060157610601611b16565b60405190808252806020026020018201604052801561063457816020015b606081526020019060019003908161061f5790505b50905060005b81518110156107075760015483516001600160a01b039091169063b34cd8609085908490811061066c5761066c61239c565b6020026020010151866040518363ffffffff1660e01b81526004016106929291906123b2565b600060405180830381865afa1580156106af573d6000803e3d6000fd5b505050506040513d6000823e601f3d908101601f191682016040526106d791908101906123d8565b8282815181106106e9576106e961239c565b602002602001018190525080806106ff90612422565b91505061063a565b50600081516001600160401b0381111561072357610723611b16565b6040519080825280602002602001820160405280156107a957816020015b60408051610160810182526000808252602080830182905292820181905260608083018290526080830182905260a0830182905260c0830182905260e08301819052610100830182905261012083015261014082015282526000199092019101816107415790505b50905060005b82518161ffff16101561089357600060029054906101000a90046001600160a01b03166001600160a01b031663a9e11893848361ffff16815181106107f6576107f661239c565b60200260200101516040518263ffffffff1660e01b815260040161081a9190611f69565b600060405180830381865afa158015610837573d6000803e3d6000fd5b505050506040513d6000823e601f3d908101601f1916820160405261085f9190810190612517565b828261ffff16815181106108755761087561239c565b6020026020010181905250808061088b9061263b565b9150506107af565b5060005b82518161ffff161015610a3557851561091b5761091b6040518060600160405280602781526020016127ff60279139838361ffff16815181106108dc576108dc61239c565b60200260200101516060015161ffff16610916858561ffff16815181106109055761090561239c565b602002602001015160800151610c84565b610cb0565b61ffff85166000908152600360205260409020546001600160a01b0316828261ffff168151811061094e5761094e61239c565b60200260200101516080015114801561098f57508461ffff16828261ffff168151811061097d5761097d61239c565b60200260200101516060015161ffff16145b15610a235785156109dd576109dd6040518060400160405280601881526020017f52656c6179696e672056414120746f20636861696e20257300000000000000008152508661ffff16610c3f565b610a23838261ffff16815181106109f6576109f661239c565b602002602001015184848461ffff1681518110610a1557610a1561239c565b60200260200101518a610cfc565b80610a2d8161263b565b915050610897565b5060025461ffff8516600090815260046020819052604091829020549151639ebf682760e01b8152908101919091526001600160a01b0390911690639ebf682790602401600060405180830381600087803b158015610a9357600080fd5b505af1158015610aa7573d6000803e3d6000fd5b5050505050505050505050565b6002546040805163064554e960e21b81529051610b28926001600160a01b03169163191553a4916004808301926000929190829003018183875af1158015610b00573d6000803e3d6000fd5b505050506040513d6000823e601f3d908101601f191682016040526100b19190810190612140565b565b6060600660008484604051602001610b43929190612092565b604051602081830303815290604052805190602001208152602001908152602001600020805480602002602001604051908101604052809291908181526020016000905b82821015610c33578382906000526020600020018054610ba6906120bc565b80601f0160208091040260200160405190810160405280929190818152602001828054610bd2906120bc565b8015610c1f5780601f10610bf457610100808354040283529160200191610c1f565b820191906000526020600020905b815481529060010190602001808311610c0257829003601f168201915b505050505081526020019060010190610b87565b50505050905092915050565b6102708282604051602401610c5592919061265c565b60408051601f198184030181529190526020810180516001600160e01b03166309710a9d60e41b1790526112c0565b600060a082901c15610cac5760405163033b960d60e41b8152600481018390526024016104c5565b5090565b610cf7838383604051602401610cc89392919061267e565b60408051601f198184030181529190526020810180516001600160e01b031663e3849f7960e01b1790526112c0565b505050565b60e08201516001908101519060ff8216900361107c576000610d218460e001516112e1565b90506000816101600151516001600160401b03811115610d4357610d43611b16565b604051908082528060200260200182016040528015610d7657816020015b6060815260200190600190039081610d615790505b50905060005b826101600151518160ff161015610e4f5760005b87518160ff161015610e3c57610de38461016001518360ff1681518110610db957610db961239c565b6020026020010151898360ff1681518110610dd657610dd661239c565b602002602001015161145e565b15610e2a57878160ff1681518110610dfd57610dfd61239c565b6020026020010151838360ff1681518110610e1a57610e1a61239c565b6020026020010181905250610e3c565b80610e34816126b1565b915050610d90565b5080610e47816126b1565b915050610d7c565b506000610e5f8360a0015161152f565b905060008360800151846060015183602001518460000151610e8191906126d0565b610e8b91906126ef565b610e9591906126ef565b845160025461ffff8216600090815260046020819052604091829020549151639ebf682760e01b815294955092936001600160a01b0390921692639ebf682792610ee492910190815260200190565b600060405180830381600087803b158015610efe57600080fd5b505af1158015610f12573d6000803e3d6000fd5b505060025460405163c88a5e6d60e01b8152306004820152602481018690526001600160a01b03909116925063c88a5e6d9150604401600060405180830381600087803b158015610f6257600080fd5b505af1158015610f76573d6000803e3d6000fd5b50505050600260009054906101000a90046001600160a01b03166001600160a01b03166341af2f526040518163ffffffff1660e01b8152600401600060405180830381600087803b158015610fca57600080fd5b505af1158015610fde573d6000803e3d6000fd5b50505061ffff8216600090815260036020526040908190205490516314c1d69960e31b81526001600160a01b03909116915063a60eb4c890849061102c9088908f9030908e90600401612707565b6000604051808303818588803b15801561104557600080fd5b505af1158015611059573d6000803e3d6000fd5b505050505061107288606001518960a00151868d611596565b50505050506112b9565b8060ff166002036112b95760006110968460e0015161160c565b9050600060405180606001604052808360400151815260200183606001518152602001866101400151815250905060006110d3836060015161152f565b905060008360400151826020015183600001516110f091906126d0565b6110fa91906126ef565b845180516040909101519192506000916111149190610274565b8551805160409091015191925060009161112e9190610b2a565b6000805460405163a9e1189360e01b815292935090916111ba916201000090046001600160a01b03169063a9e118939061116c908790600401611f69565b600060405180830381865afa158015611189573d6000803e3d6000fd5b505050506040513d6000823e601f3d908101601f191682016040526111b19190810190612517565b60e001516112e1565b5160025461ffff8216600090815260046020819052604091829020549151639ebf682760e01b8152908101919091529192506001600160a01b031690639ebf682790602401600060405180830381600087803b15801561121957600080fd5b505af115801561122d573d6000803e3d6000fd5b5050505061ffff81166000908152600360205260409020546001600160a01b031663a60eb4c8858486306112608c6116e1565b6040518663ffffffff1660e01b815260040161127f9493929190612707565b6000604051808303818588803b15801561129857600080fd5b505af11580156112ac573d6000803e3d6000fd5b5050505050505050505050505b5050505050565b80516a636f6e736f6c652e6c6f67602083016000808483855afa5050505050565b604080516101808101825260008082526020820181905260609282018390528282018190526080820181905260a0820183905260c0820181905260e082018190526101008201819052610120820181905261014082015261016081019190915260006113508360006001611725565b90506000806113688584600291810182015192910190565b61ffff9091168552925061137c858461177a565b6020860191909152925061139085846117a0565b60408681019290925286810160208101519083015191909201945090925090506113ba85846117a0565b60a0860191909152600286820181015161ffff1660c08701520192506113e0858461177a565b60e086019190915292506113f4858461177a565b6101008601919091529250611409858461177a565b610120860191909152925061141e858461177a565b610140860191909152925061143385846117dc565b6101608601919091526060850183905260808501829052925061145685846118aa565b505050919050565b6000805460405163a9e1189360e01b815282916201000090046001600160a01b03169063a9e1189390611495908690600401611f69565b600060405180830381865afa1580156114b2573d6000803e3d6000fd5b505050506040513d6000823e601f3d908101601f191682016040526114da9190810190612517565b9050806060015161ffff16846000015161ffff16148015611502575080608001518460200151145b801561152757508060a001516001600160401b031684604001516001600160401b0316145b949350505050565b6040805180820190915260008082526020820152600082806020019051810190611559919061275a565b60208501528352905060ff8116156115905760405163c1f4bdd960e01b815260ff82166004820152600060248201526044016104c5565b50919050565b600084846040516020016115ab929190612092565b60408051601f1981840301815291815281516020928301206000818152600684529190912085519193506115e4929091908601906119d1565b506000818152600760209081526040909120835161160492850190611a2a565b505050505050565b6040805161012081018252600060c0820181815260e0830182905261010083018290528252602082018190529181018290526060808201526080810182905260a081018290529061165f83826002611725565b9050600061166d84836118d8565b908452848101600281015161ffff16602086015260229081015191019250905061169784836117a0565b606085019190915291506116ab848361177a565b608085019190915291506116bf848361177a565b60a08501919091526040840182905291506116da84836118aa565b5050919050565b6060600182600001516116f78460200151611946565b846040015160405160200161170f949392919061278f565b6040516020818303038152906040529050919050565b60008061173b8585600191810182015192910190565b9250905060ff8082169084161461177257604051633ce5fedf60e11b815260ff8083166004830152841660248201526044016104c5565b509392505050565b6000806000806117938686602091810182015192910190565b9097909650945050505050565b60606000806117b88585600491810182015192910190565b925090506117d0858363ffffffff8085169061195c16565b90969095509350505050565b60606000806117f48585600191810182015192910190565b9250905060ff81166001600160401b0381111561181357611813611b16565b60405190808252806020026020018201604052801561185e57816020015b60408051606081018252600080825260208083018290529282015282526000199092019101816118315790505b50925060005b83518110156118a15761187786846118d8565b8583815181106118895761188961239c565b60209081029190910101919091529250600101611864565b50509250929050565b8082511461027057815160405163061bc83560e51b81526004810191909152602481018290526044016104c5565b604080516060810182526000808252602082018190529181018290529061190184846001611725565b600281860181015161ffff16845201905061191c848261177a565b602084019190915260089481018501516001600160401b0316604084015291949390910192915050565b606081518260405160200161170f9291906127cc565b606060008260000361197f575050604080516000815260208101909152826119c9565b5050604051828201601f831680611994575060205b80830184810186838901015b818310156119b85780518352602092830192016119a0565b5050848452601f01601f1916604052505b935093915050565b828054828255906000526020600020908101928215611a1e579160200282015b82811115611a1e5782518051611a0e918491602090910190611a2a565b50916020019190600101906119f1565b50610cac929150611aaa565b828054611a36906120bc565b90600052602060002090601f016020900481019282611a585760008555611a9e565b82601f10611a7157805160ff1916838001178555611a9e565b82800160010185558215611a9e579182015b82811115611a9e578251825591602001919060010190611a83565b50610cac929150611ac7565b80821115610cac576000611abe8282611adc565b50600101611aaa565b5b80821115610cac5760008155600101611ac8565b508054611ae8906120bc565b6000825580601f10611af8575050565b601f0160209004906000526020600020908101906102539190611ac7565b634e487b7160e01b600052604160045260246000fd5b604051606081016001600160401b0381118282101715611b4e57611b4e611b16565b60405290565b604051608081016001600160401b0381118282101715611b4e57611b4e611b16565b60405161016081016001600160401b0381118282101715611b4e57611b4e611b16565b604051601f8201601f191681016001600160401b0381118282101715611bc157611bc1611b16565b604052919050565b60006001600160401b03821115611be257611be2611b16565b5060051b60200190565b60006001600160401b03821115611c0557611c05611b16565b50601f01601f191660200190565b600082601f830112611c2457600080fd5b8135611c37611c3282611bec565b611b99565b818152846020838601011115611c4c57600080fd5b816020850160208301376000918101602001919091529392505050565b6001600160a01b038116811461025357600080fd5b8035611c8981611c69565b919050565b600082601f830112611c9f57600080fd5b81356020611caf611c3283611bc9565b82815260059290921b84018101918181019086841115611cce57600080fd5b8286015b84811015611dd25780356001600160401b0380821115611cf157600080fd5b908801906060828b03601f19011215611d0a5760008081fd5b611d12611b2c565b8683013582811115611d245760008081fd5b8301603f81018c13611d365760008081fd5b878101356040611d48611c3283611bc9565b82815260059290921b83018101918a8101908f841115611d685760008081fd5b938201935b83851015611d865784358252938b0193908b0190611d6d565b85525085810135925084831115611d9f57600091508182fd5b611dad8e8b85890101611c13565b8a850152611dbd60608701611c7e565b90840152505085525050918301918301611cd2565b509695505050505050565b600060208284031215611def57600080fd5b81356001600160401b03811115611e0557600080fd5b61152784828501611c8e565b61ffff8116811461025357600080fd5b600080600060608486031215611e3657600080fd5b8335611e4181611e11565b92506020840135611e5181611c69565b929592945050506040919091013590565b80358015158114611c8957600080fd5b60008060408385031215611e8557600080fd5b82356001600160401b03811115611e9b57600080fd5b611ea785828601611c8e565b925050611eb660208401611e62565b90509250929050565b6001600160401b038116811461025357600080fd5b60008060408385031215611ee757600080fd5b8235611ef281611e11565b91506020830135611f0281611ebf565b809150509250929050565b60005b83811015611f28578181015183820152602001611f10565b83811115611f37576000848401525b50505050565b60008151808452611f55816020860160208601611f0d565b601f01601f19169290920160200192915050565b602081526000611f7c6020830184611f3d565b9392505050565b600060208284031215611f9557600080fd5b81356001600160401b03811115611fab57600080fd5b61152784828501611c13565b600080600060608486031215611fcc57600080fd5b83356001600160401b0380821115611fe357600080fd5b611fef87838801611c8e565b9450602086013591508082111561200557600080fd5b5061201286828701611c13565b92505061202160408501611e62565b90509250925092565b600081518084526020808501808196508360051b8101915082860160005b85811015612072578284038952612060848351611f3d565b98850198935090840190600101612048565b5091979650505050505050565b602081526000611f7c602083018461202a565b60f09290921b6001600160f01b031916825260c01b6001600160c01b0319166002820152600a0190565b600181811c908216806120d057607f821691505b60208210810361159057634e487b7160e01b600052602260045260246000fd5b600082601f83011261210157600080fd5b815161210f611c3282611bec565b81815284602083860101111561212457600080fd5b611527826020830160208701611f0d565b8051611c8981611c69565b6000602080838503121561215357600080fd5b82516001600160401b038082111561216a57600080fd5b818501915085601f83011261217e57600080fd5b815161218c611c3282611bc9565b81815260059190911b830184019084810190888311156121ab57600080fd5b8585015b8381101561229f578051858111156121c657600080fd5b86016060818c03601f190112156121dc57600080fd5b6121e4611b2c565b88820151878111156121f557600080fd5b8201603f81018d1361220657600080fd5b89810151612216611c3282611bc9565b81815260059190911b8201604001908b8101908f83111561223657600080fd5b6040840193505b828410156122565783518252928c0192908c019061223d565b845250505060408201518781111561226d57600080fd5b61227b8d8b838601016120f0565b8a8301525061228c60608301612135565b60408201528452509186019186016121af565b5098975050505050505050565b6000602082840312156122be57600080fd5b5051919050565b805160608084528151908401819052600091602091908201906080860190845b81811015612301578351835292840192918401916001016122e5565b50508285015191508581038387015261231a8183611f3d565b6040958601516001600160a01b0316969095019590955250919392505050565b6000602080830181845280855180835260408601915060408160051b870101925083870160005b8281101561238f57603f1988860301845261237d8583516122c5565b94509285019290850190600101612361565b5092979650505050505050565b634e487b7160e01b600052603260045260246000fd5b6040815260006123c560408301856122c5565b905061ffff831660208301529392505050565b6000602082840312156123ea57600080fd5b81516001600160401b0381111561240057600080fd5b611527848285016120f0565b634e487b7160e01b600052601160045260246000fd5b6000600182016124345761243461240c565b5060010190565b805160ff81168114611c8957600080fd5b805163ffffffff81168114611c8957600080fd5b8051611c8981611e11565b8051611c8981611ebf565b600082601f83011261248757600080fd5b81516020612497611c3283611bc9565b82815260079290921b840181019181810190868411156124b657600080fd5b8286015b84811015611dd257608081890312156124d35760008081fd5b6124db611b54565b81518152848201518582015260406124f481840161243b565b90820152606061250583820161243b565b908201528352918301916080016124ba565b60006020828403121561252957600080fd5b81516001600160401b038082111561254057600080fd5b90830190610160828603121561255557600080fd5b61255d611b76565b6125668361243b565b81526125746020840161244c565b60208201526125856040840161244c565b604082015261259660608401612460565b6060820152608083015160808201526125b160a0840161246b565b60a08201526125c260c0840161243b565b60c082015260e0830151828111156125d957600080fd5b6125e5878286016120f0565b60e0830152506101006125f981850161244c565b90820152610120838101518381111561261157600080fd5b61261d88828701612476565b91830191909152506101409283015192810192909252509392505050565b600061ffff8083168181036126525761265261240c565b6001019392505050565b60408152600061266f6040830185611f3d565b90508260208301529392505050565b6060815260006126916060830186611f3d565b6020830194909452506001600160a01b0391909116604090910152919050565b600060ff821660ff81036126c7576126c761240c565b60010192915050565b60008160001904831182151516156126ea576126ea61240c565b500290565b600082198211156127025761270261240c565b500190565b60808152600061271a608083018761202a565b828103602084015261272c8187611f3d565b6001600160a01b03861660408501528381036060850152905061274f8185611f3d565b979650505050505050565b60008060006060848603121561276f57600080fd5b6127788461243b565b925060208401519150604084015190509250925092565b60ff60f81b8560f81b168152836001820152600083516127b6816021850160208801611f0d565b6021920191820192909252604101949350505050565b63ffffffff60e01b8360e01b168152600082516127f0816004850160208701611f0d565b91909101600401939250505056fe466f756e64205641412066726f6d20636861696e20257320656d69747465642066726f6d202573466f756e6420257320776f726d686f6c65206d6573736167657320696e206c6f6773a26469706673582212203f60f24c8f2cf6eef7fd15a223d8e6a9bd99ea84d610f5e1d4d7c95edaa9109964736f6c634300080d0033",
    "linkReferences": {}
  },
  "methodIdentifiers": {
    "getPastDeliveryVAA(uint16,uint64)": "80cb624d",
    "getPastEncodedVMs(uint16,uint64)": "d6fef2e4",
    "registerChain(uint16,address,uint256)": "23f2fa36",
    "relay((bytes32[],bytes,address)[])": "1f87d3df",
    "relay((bytes32[],bytes,address)[],bool)": "789b2417",
    "relay((bytes32[],bytes,address)[],bytes,bool)": "900d59d4",
    "relay()": "b59589d1",
    "relay(bytes)": "8f0d6f17",
    "vm()": "3a768463"
  },
  "id": 31
}