{
  "abi": [
    {
      "inputs": [
        {
          "internalType": "address",
          "name": "_wormholeRelayer",
          "type": "address"
        },
        {
          "internalType": "address",
          "name": "_tokenBridge",
          "type": "address"
        },
        {
          "internalType": "address",
          "name": "_wormhole",
          "type": "address"
        }
      ],
      "stateMutability": "nonpayable",
      "type": "constructor"
    },
    {
      "inputs": [
        {
          "internalType": "bytes32",
          "name": "",
          "type": "bytes32"
        }
      ],
      "name": "NotAnEvmAddress",
      "type": "error"
    },
    {
      "inputs": [
        {
          "internalType": "uint16",
          "name": "targetChain",
          "type": "uint16"
        }
      ],
      "name": "quoteCrossChainDeposit",
      "outputs": [
        {
          "internalType": "uint256",
          "name": "cost",
          "type": "uint256"
        }
      ],
      "stateMutability": "view",
      "type": "function"
    },
    {
      "inputs": [
        {
          "internalType": "bytes",
          "name": "payload",
          "type": "bytes"
        },
        {
          "internalType": "bytes[]",
          "name": "additionalVaas",
          "type": "bytes[]"
        },
        {
          "internalType": "bytes32",
          "name": "sourceAddress",
          "type": "bytes32"
        },
        {
          "internalType": "uint16",
          "name": "sourceChain",
          "type": "uint16"
        },
        {
          "internalType": "bytes32",
          "name": "deliveryHash",
          "type": "bytes32"
        }
      ],
      "name": "receiveWormholeMessages",
      "outputs": [],
      "stateMutability": "payable",
      "type": "function"
    },
    {
      "inputs": [
        {
          "internalType": "uint16",
          "name": "targetChain",
          "type": "uint16"
        },
        {
          "internalType": "address",
          "name": "targetHelloToken",
          "type": "address"
        },
        {
          "internalType": "address",
          "name": "recipient",
          "type": "address"
        },
        {
          "internalType": "uint256",
          "name": "amount",
          "type": "uint256"
        },
        {
          "internalType": "address",
          "name": "token",
          "type": "address"
        }
      ],
      "name": "sendCrossChainDeposit",
      "outputs": [],
      "stateMutability": "payable",
      "type": "function"
    },
    {
      "inputs": [
        {
          "internalType": "uint16",
          "name": "sourceChain",
          "type": "uint16"
        },
        {
          "internalType": "bytes32",
          "name": "sourceAddress",
          "type": "bytes32"
        }
      ],
      "name": "setRegisteredSender",
      "outputs": [],
      "stateMutability": "nonpayable",
      "type": "function"
    },
    {
      "inputs": [],
      "name": "tokenBridge",
      "outputs": [
        {
          "internalType": "contract ITokenBridge",
          "name": "",
          "type": "address"
        }
      ],
      "stateMutability": "view",
      "type": "function"
    },
    {
      "inputs": [],
      "name": "wormhole",
      "outputs": [
        {
          "internalType": "contract IWormhole",
          "name": "",
          "type": "address"
        }
      ],
      "stateMutability": "view",
      "type": "function"
    },
    {
      "inputs": [],
      "name": "wormholeRelayer",
      "outputs": [
        {
          "internalType": "contract IWormholeRelayer",
          "name": "",
          "type": "address"
        }
      ],
      "stateMutability": "view",
      "type": "function"
    }
  ],
  "bytecode": {
    "object": "0x60e06040523480156200001157600080fd5b5060405162001e4138038062001e41833981016040819052620000349162000080565b6001600160a01b03928316608052821660a052600180546001600160a01b031916331790551660c052620000ca565b80516001600160a01b03811681146200007b57600080fd5b919050565b6000806000606084860312156200009657600080fd5b620000a18462000063565b9250620000b16020850162000063565b9150620000c16040850162000063565b90509250925092565b60805160a05160c051611cd1620001706000396000818161012e0152818161042d0152818161050f0152818161068101528181610a7301528181610faa0152818161102b01526111f001526000818160cf0152818161024b0152818161036301528181610599015281816109c50152818161105a015261115d015260008181610162015281816101da01528181610ba301528181610df30152610e620152611cd16000f3fe6080604052600436106100705760003560e01c80638d3ea4891161004e5780638d3ea48914610109578063c6328a461461011c578063da25b72514610150578063dd12d68b1461018457600080fd5b80632b524c9714610075578063529dca32146100a857806384acd1bb146100bd575b600080fd5b34801561008157600080fd5b50610095610090366004611251565b6101a4565b6040519081526020015b60405180910390f35b6100bb6100b63660046113c2565b6102dc565b005b3480156100c957600080fd5b506100f17f000000000000000000000000000000000000000000000000000000000000000081565b6040516001600160a01b03909116815260200161009f565b6100bb6101173660046114cc565b61080d565b34801561012857600080fd5b506100f17f000000000000000000000000000000000000000000000000000000000000000081565b34801561015c57600080fd5b506100f17f000000000000000000000000000000000000000000000000000000000000000081565b34801561019057600080fd5b506100bb61019f366004611534565b610944565b60405163c23ee3c360e01b815261ffff821660048201526000602482018190526203d09060448301529081906001600160a01b037f0000000000000000000000000000000000000000000000000000000000000000169063c23ee3c3906064016040805180830381865afa158015610220573d6000803e3d6000fd5b505050506040513d601f19601f820116820180604052508101906102449190611560565b50809150507f00000000000000000000000000000000000000000000000000000000000000006001600160a01b0316631a90a2196040518163ffffffff1660e01b8152600401602060405180830381865afa1580156102a7573d6000803e3d6000fd5b505050506040513d601f19601f820116820180604052508101906102cb9190611584565b6102d590826115b3565b9392505050565b600084516001600160401b038111156102f7576102f761126e565b60405190808252806020026020018201604052801561035057816020015b6040805160a0810182526000808252602080830182905292820181905260608201819052608082015282526000199092019101816103155790505b50905060005b85518110156107f75760007f00000000000000000000000000000000000000000000000000000000000000006001600160a01b031663a9e118938884815181106103a2576103a26115cb565b60200260200101516040518263ffffffff1660e01b81526004016103c6919061163d565b600060405180830381865afa1580156103e3573d6000803e3d6000fd5b505050506040513d6000823e601f3d908101601f1916820160405261040b9190810190611790565b606081015160405163ad66a5f160e01b815261ffff90911660048201529091507f00000000000000000000000000000000000000000000000000000000000000006001600160a01b03169063ad66a5f190602401602060405180830381865afa15801561047c573d6000803e3d6000fd5b505050506040513d601f19601f820116820180604052508101906104a09190611584565b8160800151146104f05760405162461bcd60e51b81526020600482015260166024820152754e6f74206120546f6b656e204272696467652056414160501b60448201526064015b60405180910390fd5b60e081015160405163ea63738d60e01b81526000916001600160a01b037f0000000000000000000000000000000000000000000000000000000000000000169163ea63738d916105429160040161163d565b600060405180830381865afa15801561055f573d6000803e3d6000fd5b505050506040513d6000823e601f3d908101601f1916820160405261058791908101906118b4565b905030816080015114801561062857507f00000000000000000000000000000000000000000000000000000000000000006001600160a01b0316639a8a05926040518163ffffffff1660e01b8152600401602060405180830381865afa1580156105f5573d6000803e3d6000fd5b505050506040513d601f19601f82011682018060405250810190610619919061197c565b61ffff168160a0015161ffff16145b61067f5760405162461bcd60e51b815260206004820152602260248201527f546f6b656e20776173206e6f742073656e7420746f2074686973206164647265604482015261737360f01b60648201526084016104e7565b7f00000000000000000000000000000000000000000000000000000000000000006001600160a01b031663c3f511c18985815181106106c0576106c06115cb565b60200260200101516040518263ffffffff1660e01b81526004016106e4919061163d565b6000604051808303816000875af1158015610703573d6000803e3d6000fd5b505050506040513d6000823e601f3d908101601f1916820160405261072b9190810190611999565b506000610740826060015183604001516109c1565b9050600061074d82610afd565b6020840151909150600860ff831611156107845761076c6008836119cd565b61077790600a611ad4565b6107819082611ae3565b90505b6040518060a0016040528085604001518152602001856060015161ffff168152602001846001600160a01b0316815260200182815260200185602001518152508787815181106107d6576107d66115cb565b60200260200101819052505050505050806107f090611b02565b9050610356565b506108058682868686610b98565b505050505050565b6000610818866101a4565b90508034146108875760405162461bcd60e51b815260206004820152603560248201527f6d73672e76616c7565206d7573742062652071756f746543726f7373436861696044820152746e4465706f73697428746172676574436861696e2960581b60648201526084016104e7565b6040516323b872dd60e01b8152336004820152306024820152604481018490526001600160a01b038316906323b872dd906064016020604051808303816000875af11580156108da573d6000803e3d6000fd5b505050506040513d601f19601f820116820180604052508101906108fe9190611b1b565b50604080516001600160a01b038616602082015260009101604051602081830303815290604052905061093a87878360006203d090888a610d4e565b5050505050505050565b6001546001600160a01b031633146109aa5760405162461bcd60e51b8152602060048201526024808201527f4e6f7420616c6c6f77656420746f207365742072656769737465726564207365604482015263373232b960e11b60648201526084016104e7565b61ffff909116600090815260026020526040902055565b60007f00000000000000000000000000000000000000000000000000000000000000006001600160a01b0316639a8a05926040518163ffffffff1660e01b8152600401602060405180830381865afa158015610a21573d6000803e3d6000fd5b505050506040513d601f19601f82011682018060405250810190610a45919061197c565b61ffff168361ffff1614610aeb57604051630ff8f14360e11b815261ffff84166004820152602481018390527f00000000000000000000000000000000000000000000000000000000000000006001600160a01b031690631ff1e28690604401602060405180830381865afa158015610ac2573d6000803e3d6000fd5b505050506040513d601f19601f82011682018060405250810190610ae69190611b3d565b610af4565b610af482610f08565b90505b92915050565b60408051600481526024810182526020810180516001600160e01b031663313ce56760e01b179052905160009182916001600160a01b03851691610b4091611b5a565b600060405180830381855afa9150503d8060008114610b7b576040519150601f19603f3d011682016040523d82523d6000602084013e610b80565b606091505b50915050808060200190518101906102d59190611b76565b336001600160a01b037f00000000000000000000000000000000000000000000000000000000000000001614610c1b5760405162461bcd60e51b815260206004820152602260248201527f4d73672e73656e646572206973206e6f7420576f726d686f6c652052656c617960448201526132b960f11b60648201526084016104e7565b8351600114610c6c5760405162461bcd60e51b815260206004820152601a60248201527f4578706563746564203120746f6b656e207472616e736665727300000000000060448201526064016104e7565b600085806020019051810190610c829190611b3d565b905084600081518110610c9757610c976115cb565b6020026020010151604001516001600160a01b031663a9059cbb8287600081518110610cc557610cc56115cb565b6020026020010151606001516040518363ffffffff1660e01b8152600401610d029291906001600160a01b03929092168252602082015260400190565b6020604051808303816000875af1158015610d21573d6000803e3d6000fd5b505050506040513d601f19601f82011682018060405250810190610d459190611b1b565b50505050505050565b604080516001808252818301909252600091829190816020015b6040805160608101825260008082526020808301829052928201528252600019909201910181610d68579050509050610da384848b8b610f34565b81600081518110610db657610db66115cb565b602090810291909101015260405163c23ee3c360e01b815261ffff8a16600482015260248101879052604481018690526000906001600160a01b037f0000000000000000000000000000000000000000000000000000000000000000169063c23ee3c3906064016040805180830381865afa158015610e39573d6000803e3d6000fd5b505050506040513d601f19601f82011682018060405250810190610e5d9190611560565b5090507f00000000000000000000000000000000000000000000000000000000000000006001600160a01b031663329a2be7828c8c8c8c8c896040518863ffffffff1660e01b8152600401610eb796959493929190611b91565b60206040518083038185885af1158015610ed5573d6000803e3d6000fd5b50505050506040513d601f19601f82011682018060405250810190610efa9190611c31565b9a9950505050505050505050565b600060a082901c15610f305760405163033b960d60e41b8152600481018390526024016104e7565b5090565b6040805160608101825260008082526020820181905291810191909152610f6d8585858560405180602001604052806000815250610f76565b95945050505050565b604080516060810182526000808252602082018190529181019190915260405163095ea7b360e01b81526001600160a01b037f0000000000000000000000000000000000000000000000000000000000000000811660048301526024820187905287169063095ea7b3906044016020604051808303816000875af1158015611002573d6000803e3d6000fd5b505050506040513d601f19601f820116820180604052508101906110269190611b1b565b5060007f00000000000000000000000000000000000000000000000000000000000000006001600160a01b031663c5a5ebda7f00000000000000000000000000000000000000000000000000000000000000006001600160a01b0316631a90a2196040518163ffffffff1660e01b8152600401602060405180830381865afa1580156110b6573d6000803e3d6000fd5b505050506040513d601f19601f820116820180604052508101906110da9190611584565b8989896001600160a01b038a1660008a6040518863ffffffff1660e01b815260040161110b96959493929190611c4c565b60206040518083038185885af1158015611129573d6000803e3d6000fd5b50505050506040513d601f19601f8201168201806040525081019061114e9190611c31565b905060405180606001604052807f00000000000000000000000000000000000000000000000000000000000000006001600160a01b0316639a8a05926040518163ffffffff1660e01b8152600401602060405180830381865afa1580156111b9573d6000803e3d6000fd5b505050506040513d601f19601f820116820180604052508101906111dd919061197c565b61ffff1681526020016001600160a01b037f0000000000000000000000000000000000000000000000000000000000000000168152602001826001600160401b031681525091505095945050505050565b61ffff8116811461123e57600080fd5b50565b803561124c8161122e565b919050565b60006020828403121561126357600080fd5b81356102d58161122e565b634e487b7160e01b600052604160045260246000fd5b604051608081016001600160401b03811182821017156112a6576112a661126e565b60405290565b60405161016081016001600160401b03811182821017156112a6576112a661126e565b60405161010081016001600160401b03811182821017156112a6576112a661126e565b604051601f8201601f191681016001600160401b038111828210171561131a5761131a61126e565b604052919050565b60006001600160401b0382111561133b5761133b61126e565b50601f01601f191660200190565b600082601f83011261135a57600080fd5b813561136d61136882611322565b6112f2565b81815284602083860101111561138257600080fd5b816020850160208301376000918101602001919091529392505050565b60006001600160401b038211156113b8576113b861126e565b5060051b60200190565b600080600080600060a086880312156113da57600080fd5b85356001600160401b03808211156113f157600080fd5b6113fd89838a01611349565b965060209150818801358181111561141457600080fd5b8801601f81018a1361142557600080fd5b80356114336113688261139f565b81815260059190911b8201840190848101908c83111561145257600080fd5b8584015b8381101561148a5780358681111561146e5760008081fd5b61147c8f8983890101611349565b845250918601918601611456565b509850505050604088013594506114a691505060608701611241565b949793965091946080013592915050565b6001600160a01b038116811461123e57600080fd5b600080600080600060a086880312156114e457600080fd5b85356114ef8161122e565b945060208601356114ff816114b7565b9350604086013561150f816114b7565b9250606086013591506080860135611526816114b7565b809150509295509295909350565b6000806040838503121561154757600080fd5b82356115528161122e565b946020939093013593505050565b6000806040838503121561157357600080fd5b505080516020909101519092909150565b60006020828403121561159657600080fd5b5051919050565b634e487b7160e01b600052601160045260246000fd5b600082198211156115c6576115c661159d565b500190565b634e487b7160e01b600052603260045260246000fd5b60005b838110156115fc5781810151838201526020016115e4565b8381111561160b576000848401525b50505050565b600081518084526116298160208601602086016115e1565b601f01601f19169290920160200192915050565b602081526000610af46020830184611611565b805160ff8116811461124c57600080fd5b805163ffffffff8116811461124c57600080fd5b805161124c8161122e565b80516001600160401b038116811461124c57600080fd5b600082601f8301126116a857600080fd5b81516116b661136882611322565b8181528460208386010111156116cb57600080fd5b6116dc8260208301602087016115e1565b949350505050565b600082601f8301126116f557600080fd5b815160206117056113688361139f565b82815260079290921b8401810191818101908684111561172457600080fd5b8286015b8481101561178557608081890312156117415760008081fd5b611749611284565b8151815284820151858201526040611762818401611650565b908201526060611773838201611650565b90820152835291830191608001611728565b509695505050505050565b6000602082840312156117a257600080fd5b81516001600160401b03808211156117b957600080fd5b9083019061016082860312156117ce57600080fd5b6117d66112ac565b6117df83611650565b81526117ed60208401611661565b60208201526117fe60408401611661565b604082015261180f60608401611675565b60608201526080830151608082015261182a60a08401611680565b60a082015261183b60c08401611650565b60c082015260e08301518281111561185257600080fd5b61185e87828601611697565b60e083015250610100611872818501611661565b90820152610120838101518381111561188a57600080fd5b611896888287016116e4565b91830191909152506101409283015192810192909252509392505050565b6000602082840312156118c657600080fd5b81516001600160401b03808211156118dd57600080fd5b9083019061010082860312156118f257600080fd5b6118fa6112cf565b61190383611650565b8152602083015160208201526040830151604082015261192560608401611675565b60608201526080830151608082015261194060a08401611675565b60a082015260c083015160c082015260e08301518281111561196157600080fd5b61196d87828601611697565b60e08301525095945050505050565b60006020828403121561198e57600080fd5b81516102d58161122e565b6000602082840312156119ab57600080fd5b81516001600160401b038111156119c157600080fd5b6116dc84828501611697565b600060ff821660ff8416808210156119e7576119e761159d565b90039392505050565b600181815b80851115611a2b578160001904821115611a1157611a1161159d565b80851615611a1e57918102915b93841c93908002906119f5565b509250929050565b600082611a4257506001610af7565b81611a4f57506000610af7565b8160018114611a655760028114611a6f57611a8b565b6001915050610af7565b60ff841115611a8057611a8061159d565b50506001821b610af7565b5060208310610133831016604e8410600b8410161715611aae575081810a610af7565b611ab883836119f0565b8060001904821115611acc57611acc61159d565b029392505050565b6000610af460ff841683611a33565b6000816000190483118215151615611afd57611afd61159d565b500290565b600060018201611b1457611b1461159d565b5060010190565b600060208284031215611b2d57600080fd5b815180151581146102d557600080fd5b600060208284031215611b4f57600080fd5b81516102d5816114b7565b60008251611b6c8184602087016115e1565b9190910192915050565b600060208284031215611b8857600080fd5b610af482611650565b600061ffff8089168352602060018060a01b03891681850152604060c081860152611bbf60c086018a611611565b60608681018a90526080870189905286820360a088015287518083528489019285019060005b81811015611c1d57845180518916845287810151888501528601516001600160401b0316868401529386019391830191600101611be5565b50909e9d5050505050505050505050505050565b600060208284031215611c4357600080fd5b610af482611680565b60018060a01b038716815285602082015261ffff8516604082015283606082015263ffffffff8316608082015260c060a08201526000611c8f60c0830184611611565b9897505050505050505056fea2646970667358221220a2bc536bc8e753cc00be2e31c214d051acb8d43c32938abce1b0d97a0891627864736f6c634300080d0033",
    "linkReferences": {}
  },
  "methodIdentifiers": {
    "quoteCrossChainDeposit(uint16)": "2b524c97",
    "receiveWormholeMessages(bytes,bytes[],bytes32,uint16,bytes32)": "529dca32",
    "sendCrossChainDeposit(uint16,address,address,uint256,address)": "8d3ea489",
    "setRegisteredSender(uint16,bytes32)": "dd12d68b",
    "tokenBridge()": "c6328a46",
    "wormhole()": "84acd1bb",
    "wormholeRelayer()": "da25b725"
  },
  "id": 33
}