{
  "_format": "hh-sol-artifact-1",
  "contractName": "HypERC20TransferCengli",
  "sourceName": "contracts/HypERC20TransferCengli.sol",
  "abi": [
    {
      "inputs": [
        {
          "internalType": "address",
          "name": "_USDCAddress",
          "type": "address"
        },
        {
          "internalType": "address",
          "name": "_HypERC20Address",
          "type": "address"
        }
      ],
      "stateMutability": "nonpayable",
      "type": "constructor"
    },
    {
      "inputs": [],
      "name": "ReentrancyGuardReentrantCall",
      "type": "error"
    },
    {
      "anonymous": false,
      "inputs": [
        {
          "indexed": false,
          "internalType": "bytes32",
          "name": "messageId",
          "type": "bytes32"
        },
        {
          "indexed": true,
          "internalType": "uint32",
          "name": "destination",
          "type": "uint32"
        },
        {
          "indexed": true,
          "internalType": "bytes32",
          "name": "recipient",
          "type": "bytes32"
        },
        {
          "indexed": false,
          "internalType": "uint256",
          "name": "amount",
          "type": "uint256"
        }
      ],
      "name": "SentTransferRemote",
      "type": "event"
    },
    {
      "inputs": [],
      "name": "HypERC20Address",
      "outputs": [
        {
          "internalType": "address",
          "name": "",
          "type": "address"
        }
      ],
      "stateMutability": "view",
      "type": "function"
    },
    {
      "inputs": [],
      "name": "USDCAddress",
      "outputs": [
        {
          "internalType": "address",
          "name": "",
          "type": "address"
        }
      ],
      "stateMutability": "view",
      "type": "function"
    },
    {
      "inputs": [],
      "name": "owner",
      "outputs": [
        {
          "internalType": "address",
          "name": "",
          "type": "address"
        }
      ],
      "stateMutability": "view",
      "type": "function"
    },
    {
      "inputs": [
        {
          "internalType": "uint32",
          "name": "_destinationDomain",
          "type": "uint32"
        },
        {
          "internalType": "bytes32",
          "name": "_recipientAddress",
          "type": "bytes32"
        },
        {
          "internalType": "uint256",
          "name": "_amount",
          "type": "uint256"
        }
      ],
      "name": "transferXchainHypERC20",
      "outputs": [
        {
          "internalType": "bytes32",
          "name": "",
          "type": "bytes32"
        }
      ],
      "stateMutability": "nonpayable",
      "type": "function"
    },
    {
      "inputs": [],
      "name": "withdrawNative",
      "outputs": [],
      "stateMutability": "nonpayable",
      "type": "function"
    },
    {
      "inputs": [],
      "name": "withdrawUSDC",
      "outputs": [],
      "stateMutability": "nonpayable",
      "type": "function"
    },
    {
      "stateMutability": "payable",
      "type": "receive"
    }
  ],
  "bytecode": "0x60806040523480156200001157600080fd5b506040516200140f3803806200140f833981810160405281019062000037919062000310565b600160008190555081600160006101000a81548173ffffffffffffffffffffffffffffffffffffffff021916908373ffffffffffffffffffffffffffffffffffffffff16021790555080600260006101000a81548173ffffffffffffffffffffffffffffffffffffffff021916908373ffffffffffffffffffffffffffffffffffffffff160217905550600160009054906101000a900473ffffffffffffffffffffffffffffffffffffffff1673ffffffffffffffffffffffffffffffffffffffff1663095ea7b3600260009054906101000a900473ffffffffffffffffffffffffffffffffffffffff16655af3107a40006040518363ffffffff1660e01b815260040162000148929190620003bf565b6020604051808303816000875af115801562000168573d6000803e3d6000fd5b505050506040513d601f19601f820116820180604052508101906200018e919062000429565b5033600360006101000a81548173ffffffffffffffffffffffffffffffffffffffff021916908373ffffffffffffffffffffffffffffffffffffffff160217905550600160009054906101000a900473ffffffffffffffffffffffffffffffffffffffff1673ffffffffffffffffffffffffffffffffffffffff1663095ea7b3600360009054906101000a900473ffffffffffffffffffffffffffffffffffffffff16655af3107a40006040518363ffffffff1660e01b815260040162000257929190620003bf565b6020604051808303816000875af115801562000277573d6000803e3d6000fd5b505050506040513d601f19601f820116820180604052508101906200029d919062000429565b5050506200045b565b600080fd5b600073ffffffffffffffffffffffffffffffffffffffff82169050919050565b6000620002d882620002ab565b9050919050565b620002ea81620002cb565b8114620002f657600080fd5b50565b6000815190506200030a81620002df565b92915050565b600080604083850312156200032a5762000329620002a6565b5b60006200033a85828601620002f9565b92505060206200034d85828601620002f9565b9150509250929050565b6200036281620002cb565b82525050565b6000819050919050565b6000819050919050565b6000819050919050565b6000620003a7620003a16200039b8462000368565b6200037c565b62000372565b9050919050565b620003b98162000386565b82525050565b6000604082019050620003d6600083018562000357565b620003e56020830184620003ae565b9392505050565b60008115159050919050565b6200040381620003ec565b81146200040f57600080fd5b50565b6000815190506200042381620003f8565b92915050565b600060208284031215620004425762000441620002a6565b5b6000620004528482850162000412565b91505092915050565b610fa4806200046b6000396000f3fe6080604052600436106100595760003560e01c8063017e46da146100655780632367117c146100a257806350431ce4146100cd5780638da5cb5b146100e4578063d8fc063d1461010f578063e93032091461012657610060565b3661006057005b600080fd5b34801561007157600080fd5b5061008c60048036038101906100879190610a14565b610151565b6040516100999190610a76565b60405180910390f35b3480156100ae57600080fd5b506100b76104bb565b6040516100c49190610ad2565b60405180910390f35b3480156100d957600080fd5b506100e26104e1565b005b3480156100f057600080fd5b506100f96105fd565b6040516101069190610ad2565b60405180910390f35b34801561011b57600080fd5b50610124610623565b005b34801561013257600080fd5b5061013b6108f1565b6040516101489190610ad2565b60405180910390f35b600061015b610917565b81600160009054906101000a900473ffffffffffffffffffffffffffffffffffffffff1673ffffffffffffffffffffffffffffffffffffffff166370a08231336040518263ffffffff1660e01b81526004016101b79190610ad2565b602060405180830381865afa1580156101d4573d6000803e3d6000fd5b505050506040513d601f19601f820116820180604052508101906101f89190610b02565b1015610239576040517f08c379a000000000000000000000000000000000000000000000000000000000815260040161023090610bb2565b60405180910390fd5b600160009054906101000a900473ffffffffffffffffffffffffffffffffffffffff1673ffffffffffffffffffffffffffffffffffffffff166323b872dd3330856040518463ffffffff1660e01b815260040161029893929190610be1565b6020604051808303816000875af11580156102b7573d6000803e3d6000fd5b505050506040513d601f19601f820116820180604052508101906102db9190610c50565b506000600260009054906101000a900473ffffffffffffffffffffffffffffffffffffffff1673ffffffffffffffffffffffffffffffffffffffff1663f2ed8c53866040518263ffffffff1660e01b81526004016103399190610c8c565b602060405180830381865afa158015610356573d6000803e3d6000fd5b505050506040513d601f19601f8201168201806040525081019061037a9190610b02565b9050804710156103bf576040517f08c379a00000000000000000000000000000000000000000000000000000000081526004016103b690610d19565b60405180910390fd5b6000600260009054906101000a900473ffffffffffffffffffffffffffffffffffffffff1673ffffffffffffffffffffffffffffffffffffffff166381b4e8b4838888886040518563ffffffff1660e01b815260040161042193929190610d39565b60206040518083038185885af115801561043f573d6000803e3d6000fd5b50505050506040513d601f19601f820116820180604052508101906104649190610d85565b9050848663ffffffff167f3406065a52b000854dbbeef7657250820ef51eff5126a10b91ed56430362699f838760405161049f929190610db2565b60405180910390a380925050506104b461095d565b9392505050565b600260009054906101000a900473ffffffffffffffffffffffffffffffffffffffff1681565b600360009054906101000a900473ffffffffffffffffffffffffffffffffffffffff1673ffffffffffffffffffffffffffffffffffffffff163373ffffffffffffffffffffffffffffffffffffffff1614610571576040517f08c379a000000000000000000000000000000000000000000000000000000000815260040161056890610e4d565b60405180910390fd5b600047036105b4576040517f08c379a00000000000000000000000000000000000000000000000000000000081526004016105ab90610eb9565b60405180910390fd5b3373ffffffffffffffffffffffffffffffffffffffff166108fc479081150290604051600060405180830381858888f193505050501580156105fa573d6000803e3d6000fd5b50565b600360009054906101000a900473ffffffffffffffffffffffffffffffffffffffff1681565b600360009054906101000a900473ffffffffffffffffffffffffffffffffffffffff1673ffffffffffffffffffffffffffffffffffffffff163373ffffffffffffffffffffffffffffffffffffffff16146106b3576040517f08c379a00000000000000000000000000000000000000000000000000000000081526004016106aa90610e4d565b60405180910390fd5b6000600160009054906101000a900473ffffffffffffffffffffffffffffffffffffffff1673ffffffffffffffffffffffffffffffffffffffff166370a08231306040518263ffffffff1660e01b81526004016107109190610ad2565b602060405180830381865afa15801561072d573d6000803e3d6000fd5b505050506040513d601f19601f820116820180604052508101906107519190610b02565b03610791576040517f08c379a000000000000000000000000000000000000000000000000000000000815260040161078890610f25565b60405180910390fd5b600160009054906101000a900473ffffffffffffffffffffffffffffffffffffffff1673ffffffffffffffffffffffffffffffffffffffff1663a9059cbb600360009054906101000a900473ffffffffffffffffffffffffffffffffffffffff16600160009054906101000a900473ffffffffffffffffffffffffffffffffffffffff1673ffffffffffffffffffffffffffffffffffffffff166370a08231306040518263ffffffff1660e01b815260040161084d9190610ad2565b602060405180830381865afa15801561086a573d6000803e3d6000fd5b505050506040513d601f19601f8201168201806040525081019061088e9190610b02565b6040518363ffffffff1660e01b81526004016108ab929190610f45565b6020604051808303816000875af11580156108ca573d6000803e3d6000fd5b505050506040513d601f19601f820116820180604052508101906108ee9190610c50565b50565b600160009054906101000a900473ffffffffffffffffffffffffffffffffffffffff1681565b600260005403610953576040517f3ee5aeb500000000000000000000000000000000000000000000000000000000815260040160405180910390fd5b6002600081905550565b6001600081905550565b600080fd5b600063ffffffff82169050919050565b6109858161096c565b811461099057600080fd5b50565b6000813590506109a28161097c565b92915050565b6000819050919050565b6109bb816109a8565b81146109c657600080fd5b50565b6000813590506109d8816109b2565b92915050565b6000819050919050565b6109f1816109de565b81146109fc57600080fd5b50565b600081359050610a0e816109e8565b92915050565b600080600060608486031215610a2d57610a2c610967565b5b6000610a3b86828701610993565b9350506020610a4c868287016109c9565b9250506040610a5d868287016109ff565b9150509250925092565b610a70816109a8565b82525050565b6000602082019050610a8b6000830184610a67565b92915050565b600073ffffffffffffffffffffffffffffffffffffffff82169050919050565b6000610abc82610a91565b9050919050565b610acc81610ab1565b82525050565b6000602082019050610ae76000830184610ac3565b92915050565b600081519050610afc816109e8565b92915050565b600060208284031215610b1857610b17610967565b5b6000610b2684828501610aed565b91505092915050565b600082825260208201905092915050565b7f496e73756666696369656e7420555344432062616c616e6365206f662073656e60008201527f6465722e00000000000000000000000000000000000000000000000000000000602082015250565b6000610b9c602483610b2f565b9150610ba782610b40565b604082019050919050565b60006020820190508181036000830152610bcb81610b8f565b9050919050565b610bdb816109de565b82525050565b6000606082019050610bf66000830186610ac3565b610c036020830185610ac3565b610c106040830184610bd2565b949350505050565b60008115159050919050565b610c2d81610c18565b8114610c3857600080fd5b50565b600081519050610c4a81610c24565b92915050565b600060208284031215610c6657610c65610967565b5b6000610c7484828501610c3b565b91505092915050565b610c868161096c565b82525050565b6000602082019050610ca16000830184610c7d565b92915050565b7f496e73756666696369656e74206e617469766520746f6b656e20666f7220676160008201527f7320696e7369646520636f6e74726163742e0000000000000000000000000000602082015250565b6000610d03603283610b2f565b9150610d0e82610ca7565b604082019050919050565b60006020820190508181036000830152610d3281610cf6565b9050919050565b6000606082019050610d4e6000830186610c7d565b610d5b6020830185610a67565b610d686040830184610bd2565b949350505050565b600081519050610d7f816109b2565b92915050565b600060208284031215610d9b57610d9a610967565b5b6000610da984828501610d70565b91505092915050565b6000604082019050610dc76000830185610a67565b610dd46020830184610bd2565b9392505050565b7f4f6e6c7920746865206f776e65722063616e2063616c6c20746869732066756e60008201527f6374696f6e000000000000000000000000000000000000000000000000000000602082015250565b6000610e37602583610b2f565b9150610e4282610ddb565b604082019050919050565b60006020820190508181036000830152610e6681610e2a565b9050919050565b7f436f6e7472616374206861732030204e61746976652e00000000000000000000600082015250565b6000610ea3601683610b2f565b9150610eae82610e6d565b602082019050919050565b60006020820190508181036000830152610ed281610e96565b9050919050565b7f436f6e747261637420686173203020555344432e000000000000000000000000600082015250565b6000610f0f601483610b2f565b9150610f1a82610ed9565b602082019050919050565b60006020820190508181036000830152610f3e81610f02565b9050919050565b6000604082019050610f5a6000830185610ac3565b610f676020830184610bd2565b939250505056fea264697066735822122024c019f48bf9a66da9ed6bab3fdf462e3be0860c3faa79dc71cceb981dddcdb464736f6c63430008140033",
  "linkReferences": {},
  "deployedLinkReferences": {}
}