{
  "abi": [
    {
      "inputs": [
        {
          "internalType": "address",
          "name": "_wormholeRelayer",
          "type": "address"
        },
        {
          "internalType": "address",
          "name": "_tokenBridge",
          "type": "address"
        },
        {
          "internalType": "address",
          "name": "_wormhole",
          "type": "address"
        }
      ],
      "stateMutability": "nonpayable",
      "type": "constructor"
    },
    {
      "inputs": [
        {
          "internalType": "bytes32",
          "name": "",
          "type": "bytes32"
        }
      ],
      "name": "NotAnEvmAddress",
      "type": "error"
    },
    {
      "inputs": [
        {
          "internalType": "uint16",
          "name": "targetChain",
          "type": "uint16"
        }
      ],
      "name": "quoteCrossChainDeposit",
      "outputs": [
        {
          "internalType": "uint256",
          "name": "cost",
          "type": "uint256"
        }
      ],
      "stateMutability": "view",
      "type": "function"
    },
    {
      "inputs": [
        {
          "internalType": "bytes",
          "name": "payload",
          "type": "bytes"
        },
        {
          "internalType": "bytes[]",
          "name": "additionalVaas",
          "type": "bytes[]"
        },
        {
          "internalType": "bytes32",
          "name": "",
          "type": "bytes32"
        },
        {
          "internalType": "uint16",
          "name": "",
          "type": "uint16"
        },
        {
          "internalType": "bytes32",
          "name": "",
          "type": "bytes32"
        }
      ],
      "name": "receiveWormholeMessages",
      "outputs": [],
      "stateMutability": "payable",
      "type": "function"
    },
    {
      "inputs": [
        {
          "internalType": "uint16",
          "name": "targetChain",
          "type": "uint16"
        },
        {
          "internalType": "address",
          "name": "targetHelloToken",
          "type": "address"
        },
        {
          "internalType": "address",
          "name": "recipient",
          "type": "address"
        },
        {
          "internalType": "uint256",
          "name": "amount",
          "type": "uint256"
        },
        {
          "internalType": "address",
          "name": "token",
          "type": "address"
        }
      ],
      "name": "sendCrossChainDeposit",
      "outputs": [],
      "stateMutability": "payable",
      "type": "function"
    },
    {
      "inputs": [],
      "name": "tokenBridge",
      "outputs": [
        {
          "internalType": "contract ITokenBridge",
          "name": "",
          "type": "address"
        }
      ],
      "stateMutability": "view",
      "type": "function"
    },
    {
      "inputs": [],
      "name": "wormhole",
      "outputs": [
        {
          "internalType": "contract IWormhole",
          "name": "",
          "type": "address"
        }
      ],
      "stateMutability": "view",
      "type": "function"
    },
    {
      "inputs": [],
      "name": "wormholeRelayer",
      "outputs": [
        {
          "internalType": "contract IWormholeRelayer",
          "name": "",
          "type": "address"
        }
      ],
      "stateMutability": "view",
      "type": "function"
    }
  ],
  "bytecode": {
    "object": "0x60e06040523480156200001157600080fd5b50604051620018893803806200188983398101604081905262000034916200006f565b6001600160a01b0392831660805290821660a0521660c052620000b9565b80516001600160a01b03811681146200006a57600080fd5b919050565b6000806000606084860312156200008557600080fd5b620000908462000052565b9250620000a06020850162000052565b9150620000b06040850162000052565b90509250925092565b60805160a05160c051611738620001516000396000818160b4015281816102100152818161039e0152818161057a015281816108cb01528181610a3d0152610be70152600081816101130152818161044d015281816104e0015281816106350152818161081b0152818161089c0152610ad00152600081816101470152818161019f015281816102ac0152610bb801526117386000f3fe6080604052600436106100555760003560e01c80632b524c971461005a578063529dca321461008d57806384acd1bb146100a25780638d3ea489146100ee578063c6328a4614610101578063da25b72514610135575b600080fd5b34801561006657600080fd5b5061007a610075366004610dd5565b610169565b6040519081526020015b60405180910390f35b6100a061009b366004610f28565b6102a1565b005b3480156100ae57600080fd5b506100d67f000000000000000000000000000000000000000000000000000000000000000081565b6040516001600160a01b039091168152602001610084565b6100a06100fc366004611033565b61078c565b34801561010d57600080fd5b506100d67f000000000000000000000000000000000000000000000000000000000000000081565b34801561014157600080fd5b506100d67f000000000000000000000000000000000000000000000000000000000000000081565b60405163c23ee3c360e01b815261ffff821660048201526000602482018190526203d09060448301529081906001600160a01b037f0000000000000000000000000000000000000000000000000000000000000000169063c23ee3c3906064016040805180830381865afa1580156101e5573d6000803e3d6000fd5b505050506040513d601f19601f82011682018060405250810190610209919061109b565b50809150507f00000000000000000000000000000000000000000000000000000000000000006001600160a01b0316631a90a2196040518163ffffffff1660e01b8152600401602060405180830381865afa15801561026c573d6000803e3d6000fd5b505050506040513d601f19601f8201168201806040525081019061029091906110bf565b61029a90826110ee565b9392505050565b336001600160a01b037f000000000000000000000000000000000000000000000000000000000000000016146103165760405162461bcd60e51b815260206004820152601560248201527413db9b1e481ddbdc9b5a1bdb1948185b1b1bddd959605a1b60448201526064015b60405180910390fd5b83516002146103825760405162461bcd60e51b815260206004820152603260248201527f45787065637465642032206164646974696f6e616c20564141206b65797320666044820152716f7220746f6b656e207472616e736665727360701b606482015260840161030d565b6000858060200190518101906103989190611106565b905060007f00000000000000000000000000000000000000000000000000000000000000006001600160a01b031663a9e11893876000815181106103de576103de611123565b60200260200101516040518263ffffffff1660e01b81526004016104029190611195565b600060405180830381865afa15801561041f573d6000803e3d6000fd5b505050506040513d6000823e601f3d908101601f1916820160405261044791908101906112e9565b905060007f00000000000000000000000000000000000000000000000000000000000000006001600160a01b0316632b5113758360e001516040518263ffffffff1660e01b815260040161049b9190611195565b60e060405180830381865afa1580156104b8573d6000803e3d6000fd5b505050506040513d601f19601f820116820180604052508101906104dc919061140e565b90507f00000000000000000000000000000000000000000000000000000000000000006001600160a01b031663c68785198860008151811061052057610520611123565b60200260200101516040518263ffffffff1660e01b81526004016105449190611195565b600060405180830381600087803b15801561055e57600080fd5b505af1158015610572573d6000803e3d6000fd5b5050505060007f00000000000000000000000000000000000000000000000000000000000000006001600160a01b0316639a8a05926040518163ffffffff1660e01b8152600401602060405180830381865afa1580156105d6573d6000803e3d6000fd5b505050506040513d601f19601f820116820180604052508101906105fa91906114a8565b61ffff16826060015161ffff16146106ad5760608201516040808401519051630ff8f14360e11b815261ffff909216600483015260248201527f00000000000000000000000000000000000000000000000000000000000000006001600160a01b031690631ff1e28690604401602060405180830381865afa158015610684573d6000803e3d6000fd5b505050506040513d601f19601f820116820180604052508101906106a89190611106565b6106ba565b6106ba8260400151610ceb565b905060006106c782610d17565b60ff169050600060088211156106e5576106e26008836114c5565b90505b6001600160a01b03831663a9059cbb8761070084600a6115c2565b876020015161070f91906115ce565b6040516001600160e01b031960e085901b1681526001600160a01b03909216600483015260248201526044016020604051808303816000875af115801561075a573d6000803e3d6000fd5b505050506040513d601f19601f8201168201806040525081019061077e91906115ed565b505050505050505050505050565b6040516323b872dd60e01b8152336004820152306024820152604481018390526001600160a01b038216906323b872dd906064016020604051808303816000875af11580156107df573d6000803e3d6000fd5b505050506040513d601f19601f8201168201806040525081019061080391906115ed565b5060405163095ea7b360e01b81526001600160a01b037f0000000000000000000000000000000000000000000000000000000000000000811660048301526024820184905282169063095ea7b3906044016020604051808303816000875af1158015610873573d6000803e3d6000fd5b505050506040513d601f19601f8201168201806040525081019061089791906115ed565b5060007f00000000000000000000000000000000000000000000000000000000000000006001600160a01b0316630f5287b07f00000000000000000000000000000000000000000000000000000000000000006001600160a01b0316631a90a2196040518163ffffffff1660e01b8152600401602060405180830381865afa158015610927573d6000803e3d6000fd5b505050506040513d601f19601f8201168201806040525081019061094b91906110bf565b84868a6001600160a01b038b166040516001600160e01b031960e088901b1681526001600160a01b039094166004850152602484019290925261ffff166044830152606482015260006084820181905260a482015260c40160206040518083038185885af11580156109c1573d6000803e3d6000fd5b50505050506040513d601f19601f820116820180604052508101906109e6919061160f565b60408051600180825281830190925291925060009190816020015b6040805160608101825260008082526020808301829052928201528252600019909201910181610a0157905050905060405180606001604052807f00000000000000000000000000000000000000000000000000000000000000006001600160a01b0316639a8a05926040518163ffffffff1660e01b8152600401602060405180830381865afa158015610a99573d6000803e3d6000fd5b505050506040513d601f19601f82011682018060405250810190610abd91906114a8565b61ffff1681526020016001600160a01b037f00000000000000000000000000000000000000000000000000000000000000001681526020018367ffffffffffffffff1681525081600081518110610b1657610b16611123565b60200260200101819052506000610b2c88610169565b9050803414610b8e5760405162461bcd60e51b815260206004820152602860248201527f496e636f7272656374207061796d656e7420746f20636f7665722064656c6976604482015267195c9e4818dbdcdd60c21b606482015260840161030d565b604080516001600160a01b03881660208201526000910160405160208183030381529060405290507f00000000000000000000000000000000000000000000000000000000000000006001600160a01b031663329a2be77f00000000000000000000000000000000000000000000000000000000000000006001600160a01b0316631a90a2196040518163ffffffff1660e01b8152600401602060405180830381865afa158015610c43573d6000803e3d6000fd5b505050506040513d601f19601f82011682018060405250810190610c6791906110bf565b610c7190856114c5565b8b8b8560006203d0908a6040518863ffffffff1660e01b8152600401610c9c9695949392919061162a565b60206040518083038185885af1158015610cba573d6000803e3d6000fd5b50505050506040513d601f19601f82011682018060405250810190610cdf919061160f565b50505050505050505050565b600060a082901c15610d135760405163033b960d60e41b81526004810183905260240161030d565b5090565b60408051600481526024810182526020810180516001600160e01b031663313ce56760e01b179052905160009182916001600160a01b03851691610d5a916116cb565b600060405180830381855afa9150503d8060008114610d95576040519150601f19603f3d011682016040523d82523d6000602084013e610d9a565b606091505b509150508080602001905181019061029a91906116e7565b61ffff81168114610dc257600080fd5b50565b8035610dd081610db2565b919050565b600060208284031215610de757600080fd5b813561029a81610db2565b634e487b7160e01b600052604160045260246000fd5b6040516080810167ffffffffffffffff81118282101715610e2b57610e2b610df2565b60405290565b604051610160810167ffffffffffffffff81118282101715610e2b57610e2b610df2565b604051601f8201601f1916810167ffffffffffffffff81118282101715610e7e57610e7e610df2565b604052919050565b600067ffffffffffffffff821115610ea057610ea0610df2565b50601f01601f191660200190565b600082601f830112610ebf57600080fd5b8135610ed2610ecd82610e86565b610e55565b818152846020838601011115610ee757600080fd5b816020850160208301376000918101602001919091529392505050565b600067ffffffffffffffff821115610f1e57610f1e610df2565b5060051b60200190565b600080600080600060a08688031215610f4057600080fd5b853567ffffffffffffffff80821115610f5857600080fd5b610f6489838a01610eae565b9650602091508188013581811115610f7b57600080fd5b8801601f81018a13610f8c57600080fd5b8035610f9a610ecd82610f04565b81815260059190911b8201840190848101908c831115610fb957600080fd5b8584015b83811015610ff157803586811115610fd55760008081fd5b610fe38f8983890101610eae565b845250918601918601610fbd565b5098505050506040880135945061100d91505060608701610dc5565b949793965091946080013592915050565b6001600160a01b0381168114610dc257600080fd5b600080600080600060a0868803121561104b57600080fd5b853561105681610db2565b945060208601356110668161101e565b935060408601356110768161101e565b925060608601359150608086013561108d8161101e565b809150509295509295909350565b600080604083850312156110ae57600080fd5b505080516020909101519092909150565b6000602082840312156110d157600080fd5b5051919050565b634e487b7160e01b600052601160045260246000fd5b60008219821115611101576111016110d8565b500190565b60006020828403121561111857600080fd5b815161029a8161101e565b634e487b7160e01b600052603260045260246000fd5b60005b8381101561115457818101518382015260200161113c565b83811115611163576000848401525b50505050565b60008151808452611181816020860160208601611139565b601f01601f19169290920160200192915050565b60208152600061029a6020830184611169565b805160ff81168114610dd057600080fd5b805163ffffffff81168114610dd057600080fd5b8051610dd081610db2565b805167ffffffffffffffff81168114610dd057600080fd5b600082601f83011261120157600080fd5b815161120f610ecd82610e86565b81815284602083860101111561122457600080fd5b611235826020830160208701611139565b949350505050565b600082601f83011261124e57600080fd5b8151602061125e610ecd83610f04565b82815260079290921b8401810191818101908684111561127d57600080fd5b8286015b848110156112de576080818903121561129a5760008081fd5b6112a2610e08565b81518152848201518582015260406112bb8184016111a8565b9082015260606112cc8382016111a8565b90820152835291830191608001611281565b509695505050505050565b6000602082840312156112fb57600080fd5b815167ffffffffffffffff8082111561131357600080fd5b90830190610160828603121561132857600080fd5b611330610e31565b611339836111a8565b8152611347602084016111b9565b6020820152611358604084016111b9565b6040820152611369606084016111cd565b60608201526080830151608082015261138460a084016111d8565b60a082015261139560c084016111a8565b60c082015260e0830151828111156113ac57600080fd5b6113b8878286016111f0565b60e0830152506101006113cc8185016111b9565b9082015261012083810151838111156113e457600080fd5b6113f08882870161123d565b91830191909152506101409283015192810192909252509392505050565b600060e0828403121561142057600080fd5b60405160e0810181811067ffffffffffffffff8211171561144357611443610df2565b60405261144f836111a8565b81526020830151602082015260408301516040820152606083015161147381610db2565b60608201526080838101519082015260a083015161149081610db2565b60a082015260c0928301519281019290925250919050565b6000602082840312156114ba57600080fd5b815161029a81610db2565b6000828210156114d7576114d76110d8565b500390565b600181815b808511156115175781600019048211156114fd576114fd6110d8565b8085161561150a57918102915b93841c93908002906114e1565b509250929050565b60008261152e575060016115bc565b8161153b575060006115bc565b8160018114611551576002811461155b57611577565b60019150506115bc565b60ff84111561156c5761156c6110d8565b50506001821b6115bc565b5060208310610133831016604e8410600b841016171561159a575081810a6115bc565b6115a483836114dc565b80600019048211156115b8576115b86110d8565b0290505b92915050565b600061029a838361151f565b60008160001904831182151516156115e8576115e86110d8565b500290565b6000602082840312156115ff57600080fd5b8151801515811461029a57600080fd5b60006020828403121561162157600080fd5b61029a826111d8565b600061ffff8089168352602060018060a01b03891681850152604060c08186015261165860c086018a611169565b60608681018a90526080870189905286820360a088015287518083528489019285019060005b818110156116b7578451805189168452878101518885015286015167ffffffffffffffff1686840152938601939183019160010161167e565b50909e9d5050505050505050505050505050565b600082516116dd818460208701611139565b9190910192915050565b6000602082840312156116f957600080fd5b61029a826111a856fea264697066735822122049dd6b893fe5fd3717ca3793aacaeb85b04e1913ee7da3cda064a965e0740f9e64736f6c634300080d0033",
    "linkReferences": {}
  },
  "methodIdentifiers": {
    "quoteCrossChainDeposit(uint16)": "2b524c97",
    "receiveWormholeMessages(bytes,bytes[],bytes32,uint16,bytes32)": "529dca32",
    "sendCrossChainDeposit(uint16,address,address,uint256,address)": "8d3ea489",
    "tokenBridge()": "c6328a46",
    "wormhole()": "84acd1bb",
    "wormholeRelayer()": "da25b725"
  },
  "id": 36
}