{
  "abi": [
    {
      "inputs": [
        {
          "internalType": "address",
          "name": "wormhole_",
          "type": "address"
        },
        {
          "internalType": "uint256",
          "name": "devnetGuardian",
          "type": "uint256"
        }
      ],
      "stateMutability": "nonpayable",
      "type": "constructor"
    },
    {
      "inputs": [
        {
          "components": [
            {
              "internalType": "uint8",
              "name": "version",
              "type": "uint8"
            },
            {
              "internalType": "uint32",
              "name": "timestamp",
              "type": "uint32"
            },
            {
              "internalType": "uint32",
              "name": "nonce",
              "type": "uint32"
            },
            {
              "internalType": "uint16",
              "name": "emitterChainId",
              "type": "uint16"
            },
            {
              "internalType": "bytes32",
              "name": "emitterAddress",
              "type": "bytes32"
            },
            {
              "internalType": "uint64",
              "name": "sequence",
              "type": "uint64"
            },
            {
              "internalType": "uint8",
              "name": "consistencyLevel",
              "type": "uint8"
            },
            {
              "internalType": "bytes",
              "name": "payload",
              "type": "bytes"
            },
            {
              "internalType": "uint32",
              "name": "guardianSetIndex",
              "type": "uint32"
            },
            {
              "components": [
                {
                  "internalType": "bytes32",
                  "name": "r",
                  "type": "bytes32"
                },
                {
                  "internalType": "bytes32",
                  "name": "s",
                  "type": "bytes32"
                },
                {
                  "internalType": "uint8",
                  "name": "v",
                  "type": "uint8"
                },
                {
                  "internalType": "uint8",
                  "name": "guardianIndex",
                  "type": "uint8"
                }
              ],
              "internalType": "struct IWormhole.Signature[]",
              "name": "signatures",
              "type": "tuple[]"
            },
            {
              "internalType": "bytes32",
              "name": "hash",
              "type": "bytes32"
            }
          ],
          "internalType": "struct IWormhole.VM",
          "name": "vm_",
          "type": "tuple"
        }
      ],
      "name": "encodeAndSignMessage",
      "outputs": [
        {
          "internalType": "bytes",
          "name": "signedMessage",
          "type": "bytes"
        }
      ],
      "stateMutability": "view",
      "type": "function"
    },
    {
      "inputs": [
        {
          "components": [
            {
              "internalType": "uint8",
              "name": "version",
              "type": "uint8"
            },
            {
              "internalType": "uint32",
              "name": "timestamp",
              "type": "uint32"
            },
            {
              "internalType": "uint32",
              "name": "nonce",
              "type": "uint32"
            },
            {
              "internalType": "uint16",
              "name": "emitterChainId",
              "type": "uint16"
            },
            {
              "internalType": "bytes32",
              "name": "emitterAddress",
              "type": "bytes32"
            },
            {
              "internalType": "uint64",
              "name": "sequence",
              "type": "uint64"
            },
            {
              "internalType": "uint8",
              "name": "consistencyLevel",
              "type": "uint8"
            },
            {
              "internalType": "bytes",
              "name": "payload",
              "type": "bytes"
            },
            {
              "internalType": "uint32",
              "name": "guardianSetIndex",
              "type": "uint32"
            },
            {
              "components": [
                {
                  "internalType": "bytes32",
                  "name": "r",
                  "type": "bytes32"
                },
                {
                  "internalType": "bytes32",
                  "name": "s",
                  "type": "bytes32"
                },
                {
                  "internalType": "uint8",
                  "name": "v",
                  "type": "uint8"
                },
                {
                  "internalType": "uint8",
                  "name": "guardianIndex",
                  "type": "uint8"
                }
              ],
              "internalType": "struct IWormhole.Signature[]",
              "name": "signatures",
              "type": "tuple[]"
            },
            {
              "internalType": "bytes32",
              "name": "hash",
              "type": "bytes32"
            }
          ],
          "internalType": "struct IWormhole.VM",
          "name": "vm_",
          "type": "tuple"
        }
      ],
      "name": "encodeObservation",
      "outputs": [
        {
          "internalType": "bytes",
          "name": "encodedObservation",
          "type": "bytes"
        }
      ],
      "stateMutability": "pure",
      "type": "function"
    },
    {
      "inputs": [
        {
          "components": [
            {
              "internalType": "bytes32[]",
              "name": "topics",
              "type": "bytes32[]"
            },
            {
              "internalType": "bytes",
              "name": "data",
              "type": "bytes"
            },
            {
              "internalType": "address",
              "name": "emitter",
              "type": "address"
            }
          ],
          "internalType": "struct VmSafe.Log[]",
          "name": "logs",
          "type": "tuple[]"
        },
        {
          "internalType": "uint32",
          "name": "nonce",
          "type": "uint32"
        },
        {
          "internalType": "uint16",
          "name": "emitterChainId",
          "type": "uint16"
        },
        {
          "internalType": "address",
          "name": "emitterAddress",
          "type": "address"
        }
      ],
      "name": "fetchSignedBatchVAAFromLogs",
      "outputs": [
        {
          "internalType": "bytes",
          "name": "signedMessage",
          "type": "bytes"
        }
      ],
      "stateMutability": "view",
      "type": "function"
    },
    {
      "inputs": [
        {
          "components": [
            {
              "internalType": "bytes32[]",
              "name": "topics",
              "type": "bytes32[]"
            },
            {
              "internalType": "bytes",
              "name": "data",
              "type": "bytes"
            },
            {
              "internalType": "address",
              "name": "emitter",
              "type": "address"
            }
          ],
          "internalType": "struct VmSafe.Log",
          "name": "log",
          "type": "tuple"
        },
        {
          "internalType": "uint16",
          "name": "emitterChainId",
          "type": "uint16"
        }
      ],
      "name": "fetchSignedMessageFromLogs",
      "outputs": [
        {
          "internalType": "bytes",
          "name": "signedMessage",
          "type": "bytes"
        }
      ],
      "stateMutability": "view",
      "type": "function"
    },
    {
      "inputs": [
        {
          "components": [
            {
              "internalType": "bytes32[]",
              "name": "topics",
              "type": "bytes32[]"
            },
            {
              "internalType": "bytes",
              "name": "data",
              "type": "bytes"
            },
            {
              "internalType": "address",
              "name": "emitter",
              "type": "address"
            }
          ],
          "internalType": "struct VmSafe.Log[]",
          "name": "logs",
          "type": "tuple[]"
        }
      ],
      "name": "fetchWormholeMessageFromLog",
      "outputs": [
        {
          "components": [
            {
              "internalType": "bytes32[]",
              "name": "topics",
              "type": "bytes32[]"
            },
            {
              "internalType": "bytes",
              "name": "data",
              "type": "bytes"
            },
            {
              "internalType": "address",
              "name": "emitter",
              "type": "address"
            }
          ],
          "internalType": "struct VmSafe.Log[]",
          "name": "",
          "type": "tuple[]"
        }
      ],
      "stateMutability": "pure",
      "type": "function"
    },
    {
      "inputs": [
        {
          "internalType": "uint256",
          "name": "newFee",
          "type": "uint256"
        }
      ],
      "name": "setMessageFee",
      "outputs": [],
      "stateMutability": "nonpayable",
      "type": "function"
    },
    {
      "inputs": [],
      "name": "vm",
      "outputs": [
        {
          "internalType": "contract Vm",
          "name": "",
          "type": "address"
        }
      ],
      "stateMutability": "view",
      "type": "function"
    },
    {
      "inputs": [],
      "name": "wormhole",
      "outputs": [
        {
          "internalType": "contract IWormhole",
          "name": "",
          "type": "address"
        }
      ],
      "stateMutability": "view",
      "type": "function"
    }
  ],
  "bytecode": {
    "object": "0x60806040523480156200001157600080fd5b50604051620028b3380380620028b383398101604081905262000034916200065b565b600080546001600160a01b0319166001600160a01b03841617905560018190556040516001625e79b760e01b0319815260048101829052620000d490600080516020620028938339815191529063ffa1864990602401602060405180830381865afa158015620000a8573d6000803e3d6000fd5b505050506040513d601f19601f82011682018060405250810190620000ce91906200068a565b620000dc565b5050620008aa565b604051630667f9d760e41b815230600482015260026024820152600090600080516020620028938339815191529063667f9d7090604401602060405180830381865afa15801562000131573d6000803e3d6000fd5b505050506040513d601f19601f82011682018060405250810190620001579190620006af565b905080156200019e5760405162461bcd60e51b815260206004820152600e60248201526d1a5b98dbdc9c9958dd081cdb1bdd60921b60448201526064015b60405180910390fd5b60008060009054906101000a90046001600160a01b03166001600160a01b0316631cfe79516040518163ffffffff1660e01b8152600401602060405180830381865afa158015620001f3573d6000803e3d6000fd5b505050506040513d601f19601f82011682018060405250810190620002199190620006de565b6040805163ffffffff8316602082015260029181019190915290915060009060600160408051808303601f1901815290829052805160209091012060008054630667f9d760e41b84526001600160a01b031660048401526024830182905290925090600080516020620028938339815191529063667f9d7090604401602060405180830381865afa158015620002b3573d6000803e3d6000fd5b505050506040513d601f19601f82011682018060405250810190620002d99190620006af565b905060015b81811015620003ad57600054604080516020808201879052825180830382018152918301909252805191012060008051602062002893833981519152916370ca10bb916001600160a01b03909116906200033a908590620006fc565b60405160e084901b6001600160e01b03191681526001600160a01b039092166004830152602482015260006044820152606401600060405180830381600087803b1580156200038857600080fd5b505af11580156200039d573d6000803e3d6000fd5b50505050600181019050620002de565b5060008054604080516020808201879052825180830382018152918301909252805191012060008051602062002893833981519152926370ca10bb926001600160a01b031691620003fe91620006fc565b60405160e084901b6001600160e01b03191681526001600160a01b03928316600482015260248101919091529088166044820152606401600060405180830381600087803b1580156200045057600080fd5b505af115801562000465573d6000803e3d6000fd5b50506000546040516370ca10bb60e01b81526001600160a01b03909116600482015260248101859052600160448201526000805160206200289383398151915292506370ca10bb9150606401600060405180830381600087803b158015620004cc57600080fd5b505af1158015620004e1573d6000803e3d6000fd5b505060008054604051637ca8cbad60e11b815263ffffffff881660048201529193506001600160a01b0316915063f951975a90602401600060405180830381865afa15801562000535573d6000803e3d6000fd5b505050506040513d6000823e601f3d908101601f191682016040526200055f919081019062000797565b518051909150600114620005b65760405162461bcd60e51b815260206004820152601560248201527f677561726469616e732e6c656e67746820213d20310000000000000000000000604482015260640162000195565b856001600160a01b031681600081518110620005d657620005d662000894565b60200260200101516001600160a01b031614620006365760405162461bcd60e51b815260206004820152601f60248201527f696e636f727265637420677561726469616e20736574206f7665727269646500604482015260640162000195565b505050505050565b80516001600160a01b03811681146200065657600080fd5b919050565b600080604083850312156200066f57600080fd5b6200067a836200063e565b9150602083015190509250929050565b6000602082840312156200069d57600080fd5b620006a8826200063e565b9392505050565b600060208284031215620006c257600080fd5b5051919050565b805163ffffffff811681146200065657600080fd5b600060208284031215620006f157600080fd5b620006a882620006c9565b600082198211156200071e57634e487b7160e01b600052601160045260246000fd5b500190565b634e487b7160e01b600052604160045260246000fd5b604080519081016001600160401b03811182821017156200075e576200075e62000723565b60405290565b604051601f8201601f191681016001600160401b03811182821017156200078f576200078f62000723565b604052919050565b60006020808385031215620007ab57600080fd5b82516001600160401b0380821115620007c357600080fd5b9084019060408287031215620007d857600080fd5b620007e262000739565b825182811115620007f257600080fd5b8301601f810188136200080457600080fd5b80518381111562000819576200081962000723565b8060051b93506200082c86850162000764565b818152938201860193868101908a8611156200084757600080fd5b928701925b85841015620008705762000860846200063e565b825292870192908701906200084c565b84525062000883915050838501620006c9565b848201528094505050505092915050565b634e487b7160e01b600052603260045260246000fd5b611fd980620008ba6000396000f3fe608060405234801561001057600080fd5b50600436106100885760003560e01c806355a58d7d1161005b57806355a58d7d1461011157806364bb9bfb1461013157806384acd1bb14610144578063b34cd8601461015757600080fd5b80630e6452951461008d57806323aa2a9d146100b657806323ad78c8146100cb5780633a768463146100de575b600080fd5b6100a061009b366004611726565b61016a565b6040516100ad91906118a6565b60405180910390f35b6100c96100c43660046118c0565b610426565b005b6100a06100d9366004611a44565b610700565b6100f9737109709ecfa91a80626ff3989d68f67f5b1dd12d81565b6040516001600160a01b0390911681526020016100ad565b61012461011f366004611ab6565b610d92565b6040516100ad9190611aea565b6100a061013f366004611726565b610f56565b6000546100f9906001600160a01b031681565b6100a0610165366004611bad565b610fa7565b6060600061017783610f56565b905061018281610fe7565b610140840152604080516001808252818301909252600091816020015b60408051608081018252600080825260208083018290529282018190526060820152825260001990920191018161019f579050506001546101408601516040516338d07aa960e21b815260048101929092526024820152909150737109709ecfa91a80626ff3989d68f67f5b1dd12d9063e341eaa490604401606060405180830381865afa158015610235573d6000803e3d6000fd5b505050506040513d601f19601f820116820180604052508101906102599190611bfe565b8360008151811061026c5761026c611c35565b60200260200101516040018460008151811061028a5761028a611c35565b6020026020010151600001856000815181106102a8576102a8611c35565b602002602001015160200183815250838152508360ff1660ff168152505050506000816000815181106102dd576102dd611c35565b60200260200101516060019060ff16908160ff1681525050836000015160008054906101000a90046001600160a01b03166001600160a01b0316631cfe79516040518163ffffffff1660e01b8152600401602060405180830381865afa15801561034b573d6000803e3d6000fd5b505050506040513d601f19601f8201168201806040525081019061036f9190611c4b565b82518360008261038157610381611c35565b602002602001015160600151846000815181106103a0576103a0611c35565b602002602001015160000151856000815181106103bf576103bf611c35565b602002602001015160200151601b876000815181106103e0576103e0611c35565b6020026020010151604001516103f69190611c7e565b8860405160200161040e989796959493929190611cbd565b60405160208183030381529060405292505050919050565b600063436f726560001b9050600081600360008054906101000a90046001600160a01b03166001600160a01b0316639a8a05926040518163ffffffff1660e01b8152600401602060405180830381865afa158015610488573d6000803e3d6000fd5b505050506040513d601f19601f820116820180604052508101906104ac9190611d33565b856040516020016104f0949392919093845260f89290921b6001600160f81b031916602084015260f01b6001600160f01b0319166021830152602382015260430190565b60408051601f19818403018152610160830182526001835263ffffffff421660208481019190915260008484018190528054845163fbe3c2cd60e01b8152945193965090949360608501936001600160a01b039092169263fbe3c2cd926004808401938290030181865afa15801561056c573d6000803e3d6000fd5b505050506040513d601f19601f820116820180604052508101906105909190611d33565b61ffff16815260200160008054906101000a90046001600160a01b03166001600160a01b031663b172b2226040518163ffffffff1660e01b8152600401602060405180830381865afa1580156105ea573d6000803e3d6000fd5b505050506040513d601f19601f8201168201806040525081019061060e9190611d50565b81526000602080830182905260c860408085019190915260608401879052608084018390528051838152918201905260a0909201919061067d565b6040805160808101825260008082526020808301829052928201819052606082015282526000199092019101816106495790505b508152600060209091018190529091506106968261016a565b60005460405163f42bc64160e01b81529192506001600160a01b03169063f42bc641906106c79084906004016118a6565b600060405180830381600087803b1580156106e157600080fd5b505af11580156106f5573d6000803e3d6000fd5b505050505050505050565b606060008086516001600160401b0381111561071e5761071e6114bb565b60405190808252806020026020018201604052801561075757816020015b610744611460565b81526020019060019003908161073c5790505b50905060005b87518110156108825761078888828151811061077b5761077b611c35565b6020026020010151611020565b82828151811061079a5761079a611c35565b6020026020010181905250428282815181106107b8576107b8611c35565b60200260200101516020019063ffffffff16908163ffffffff1681525050858282815181106107e9576107e9611c35565b60200260200101516060019061ffff16908161ffff1681525050846001600160a01b031660001b82828151811061082257610822611c35565b602002602001015160800181815250508663ffffffff1682828151811061084b5761084b611c35565b60200260200101516040015163ffffffff16036108705761086d600184611d69565b92505b8061087a81611d8e565b91505061075d565b50606060008360ff166001600160401b038111156108a2576108a26114bb565b6040519080825280602002602001820160405280156108cb578160200160208202803683370190505b5090506000805b8a51811015610a7b578963ffffffff168582815181106108f4576108f4611c35565b60200260200101516040015163ffffffff1603610a6957600085828151811061091f5761091f611c35565b60200260200101516020015186838151811061093d5761093d611c35565b60200260200101516040015187848151811061095b5761095b611c35565b60200260200101516060015188858151811061097957610979611c35565b60200260200101516080015189868151811061099757610997611c35565b602002602001015160a001518a87815181106109b5576109b5611c35565b602002602001015160c001518b88815181106109d3576109d3611c35565b602002602001015160e001516040516020016109f59796959493929190611da7565b6040516020818303038152906040529050610a0f81610fe7565b848460ff1681518110610a2457610a24611c35565b6020026020010181815250508483825183604051602001610a489493929190611e2e565b60405160208183030381529060405294508280610a6490611e8a565b935050505b80610a7381611d8e565b9150506108d2565b506000610ae7600284604051602001610a949190611edc565b60405160208183030381529060405280519060200120604051602001610ad392919060f89290921b6001600160f81b0319168252600182015260210190565b604051602081830303815290604052610fe7565b60408051600180825281830190925291925060009190816020015b604080516080810182526000808252602080830182905292820181905260608201528252600019909201910181610b025750506001546040516338d07aa960e21b8152600481019190915260248101849052909150737109709ecfa91a80626ff3989d68f67f5b1dd12d9063e341eaa490604401606060405180830381865afa158015610b93573d6000803e3d6000fd5b505050506040513d601f19601f82011682018060405250810190610bb79190611bfe565b83600081518110610bca57610bca611c35565b602002602001015160400184600081518110610be857610be8611c35565b602002602001015160000185600081518110610c0657610c06611c35565b602002602001015160200183815250838152508360ff1660ff16815250505050600081600081518110610c3b57610c3b611c35565b60200260200101516060019060ff16908160ff1681525050600260008054906101000a90046001600160a01b03166001600160a01b0316631cfe79516040518163ffffffff1660e01b8152600401602060405180830381865afa158015610ca6573d6000803e3d6000fd5b505050506040513d601f19601f82011682018060405250810190610cca9190611c4b565b600183600081518110610cdf57610cdf611c35565b60200260200101516060015184600081518110610cfe57610cfe611c35565b60200260200101516000015185600081518110610d1d57610d1d611c35565b602002602001015160200151601b87600081518110610d3e57610d3e611c35565b602002602001015160400151610d549190611c7e565b8d8b8f8e604051602001610d729b9a99989796959493929190611ee8565b604051602081830303815290604052975050505050505050949350505050565b60606000805b8351811015610e1f577f6eb224fb001ed210e379b335e35efe88672a8ce935d981a6896b27ffdf52a3b2848281518110610dd457610dd4611c35565b602002602001015160000151600081518110610df257610df2611c35565b602002602001015103610e0d57610e0a600183611f74565b91505b80610e1781611d8e565b915050610d98565b506000816001600160401b03811115610e3a57610e3a6114bb565b604051908082528060200260200182016040528015610e8757816020015b60408051606080820183528082526020820152600091810191909152815260200190600190039081610e585790505b5090506000805b8551811015610f4c577f6eb224fb001ed210e379b335e35efe88672a8ce935d981a6896b27ffdf52a3b2868281518110610eca57610eca611c35565b602002602001015160000151600081518110610ee857610ee8611c35565b602002602001015103610f3a57858181518110610f0757610f07611c35565b6020026020010151838381518110610f2157610f21611c35565b6020908102919091010152610f37600183611f74565b91505b80610f4481611d8e565b915050610e8e565b5090949350505050565b606081602001518260400151836060015184608001518560a001518660c001518760e00151604051602001610f919796959493929190611da7565b6040516020818303038152906040529050919050565b6060610fb1611460565b610fba84611020565b6001815263ffffffff4216602082015261ffff841660608201529050610fdf8161016a565b949350505050565b6000818051906020012060405160200161100391815260200190565b604051602081830303815290604052805190602001209050919050565b611028611460565b6000826000015160018151811061104157611041611c35565b602002602001015182608001818152505061107960088260206110649190611f74565b61106e9190611f8c565b6020850151906111df565b6001600160401b031660a0830152611092602082611f74565b90506110b960046110a4836020611f74565b6110ae9190611f8c565b60208501519061123c565b63ffffffff1660408301526110cf602082611f74565b90506110dc602082611f74565b905061110360016110ee836020611f74565b6110f89190611f8c565b602085015190611299565b60ff1660c0830152611116602082611f74565b905060006111318285602001516112f590919063ffffffff16565b905061113e602083611f74565b6020850151909250611151908383611353565b60e08401526111608183611f74565b9150818460200151516111739190611f8c565b61117d9083611f74565b915083602001515182146111d85760405162461bcd60e51b815260206004820181905260248201527f6661696c656420746f20706172736520776f726d686f6c65206d65737361676560448201526064015b60405180910390fd5b5050919050565b60006111ec826008611f74565b835110156112335760405162461bcd60e51b8152602060048201526014602482015273746f55696e7436345f6f75744f66426f756e647360601b60448201526064016111cf565b50016008015190565b6000611249826004611f74565b835110156112905760405162461bcd60e51b8152602060048201526014602482015273746f55696e7433325f6f75744f66426f756e647360601b60448201526064016111cf565b50016004015190565b60006112a6826001611f74565b835110156112ec5760405162461bcd60e51b8152602060048201526013602482015272746f55696e74385f6f75744f66426f756e647360681b60448201526064016111cf565b50016001015190565b6000611302826020611f74565b8351101561134a5760405162461bcd60e51b8152602060048201526015602482015274746f55696e743235365f6f75744f66426f756e647360581b60448201526064016111cf565b50016020015190565b60608161136181601f611f74565b10156113a05760405162461bcd60e51b815260206004820152600e60248201526d736c6963655f6f766572666c6f7760901b60448201526064016111cf565b6113aa8284611f74565b845110156113ee5760405162461bcd60e51b8152602060048201526011602482015270736c6963655f6f75744f66426f756e647360781b60448201526064016111cf565b60608215801561140d5760405191506000825260208201604052611457565b6040519150601f8416801560200281840101858101878315602002848b0101015b8183101561144657805183526020928301920161142e565b5050858452601f01601f1916604052505b50949350505050565b604080516101608101825260008082526020820181905291810182905260608082018390526080820183905260a0820183905260c0820183905260e08201819052610100820183905261012082015261014081019190915290565b634e487b7160e01b600052604160045260246000fd5b604051608081016001600160401b03811182821017156114f3576114f36114bb565b60405290565b60405161016081016001600160401b03811182821017156114f3576114f36114bb565b604051606081016001600160401b03811182821017156114f3576114f36114bb565b604051601f8201601f191681016001600160401b0381118282101715611566576115666114bb565b604052919050565b60ff8116811461157d57600080fd5b50565b803561158b8161156e565b919050565b63ffffffff8116811461157d57600080fd5b803561158b81611590565b61ffff8116811461157d57600080fd5b803561158b816115ad565b80356001600160401b038116811461158b57600080fd5b600082601f8301126115f057600080fd5b81356001600160401b03811115611609576116096114bb565b61161c601f8201601f191660200161153e565b81815284602083860101111561163157600080fd5b816020850160208301376000918101602001919091529392505050565b60006001600160401b03821115611667576116676114bb565b5060051b60200190565b600082601f83011261168257600080fd5b813560206116976116928361164e565b61153e565b82815260079290921b840181019181810190868411156116b657600080fd5b8286015b8481101561171b57608081890312156116d35760008081fd5b6116db6114d1565b8135815284820135858201526040808301356116f68161156e565b908201526060828101356117098161156e565b908201528352918301916080016116ba565b509695505050505050565b60006020828403121561173857600080fd5b81356001600160401b038082111561174f57600080fd5b90830190610160828603121561176457600080fd5b61176c6114f9565b61177583611580565b8152611783602084016115a2565b6020820152611794604084016115a2565b60408201526117a5606084016115bd565b6060820152608083013560808201526117c060a084016115c8565b60a08201526117d160c08401611580565b60c082015260e0830135828111156117e857600080fd5b6117f4878286016115df565b60e0830152506101006118088185016115a2565b90820152610120838101358381111561182057600080fd5b61182c88828701611671565b91830191909152506101409283013592810192909252509392505050565b60005b8381101561186557818101518382015260200161184d565b83811115611874576000848401525b50505050565b6000815180845261189281602086016020860161184a565b601f01601f19169290920160200192915050565b6020815260006118b9602083018461187a565b9392505050565b6000602082840312156118d257600080fd5b5035919050565b80356001600160a01b038116811461158b57600080fd5b60006060828403121561190257600080fd5b61190a61151c565b905081356001600160401b038082111561192357600080fd5b818401915084601f83011261193757600080fd5b813560206119476116928361164e565b82815260059290921b8401810191818101908884111561196657600080fd5b948201945b838610156119845785358252948201949082019061196b565b8652508581013593508284111561199a57600080fd5b6119a6878588016115df565b81860152505050506119ba604083016118d9565b604082015292915050565b600082601f8301126119d657600080fd5b813560206119e66116928361164e565b82815260059290921b84018101918181019086841115611a0557600080fd5b8286015b8481101561171b5780356001600160401b03811115611a285760008081fd5b611a368986838b01016118f0565b845250918301918301611a09565b60008060008060808587031215611a5a57600080fd5b84356001600160401b03811115611a7057600080fd5b611a7c878288016119c5565b9450506020850135611a8d81611590565b92506040850135611a9d816115ad565b9150611aab606086016118d9565b905092959194509250565b600060208284031215611ac857600080fd5b81356001600160401b03811115611ade57600080fd5b610fdf848285016119c5565b60006020808301818452808551808352604092508286019150828160051b8701018488016000805b84811015611b9e57898403603f19018652825180516060808752815190870181905260808701918b019085905b80821015611b5f5782518452928c0192918c019160019190910190611b3f565b505050898201518682038b880152611b77828261187a565b928a01516001600160a01b0316968a01969096525095880195935091870191600101611b12565b50919998505050505050505050565b60008060408385031215611bc057600080fd5b82356001600160401b03811115611bd657600080fd5b611be2858286016118f0565b9250506020830135611bf3816115ad565b809150509250929050565b600080600060608486031215611c1357600080fd5b8351611c1e8161156e565b602085015160409095015190969495509392505050565b634e487b7160e01b600052603260045260246000fd5b600060208284031215611c5d57600080fd5b81516118b981611590565b634e487b7160e01b600052601160045260246000fd5b600060ff821660ff841680821015611c9857611c98611c68565b90039392505050565b60008151611cb381856020860161184a565b9290920192915050565b600060ff60f81b808b60f81b16835263ffffffff60e01b8a60e01b166001840152808960f81b166005840152808860f81b166006840152866007840152856027840152808560f81b166047840152508251611d1f81604885016020870161184a565b919091016048019998505050505050505050565b600060208284031215611d4557600080fd5b81516118b9816115ad565b600060208284031215611d6257600080fd5b5051919050565b600060ff821660ff84168060ff03821115611d8657611d86611c68565b019392505050565b600060018201611da057611da0611c68565b5060010190565b6001600160e01b031960e089811b8216835288901b1660048201526001600160f01b031960f087901b166008820152600a81018590526001600160c01b031960c085901b16602a8201526001600160f81b031960f884901b1660328201528151600090611e1b81603385016020870161184a565b9190910160330198975050505050505050565b60008551611e40818460208a0161184a565b60f886901b6001600160f81b03191690830190815260e085901b6001600160e01b03191660018201528351611e7c81600584016020880161184a565b016005019695505050505050565b600060ff821660ff8103611ea057611ea0611c68565b60010192915050565b60008151602080840160005b83811015611ed157815187529582019590820190600101611eb5565b509495945050505050565b60006118b98284611ea9565b600060ff60f81b60f8818f821b16845263ffffffff60e01b8e60e01b166001850152818d821b166005850152818c821b1660068501528a60078501528960278501528189821b1660478501528188821b166048850152611f4b6049850188611ea9565b8287831b168152611f5f6001820187611ca1565b93505050509c9b505050505050505050505050565b60008219821115611f8757611f87611c68565b500190565b600082821015611f9e57611f9e611c68565b50039056fea2646970667358221220c8973e6c5f228e0151e5ef5b550d6b7d512f747e54cded0447af979149dfe8ec64736f6c634300080d00330000000000000000000000007109709ecfa91a80626ff3989d68f67f5b1dd12d",
    "linkReferences": {}
  },
  "methodIdentifiers": {
    "encodeAndSignMessage((uint8,uint32,uint32,uint16,bytes32,uint64,uint8,bytes,uint32,(bytes32,bytes32,uint8,uint8)[],bytes32))": "0e645295",
    "encodeObservation((uint8,uint32,uint32,uint16,bytes32,uint64,uint8,bytes,uint32,(bytes32,bytes32,uint8,uint8)[],bytes32))": "64bb9bfb",
    "fetchSignedBatchVAAFromLogs((bytes32[],bytes,address)[],uint32,uint16,address)": "23ad78c8",
    "fetchSignedMessageFromLogs((bytes32[],bytes,address),uint16)": "b34cd860",
    "fetchWormholeMessageFromLog((bytes32[],bytes,address)[])": "55a58d7d",
    "setMessageFee(uint256)": "23aa2a9d",
    "vm()": "3a768463",
    "wormhole()": "84acd1bb"
  },
  "id": 32
}