{
  "contractName": "CengliP2PEscrow",
  "abi": [
    {
      "inputs": [
        {
          "internalType": "address",
          "name": "initialOwner",
          "type": "address"
        }
      ],
      "stateMutability": "nonpayable",
      "type": "constructor"
    },
    {
      "inputs": [
        {
          "internalType": "address",
          "name": "owner",
          "type": "address"
        }
      ],
      "name": "OwnableInvalidOwner",
      "type": "error"
    },
    {
      "inputs": [
        {
          "internalType": "address",
          "name": "account",
          "type": "address"
        }
      ],
      "name": "OwnableUnauthorizedAccount",
      "type": "error"
    },
    {
      "anonymous": false,
      "inputs": [
        {
          "indexed": true,
          "internalType": "uint256",
          "name": "orderId",
          "type": "uint256"
        },
        {
          "indexed": false,
          "internalType": "enum CengliP2PEscrow.OrderStatus",
          "name": "newStatus",
          "type": "uint8"
        }
      ],
      "name": "OrderUpdated",
      "type": "event"
    },
    {
      "anonymous": false,
      "inputs": [
        {
          "indexed": true,
          "internalType": "address",
          "name": "previousOwner",
          "type": "address"
        },
        {
          "indexed": true,
          "internalType": "address",
          "name": "newOwner",
          "type": "address"
        }
      ],
      "name": "OwnershipTransferred",
      "type": "event"
    },
    {
      "inputs": [],
      "name": "orderIdCounter",
      "outputs": [
        {
          "internalType": "uint256",
          "name": "",
          "type": "uint256"
        }
      ],
      "stateMutability": "view",
      "type": "function"
    },
    {
      "inputs": [
        {
          "internalType": "uint256",
          "name": "",
          "type": "uint256"
        }
      ],
      "name": "orders",
      "outputs": [
        {
          "internalType": "address",
          "name": "buyer",
          "type": "address"
        },
        {
          "internalType": "address",
          "name": "partner",
          "type": "address"
        },
        {
          "internalType": "address",
          "name": "token",
          "type": "address"
        },
        {
          "internalType": "uint256",
          "name": "amount",
          "type": "uint256"
        },
        {
          "internalType": "enum CengliP2PEscrow.OrderStatus",
          "name": "status",
          "type": "uint8"
        }
      ],
      "stateMutability": "view",
      "type": "function"
    },
    {
      "inputs": [],
      "name": "owner",
      "outputs": [
        {
          "internalType": "address",
          "name": "",
          "type": "address"
        }
      ],
      "stateMutability": "view",
      "type": "function"
    },
    {
      "inputs": [],
      "name": "renounceOwnership",
      "outputs": [],
      "stateMutability": "nonpayable",
      "type": "function"
    },
    {
      "inputs": [
        {
          "internalType": "address",
          "name": "newOwner",
          "type": "address"
        }
      ],
      "name": "transferOwnership",
      "outputs": [],
      "stateMutability": "nonpayable",
      "type": "function"
    },
    {
      "inputs": [
        {
          "internalType": "address",
          "name": "buyer",
          "type": "address"
        },
        {
          "internalType": "address",
          "name": "partner",
          "type": "address"
        },
        {
          "internalType": "address",
          "name": "token",
          "type": "address"
        },
        {
          "internalType": "uint256",
          "name": "amount",
          "type": "uint256"
        }
      ],
      "name": "acceptOrder",
      "outputs": [
        {
          "internalType": "uint256",
          "name": "",
          "type": "uint256"
        }
      ],
      "stateMutability": "nonpayable",
      "type": "function"
    },
    {
      "inputs": [
        {
          "internalType": "uint256",
          "name": "orderId",
          "type": "uint256"
        }
      ],
      "name": "cancelOrder",
      "outputs": [],
      "stateMutability": "nonpayable",
      "type": "function"
    },
    {
      "inputs": [
        {
          "internalType": "uint256",
          "name": "orderId",
          "type": "uint256"
        }
      ],
      "name": "releaseFunds",
      "outputs": [],
      "stateMutability": "nonpayable",
      "type": "function"
    },
    {
      "inputs": [
        {
          "internalType": "uint256",
          "name": "orderId",
          "type": "uint256"
        }
      ],
      "name": "getOrder",
      "outputs": [
        {
          "internalType": "address",
          "name": "buyer",
          "type": "address"
        },
        {
          "internalType": "address",
          "name": "partner",
          "type": "address"
        },
        {
          "internalType": "address",
          "name": "token",
          "type": "address"
        },
        {
          "internalType": "uint256",
          "name": "amount",
          "type": "uint256"
        },
        {
          "internalType": "enum CengliP2PEscrow.OrderStatus",
          "name": "status",
          "type": "uint8"
        }
      ],
      "stateMutability": "view",
      "type": "function"
    }
  ],
  "bytecode": "0x60806040526001805534801562000014575f80fd5b506040516200138a3803806200138a83398181016040528101906200003a9190620001ed565b805f73ffffffffffffffffffffffffffffffffffffffff168173ffffffffffffffffffffffffffffffffffffffff1603620000ae575f6040517f1e4fbdf7000000000000000000000000000000000000000000000000000000008152600401620000a591906200022e565b60405180910390fd5b620000bf81620000c760201b60201c565b505062000249565b5f805f9054906101000a900473ffffffffffffffffffffffffffffffffffffffff169050815f806101000a81548173ffffffffffffffffffffffffffffffffffffffff021916908373ffffffffffffffffffffffffffffffffffffffff1602179055508173ffffffffffffffffffffffffffffffffffffffff168173ffffffffffffffffffffffffffffffffffffffff167f8be0079c531659141344cd1fd0a4f28419497f9722a3daafe3b4186f6b6457e060405160405180910390a35050565b5f80fd5b5f73ffffffffffffffffffffffffffffffffffffffff82169050919050565b5f620001b7826200018c565b9050919050565b620001c981620001ab565b8114620001d4575f80fd5b50565b5f81519050620001e781620001be565b92915050565b5f6020828403121562000205576200020462000188565b5b5f6200021484828501620001d7565b91505092915050565b6200022881620001ab565b82525050565b5f602082019050620002435f8301846200021d565b92915050565b61113380620002575f395ff3fe608060405234801561000f575f80fd5b5060043610610091575f3560e01c80638da5cb5b116100645780638da5cb5b14610107578063a85c38ef14610125578063be37442314610159578063d09ef24114610177578063f2fde38b146101ab57610091565b80634d68282f14610095578063514fcac7146100b157806351c40301146100cd578063715018a6146100fd575b5f80fd5b6100af60048036038101906100aa9190610c44565b6101c7565b005b6100cb60048036038101906100c69190610c44565b6103db565b005b6100e760048036038101906100e29190610cc9565b6105f0565b6040516100f49190610d3c565b60405180910390f35b6101056108b1565b005b61010f6108c4565b60405161011c9190610d64565b60405180910390f35b61013f600480360381019061013a9190610c44565b6108eb565b604051610150959493929190610df0565b60405180910390f35b610161610986565b60405161016e9190610d3c565b60405180910390f35b610191600480360381019061018c9190610c44565b61098c565b6040516101a2959493929190610df0565b60405180910390f35b6101c560048036038101906101c09190610e41565b610a3a565b005b6101cf610abe565b600160038111156101e3576101e2610d7d565b5b60025f8381526020019081526020015f206004015f9054906101000a900460ff16600381111561021657610215610d7d565b5b14610256576040517f08c379a000000000000000000000000000000000000000000000000000000000815260040161024d90610ec6565b60405180910390fd5b5f60025f8381526020019081526020015f2090505f816002015f9054906101000a900473ffffffffffffffffffffffffffffffffffffffff1690508073ffffffffffffffffffffffffffffffffffffffff1663a9059cbb835f015f9054906101000a900473ffffffffffffffffffffffffffffffffffffffff1684600301546040518363ffffffff1660e01b81526004016102f2929190610ee4565b6020604051808303815f875af115801561030e573d5f803e3d5ffd5b505050506040513d601f19601f820116820180604052508101906103329190610f40565b610371576040517f08c379a000000000000000000000000000000000000000000000000000000000815260040161036890610fb5565b60405180910390fd5b6003826004015f6101000a81548160ff0219169083600381111561039857610397610d7d565b5b0217905550827f575764e5527275e78fb8b8cecd6ae324a82d9904ef7a29349dabdff1e1f54c3560036040516103ce9190610fd3565b60405180910390a2505050565b6103e3610abe565b600160038111156103f7576103f6610d7d565b5b60025f8381526020019081526020015f206004015f9054906101000a900460ff16600381111561042a57610429610d7d565b5b1461046a576040517f08c379a000000000000000000000000000000000000000000000000000000000815260040161046190610ec6565b60405180910390fd5b5f60025f8381526020019081526020015f2090505f816002015f9054906101000a900473ffffffffffffffffffffffffffffffffffffffff1690508073ffffffffffffffffffffffffffffffffffffffff1663a9059cbb836001015f9054906101000a900473ffffffffffffffffffffffffffffffffffffffff1684600301546040518363ffffffff1660e01b8152600401610507929190610ee4565b6020604051808303815f875af1158015610523573d5f803e3d5ffd5b505050506040513d601f19601f820116820180604052508101906105479190610f40565b610586576040517f08c379a000000000000000000000000000000000000000000000000000000000815260040161057d90611036565b60405180910390fd5b6002826004015f6101000a81548160ff021916908360038111156105ad576105ac610d7d565b5b0217905550827f575764e5527275e78fb8b8cecd6ae324a82d9904ef7a29349dabdff1e1f54c3560026040516105e39190610fd3565b60405180910390a2505050565b5f6105f9610abe565b5f60015f81548092919061060c90611081565b9190505590505f8490508073ffffffffffffffffffffffffffffffffffffffff166323b872dd8730876040518463ffffffff1660e01b8152600401610653939291906110c8565b6020604051808303815f875af115801561066f573d5f803e3d5ffd5b505050506040513d601f19601f820116820180604052508101906106939190610f40565b6106d2576040517f08c379a00000000000000000000000000000000000000000000000000000000081526004016106c990610fb5565b60405180910390fd5b6040518060a001604052808873ffffffffffffffffffffffffffffffffffffffff1681526020018773ffffffffffffffffffffffffffffffffffffffff1681526020018673ffffffffffffffffffffffffffffffffffffffff1681526020018581526020016001600381111561074b5761074a610d7d565b5b81525060025f8481526020019081526020015f205f820151815f015f6101000a81548173ffffffffffffffffffffffffffffffffffffffff021916908373ffffffffffffffffffffffffffffffffffffffff1602179055506020820151816001015f6101000a81548173ffffffffffffffffffffffffffffffffffffffff021916908373ffffffffffffffffffffffffffffffffffffffff1602179055506040820151816002015f6101000a81548173ffffffffffffffffffffffffffffffffffffffff021916908373ffffffffffffffffffffffffffffffffffffffff160217905550606082015181600301556080820151816004015f6101000a81548160ff0219169083600381111561086357610862610d7d565b5b0217905550905050817f575764e5527275e78fb8b8cecd6ae324a82d9904ef7a29349dabdff1e1f54c35600160405161089c9190610fd3565b60405180910390a28192505050949350505050565b6108b9610abe565b6108c25f610b45565b565b5f805f9054906101000a900473ffffffffffffffffffffffffffffffffffffffff16905090565b6002602052805f5260405f205f91509050805f015f9054906101000a900473ffffffffffffffffffffffffffffffffffffffff1690806001015f9054906101000a900473ffffffffffffffffffffffffffffffffffffffff1690806002015f9054906101000a900473ffffffffffffffffffffffffffffffffffffffff1690806003015490806004015f9054906101000a900460ff16905085565b60015481565b5f805f805f8060025f8881526020019081526020015f209050805f015f9054906101000a900473ffffffffffffffffffffffffffffffffffffffff16816001015f9054906101000a900473ffffffffffffffffffffffffffffffffffffffff16826002015f9054906101000a900473ffffffffffffffffffffffffffffffffffffffff168360030154846004015f9054906101000a900460ff16955095509550955095505091939590929450565b610a42610abe565b5f73ffffffffffffffffffffffffffffffffffffffff168173ffffffffffffffffffffffffffffffffffffffff1603610ab2575f6040517f1e4fbdf7000000000000000000000000000000000000000000000000000000008152600401610aa99190610d64565b60405180910390fd5b610abb81610b45565b50565b610ac6610c06565b73ffffffffffffffffffffffffffffffffffffffff16610ae46108c4565b73ffffffffffffffffffffffffffffffffffffffff1614610b4357610b07610c06565b6040517f118cdaa7000000000000000000000000000000000000000000000000000000008152600401610b3a9190610d64565b60405180910390fd5b565b5f805f9054906101000a900473ffffffffffffffffffffffffffffffffffffffff169050815f806101000a81548173ffffffffffffffffffffffffffffffffffffffff021916908373ffffffffffffffffffffffffffffffffffffffff1602179055508173ffffffffffffffffffffffffffffffffffffffff168173ffffffffffffffffffffffffffffffffffffffff167f8be0079c531659141344cd1fd0a4f28419497f9722a3daafe3b4186f6b6457e060405160405180910390a35050565b5f33905090565b5f80fd5b5f819050919050565b610c2381610c11565b8114610c2d575f80fd5b50565b5f81359050610c3e81610c1a565b92915050565b5f60208284031215610c5957610c58610c0d565b5b5f610c6684828501610c30565b91505092915050565b5f73ffffffffffffffffffffffffffffffffffffffff82169050919050565b5f610c9882610c6f565b9050919050565b610ca881610c8e565b8114610cb2575f80fd5b50565b5f81359050610cc381610c9f565b92915050565b5f805f8060808587031215610ce157610ce0610c0d565b5b5f610cee87828801610cb5565b9450506020610cff87828801610cb5565b9350506040610d1087828801610cb5565b9250506060610d2187828801610c30565b91505092959194509250565b610d3681610c11565b82525050565b5f602082019050610d4f5f830184610d2d565b92915050565b610d5e81610c8e565b82525050565b5f602082019050610d775f830184610d55565b92915050565b7f4e487b71000000000000000000000000000000000000000000000000000000005f52602160045260245ffd5b60048110610dbb57610dba610d7d565b5b50565b5f819050610dcb82610daa565b919050565b5f610dda82610dbe565b9050919050565b610dea81610dd0565b82525050565b5f60a082019050610e035f830188610d55565b610e106020830187610d55565b610e1d6040830186610d55565b610e2a6060830185610d2d565b610e376080830184610de1565b9695505050505050565b5f60208284031215610e5657610e55610c0d565b5b5f610e6384828501610cb5565b91505092915050565b5f82825260208201905092915050565b7f496e76616c6964206f72646572207374617475730000000000000000000000005f82015250565b5f610eb0601483610e6c565b9150610ebb82610e7c565b602082019050919050565b5f6020820190508181035f830152610edd81610ea4565b9050919050565b5f604082019050610ef75f830185610d55565b610f046020830184610d2d565b9392505050565b5f8115159050919050565b610f1f81610f0b565b8114610f29575f80fd5b50565b5f81519050610f3a81610f16565b92915050565b5f60208284031215610f5557610f54610c0d565b5b5f610f6284828501610f2c565b91505092915050565b7f546f6b656e207472616e73666572206661696c656400000000000000000000005f82015250565b5f610f9f601583610e6c565b9150610faa82610f6b565b602082019050919050565b5f6020820190508181035f830152610fcc81610f93565b9050919050565b5f602082019050610fe65f830184610de1565b92915050565b7f546f6b656e2072657475726e206661696c6564000000000000000000000000005f82015250565b5f611020601383610e6c565b915061102b82610fec565b602082019050919050565b5f6020820190508181035f83015261104d81611014565b9050919050565b7f4e487b71000000000000000000000000000000000000000000000000000000005f52601160045260245ffd5b5f61108b82610c11565b91507fffffffffffffffffffffffffffffffffffffffffffffffffffffffffffffffff82036110bd576110bc611054565b5b600182019050919050565b5f6060820190506110db5f830186610d55565b6110e86020830185610d55565b6110f56040830184610d2d565b94935050505056fea2646970667358221220b0129ae6a67b8b9b8a5e452e4b02daf4985aabd3a0e46fdea347afae47ed2bfb64736f6c63430008150033",
  "immutableReferences": {},
  "source": "// SPDX-License-Identifier: MIT\npragma solidity ^0.8.19;\n\nimport \"@openzeppelin/contracts/token/ERC20/IERC20.sol\";\nimport \"@openzeppelin/contracts/access/Ownable.sol\";\n\n/// @title CengliP2PEscrow - Peer to peer escrow contract for Cengli\n/// @author YourName\n/// @notice This contract facilitates a P2P exchange between a buyer and a partner.\n/// @dev All function calls are currently implemented without side effects\ncontract CengliP2PEscrow is Ownable {\n    /// @notice Order status enumeration for better tracking and logic handling\n    enum OrderStatus {\n        NONE,\n        WFBP,\n        CANCEL,\n        COMPLETE\n    }\n\n    /// @notice Struct to hold the order data\n    struct Order {\n        address buyer;\n        address partner;\n        address token;\n        uint256 amount;\n        OrderStatus status;\n    }\n\n    // constructor\n    constructor(address initialOwner) Ownable(initialOwner) {}\n\n    /// @notice Counter to generate unique order IDs\n    uint256 public orderIdCounter = 1;\n\n    /// @notice Mapping to hold the orders\n    mapping(uint256 => Order) public orders;\n\n    /// @notice Event emitted whenever an order is updated\n    event OrderUpdated(uint256 indexed orderId, OrderStatus newStatus);\n\n    /// @notice Accepts a new order or updates an existing one\n    /// @dev Only callable by the contract owner\n    /// @return uint256 The newly generated Order ID\n    function acceptOrder(\n        address buyer,\n        address partner,\n        address token,\n        uint256 amount\n    ) external onlyOwner returns (uint256) {\n        uint256 newOrderId = orderIdCounter++;\n\n        IERC20 erc20Token = IERC20(token);\n        require(\n            erc20Token.transferFrom(partner, address(this), amount),\n            \"Token transfer failed\"\n        );\n\n        orders[newOrderId] = Order(\n            buyer,\n            partner,\n            token,\n            amount,\n            OrderStatus.WFBP\n        );\n        emit OrderUpdated(newOrderId, OrderStatus.WFBP);\n\n        return newOrderId;\n    }\n\n    /// @notice Cancels an existing order\n    /// @dev Only callable by the contract owner\n    /// @param orderId Unique identifier for the order\n    function cancelOrder(uint256 orderId) external onlyOwner {\n        require(\n            orders[orderId].status == OrderStatus.WFBP,\n            \"Invalid order status\"\n        );\n\n        Order storage order = orders[orderId];\n        IERC20 erc20Token = IERC20(order.token);\n        require(\n            erc20Token.transfer(order.partner, order.amount),\n            \"Token return failed\"\n        );\n\n        order.status = OrderStatus.CANCEL;\n        emit OrderUpdated(orderId, OrderStatus.CANCEL);\n    }\n\n    /// @notice Releases the escrowed funds to the buyer\n    /// @dev Only callable by the contract owner\n    /// @param orderId Unique identifier for the order\n    function releaseFunds(uint256 orderId) external onlyOwner {\n        require(\n            orders[orderId].status == OrderStatus.WFBP,\n            \"Invalid order status\"\n        );\n\n        Order storage order = orders[orderId];\n        IERC20 erc20Token = IERC20(order.token);\n        require(\n            erc20Token.transfer(order.buyer, order.amount),\n            \"Token transfer failed\"\n        );\n\n        order.status = OrderStatus.COMPLETE;\n        emit OrderUpdated(orderId, OrderStatus.COMPLETE);\n    }\n\n    /// @notice Fetches the details of an order\n    /// @param orderId The ID of the order\n    /// @return buyer The buyer's address\n    /// @return partner The partner's address\n    /// @return token The ERC20 token address used for the payment\n    /// @return amount The amount escrowed\n    /// @return status The status of the order\n    function getOrder(\n        uint256 orderId\n    )\n        external\n        view\n        returns (\n            address buyer,\n            address partner,\n            address token,\n            uint256 amount,\n            OrderStatus status\n        )\n    {\n        Order storage order = orders[orderId];\n        return (\n            order.buyer,\n            order.partner,\n            order.token,\n            order.amount,\n            order.status\n        );\n    }\n}\n",
  "sourcePath": "/Users/kelvinadithya/Desktop/ETHOnline-2023/Cengli/Cengli/contracts/p2p/contracts/CengliP2PEscrow.sol",
  "compiler": {
    "name": "solc",
    "version": "0.8.21+commit.d9974bed.Emscripten.clang"
  },
  "schemaVersion": "3.4.16",
  "updatedAt": "2023-10-15T20:59:15.967Z",
  "networkType": "ethereum",
  "devdoc": {
    "author": "YourName",
    "details": "All function calls are currently implemented without side effects",
    "errors": {
      "OwnableInvalidOwner(address)": [
        {
          "details": "The owner is not a valid owner account. (eg. `address(0)`)"
        }
      ],
      "OwnableUnauthorizedAccount(address)": [
        {
          "details": "The caller account is not authorized to perform an operation."
        }
      ]
    },
    "kind": "dev",
    "methods": {
      "acceptOrder(address,address,address,uint256)": {
        "details": "Only callable by the contract owner",
        "returns": {
          "_0": "uint256 The newly generated Order ID"
        }
      },
      "cancelOrder(uint256)": {
        "details": "Only callable by the contract owner",
        "params": {
          "orderId": "Unique identifier for the order"
        }
      },
      "getOrder(uint256)": {
        "params": {
          "orderId": "The ID of the order"
        },
        "returns": {
          "amount": "The amount escrowed",
          "buyer": "The buyer's address",
          "partner": "The partner's address",
          "status": "The status of the order",
          "token": "The ERC20 token address used for the payment"
        }
      },
      "owner()": {
        "details": "Returns the address of the current owner."
      },
      "releaseFunds(uint256)": {
        "details": "Only callable by the contract owner",
        "params": {
          "orderId": "Unique identifier for the order"
        }
      },
      "renounceOwnership()": {
        "details": "Leaves the contract without owner. It will not be possible to call `onlyOwner` functions. Can only be called by the current owner. NOTE: Renouncing ownership will leave the contract without an owner, thereby disabling any functionality that is only available to the owner."
      },
      "transferOwnership(address)": {
        "details": "Transfers ownership of the contract to a new account (`newOwner`). Can only be called by the current owner."
      }
    },
    "title": "CengliP2PEscrow - Peer to peer escrow contract for Cengli",
    "version": 1
  },
  "userdoc": {
    "events": {
      "OrderUpdated(uint256,uint8)": {
        "notice": "Event emitted whenever an order is updated"
      }
    },
    "kind": "user",
    "methods": {
      "acceptOrder(address,address,address,uint256)": {
        "notice": "Accepts a new order or updates an existing one"
      },
      "cancelOrder(uint256)": {
        "notice": "Cancels an existing order"
      },
      "getOrder(uint256)": {
        "notice": "Fetches the details of an order"
      },
      "orderIdCounter()": {
        "notice": "Counter to generate unique order IDs"
      },
      "orders(uint256)": {
        "notice": "Mapping to hold the orders"
      },
      "releaseFunds(uint256)": {
        "notice": "Releases the escrowed funds to the buyer"
      }
    },
    "notice": "This contract facilitates a P2P exchange between a buyer and a partner.",
    "version": 1
  }
}