{
  "abi": [
    {
      "inputs": [
        {
          "internalType": "address",
          "name": "_wormholeRelayer",
          "type": "address"
        },
        {
          "internalType": "address",
          "name": "_tokenBridge",
          "type": "address"
        },
        {
          "internalType": "address",
          "name": "_wormhole",
          "type": "address"
        }
      ],
      "stateMutability": "nonpayable",
      "type": "constructor"
    },
    {
      "inputs": [
        {
          "internalType": "bytes32",
          "name": "",
          "type": "bytes32"
        }
      ],
      "name": "NotAnEvmAddress",
      "type": "error"
    },
    {
      "inputs": [
        {
          "internalType": "uint16",
          "name": "targetChain",
          "type": "uint16"
        }
      ],
      "name": "quoteCrossChainDeposit",
      "outputs": [
        {
          "internalType": "uint256",
          "name": "cost",
          "type": "uint256"
        }
      ],
      "stateMutability": "view",
      "type": "function"
    },
    {
      "inputs": [
        {
          "internalType": "bytes",
          "name": "payload",
          "type": "bytes"
        },
        {
          "internalType": "bytes[]",
          "name": "additionalVaas",
          "type": "bytes[]"
        },
        {
          "internalType": "bytes32",
          "name": "sourceAddress",
          "type": "bytes32"
        },
        {
          "internalType": "uint16",
          "name": "sourceChain",
          "type": "uint16"
        },
        {
          "internalType": "bytes32",
          "name": "deliveryHash",
          "type": "bytes32"
        }
      ],
      "name": "receiveWormholeMessages",
      "outputs": [],
      "stateMutability": "payable",
      "type": "function"
    },
    {
      "inputs": [
        {
          "internalType": "uint16",
          "name": "targetChain",
          "type": "uint16"
        },
        {
          "internalType": "address",
          "name": "targetHelloToken",
          "type": "address"
        },
        {
          "internalType": "address",
          "name": "recipient",
          "type": "address"
        },
        {
          "internalType": "uint256",
          "name": "amount",
          "type": "uint256"
        },
        {
          "internalType": "address",
          "name": "token",
          "type": "address"
        }
      ],
      "name": "sendCrossChainDeposit",
      "outputs": [],
      "stateMutability": "payable",
      "type": "function"
    },
    {
      "inputs": [
        {
          "internalType": "uint16",
          "name": "targetChain",
          "type": "uint16"
        },
        {
          "internalType": "address",
          "name": "targetHelloToken",
          "type": "address"
        },
        {
          "internalType": "address",
          "name": "recipient",
          "type": "address"
        },
        {
          "internalType": "uint256",
          "name": "amount",
          "type": "uint256"
        }
      ],
      "name": "sendNativeCrossChainDeposit",
      "outputs": [],
      "stateMutability": "payable",
      "type": "function"
    },
    {
      "inputs": [
        {
          "internalType": "uint16",
          "name": "sourceChain",
          "type": "uint16"
        },
        {
          "internalType": "bytes32",
          "name": "sourceAddress",
          "type": "bytes32"
        }
      ],
      "name": "setRegisteredSender",
      "outputs": [],
      "stateMutability": "nonpayable",
      "type": "function"
    },
    {
      "inputs": [],
      "name": "tokenBridge",
      "outputs": [
        {
          "internalType": "contract ITokenBridge",
          "name": "",
          "type": "address"
        }
      ],
      "stateMutability": "view",
      "type": "function"
    },
    {
      "inputs": [],
      "name": "wormhole",
      "outputs": [
        {
          "internalType": "contract IWormhole",
          "name": "",
          "type": "address"
        }
      ],
      "stateMutability": "view",
      "type": "function"
    },
    {
      "inputs": [],
      "name": "wormholeRelayer",
      "outputs": [
        {
          "internalType": "contract IWormholeRelayer",
          "name": "",
          "type": "address"
        }
      ],
      "stateMutability": "view",
      "type": "function"
    }
  ],
  "bytecode": {
    "object": "0x60e06040523480156200001157600080fd5b506040516200205e3803806200205e833981016040819052620000349162000080565b6001600160a01b03928316608052821660a052600180546001600160a01b031916331790551660c052620000ca565b80516001600160a01b03811681146200007b57600080fd5b919050565b6000806000606084860312156200009657600080fd5b620000a18462000063565b9250620000b16020850162000063565b9150620000c16040850162000063565b90509250925092565b60805160a05160c051611ee7620001776000396000818161014c0152818161044b0152818161052d0152818161069f015281816109f101528181610c380152818161116f015281816111f001526113b501526000818160da0152818161026901528181610381015281816105b701528181610b8a0152818161121f0152611322015260008181610180015281816101f801528181610d6801528181610fb801526110270152611ee76000f3fe60806040526004361061007b5760003560e01c8063c530cbbe1161004e578063c530cbbe14610127578063c6328a461461013a578063da25b7251461016e578063dd12d68b146101a257600080fd5b80632b524c9714610080578063529dca32146100b357806384acd1bb146100c85780638d3ea48914610114575b600080fd5b34801561008c57600080fd5b506100a061009b366004611416565b6101c2565b6040519081526020015b60405180910390f35b6100c66100c1366004611587565b6102fa565b005b3480156100d457600080fd5b506100fc7f000000000000000000000000000000000000000000000000000000000000000081565b6040516001600160a01b0390911681526020016100aa565b6100c6610122366004611691565b61082b565b6100c66101353660046116f9565b610962565b34801561014657600080fd5b506100fc7f000000000000000000000000000000000000000000000000000000000000000081565b34801561017a57600080fd5b506100fc7f000000000000000000000000000000000000000000000000000000000000000081565b3480156101ae57600080fd5b506100c66101bd36600461174a565b610b09565b60405163c23ee3c360e01b815261ffff821660048201526000602482018190526203d09060448301529081906001600160a01b037f0000000000000000000000000000000000000000000000000000000000000000169063c23ee3c3906064016040805180830381865afa15801561023e573d6000803e3d6000fd5b505050506040513d601f19601f820116820180604052508101906102629190611776565b50809150507f00000000000000000000000000000000000000000000000000000000000000006001600160a01b0316631a90a2196040518163ffffffff1660e01b8152600401602060405180830381865afa1580156102c5573d6000803e3d6000fd5b505050506040513d601f19601f820116820180604052508101906102e9919061179a565b6102f390826117c9565b9392505050565b600084516001600160401b0381111561031557610315611433565b60405190808252806020026020018201604052801561036e57816020015b6040805160a0810182526000808252602080830182905292820181905260608201819052608082015282526000199092019101816103335790505b50905060005b85518110156108155760007f00000000000000000000000000000000000000000000000000000000000000006001600160a01b031663a9e118938884815181106103c0576103c06117e1565b60200260200101516040518263ffffffff1660e01b81526004016103e49190611853565b600060405180830381865afa158015610401573d6000803e3d6000fd5b505050506040513d6000823e601f3d908101601f1916820160405261042991908101906119a6565b606081015160405163ad66a5f160e01b815261ffff90911660048201529091507f00000000000000000000000000000000000000000000000000000000000000006001600160a01b03169063ad66a5f190602401602060405180830381865afa15801561049a573d6000803e3d6000fd5b505050506040513d601f19601f820116820180604052508101906104be919061179a565b81608001511461050e5760405162461bcd60e51b81526020600482015260166024820152754e6f74206120546f6b656e204272696467652056414160501b60448201526064015b60405180910390fd5b60e081015160405163ea63738d60e01b81526000916001600160a01b037f0000000000000000000000000000000000000000000000000000000000000000169163ea63738d9161056091600401611853565b600060405180830381865afa15801561057d573d6000803e3d6000fd5b505050506040513d6000823e601f3d908101601f191682016040526105a59190810190611aca565b905030816080015114801561064657507f00000000000000000000000000000000000000000000000000000000000000006001600160a01b0316639a8a05926040518163ffffffff1660e01b8152600401602060405180830381865afa158015610613573d6000803e3d6000fd5b505050506040513d601f19601f820116820180604052508101906106379190611b92565b61ffff168160a0015161ffff16145b61069d5760405162461bcd60e51b815260206004820152602260248201527f546f6b656e20776173206e6f742073656e7420746f2074686973206164647265604482015261737360f01b6064820152608401610505565b7f00000000000000000000000000000000000000000000000000000000000000006001600160a01b031663c3f511c18985815181106106de576106de6117e1565b60200260200101516040518263ffffffff1660e01b81526004016107029190611853565b6000604051808303816000875af1158015610721573d6000803e3d6000fd5b505050506040513d6000823e601f3d908101601f191682016040526107499190810190611baf565b50600061075e82606001518360400151610b86565b9050600061076b82610cc2565b6020840151909150600860ff831611156107a25761078a600883611be3565b61079590600a611cea565b61079f9082611cf9565b90505b6040518060a0016040528085604001518152602001856060015161ffff168152602001846001600160a01b0316815260200182815260200185602001518152508787815181106107f4576107f46117e1565b602002602001018190525050505050508061080e90611d18565b9050610374565b506108238682868686610d5d565b505050505050565b6000610836866101c2565b90508034146108a55760405162461bcd60e51b815260206004820152603560248201527f6d73672e76616c7565206d7573742062652071756f746543726f7373436861696044820152746e4465706f73697428746172676574436861696e2960581b6064820152608401610505565b6040516323b872dd60e01b8152336004820152306024820152604481018490526001600160a01b038316906323b872dd906064016020604051808303816000875af11580156108f8573d6000803e3d6000fd5b505050506040513d601f19601f8201168201806040525081019061091c9190611d31565b50604080516001600160a01b038616602082015260009101604051602081830303815290604052905061095887878360006203d090888a610f13565b5050505050505050565b600061096d856101c2565b905061097982826117c9565b34146109ed5760405162461bcd60e51b815260206004820152603e60248201527f6d73672e76616c7565206d7573742062652071756f746543726f73734368616960448201527f6e4465706f73697428746172676574436861696e29202b20616d6f756e7400006064820152608401610505565b60007f00000000000000000000000000000000000000000000000000000000000000006001600160a01b031663ad5c46486040518163ffffffff1660e01b8152600401602060405180830381865afa158015610a4d573d6000803e3d6000fd5b505050506040513d601f19601f82011682018060405250810190610a719190611d53565b9050806001600160a01b031663d0e30db0846040518263ffffffff1660e01b81526004016000604051808303818588803b158015610aae57600080fd5b505af1158015610ac2573d6000803e3d6000fd5b5050604080516001600160a01b038916602082015260009450019150610ae59050565b604051602081830303815290604052905061095887878360006203d090878a610f13565b6001546001600160a01b03163314610b6f5760405162461bcd60e51b8152602060048201526024808201527f4e6f7420616c6c6f77656420746f207365742072656769737465726564207365604482015263373232b960e11b6064820152608401610505565b61ffff909116600090815260026020526040902055565b60007f00000000000000000000000000000000000000000000000000000000000000006001600160a01b0316639a8a05926040518163ffffffff1660e01b8152600401602060405180830381865afa158015610be6573d6000803e3d6000fd5b505050506040513d601f19601f82011682018060405250810190610c0a9190611b92565b61ffff168361ffff1614610cb057604051630ff8f14360e11b815261ffff84166004820152602481018390527f00000000000000000000000000000000000000000000000000000000000000006001600160a01b031690631ff1e28690604401602060405180830381865afa158015610c87573d6000803e3d6000fd5b505050506040513d601f19601f82011682018060405250810190610cab9190611d53565b610cb9565b610cb9826110cd565b90505b92915050565b60408051600481526024810182526020810180516001600160e01b031663313ce56760e01b179052905160009182916001600160a01b03851691610d0591611d70565b600060405180830381855afa9150503d8060008114610d40576040519150601f19603f3d011682016040523d82523d6000602084013e610d45565b606091505b50915050808060200190518101906102f39190611d8c565b336001600160a01b037f00000000000000000000000000000000000000000000000000000000000000001614610de05760405162461bcd60e51b815260206004820152602260248201527f4d73672e73656e646572206973206e6f7420576f726d686f6c652052656c617960448201526132b960f11b6064820152608401610505565b8351600114610e315760405162461bcd60e51b815260206004820152601a60248201527f4578706563746564203120746f6b656e207472616e73666572730000000000006044820152606401610505565b600085806020019051810190610e479190611d53565b905084600081518110610e5c57610e5c6117e1565b6020026020010151604001516001600160a01b031663a9059cbb8287600081518110610e8a57610e8a6117e1565b6020026020010151606001516040518363ffffffff1660e01b8152600401610ec79291906001600160a01b03929092168252602082015260400190565b6020604051808303816000875af1158015610ee6573d6000803e3d6000fd5b505050506040513d601f19601f82011682018060405250810190610f0a9190611d31565b50505050505050565b604080516001808252818301909252600091829190816020015b6040805160608101825260008082526020808301829052928201528252600019909201910181610f2d579050509050610f6884848b8b6110f9565b81600081518110610f7b57610f7b6117e1565b602090810291909101015260405163c23ee3c360e01b815261ffff8a16600482015260248101879052604481018690526000906001600160a01b037f0000000000000000000000000000000000000000000000000000000000000000169063c23ee3c3906064016040805180830381865afa158015610ffe573d6000803e3d6000fd5b505050506040513d601f19601f820116820180604052508101906110229190611776565b5090507f00000000000000000000000000000000000000000000000000000000000000006001600160a01b031663329a2be7828c8c8c8c8c896040518863ffffffff1660e01b815260040161107c96959493929190611da7565b60206040518083038185885af115801561109a573d6000803e3d6000fd5b50505050506040513d601f19601f820116820180604052508101906110bf9190611e47565b9a9950505050505050505050565b600060a082901c156110f55760405163033b960d60e41b815260048101839052602401610505565b5090565b6040805160608101825260008082526020820181905291810191909152611132858585856040518060200160405280600081525061113b565b95945050505050565b604080516060810182526000808252602082018190529181019190915260405163095ea7b360e01b81526001600160a01b037f0000000000000000000000000000000000000000000000000000000000000000811660048301526024820187905287169063095ea7b3906044016020604051808303816000875af11580156111c7573d6000803e3d6000fd5b505050506040513d601f19601f820116820180604052508101906111eb9190611d31565b5060007f00000000000000000000000000000000000000000000000000000000000000006001600160a01b031663c5a5ebda7f00000000000000000000000000000000000000000000000000000000000000006001600160a01b0316631a90a2196040518163ffffffff1660e01b8152600401602060405180830381865afa15801561127b573d6000803e3d6000fd5b505050506040513d601f19601f8201168201806040525081019061129f919061179a565b8989896001600160a01b038a1660008a6040518863ffffffff1660e01b81526004016112d096959493929190611e62565b60206040518083038185885af11580156112ee573d6000803e3d6000fd5b50505050506040513d601f19601f820116820180604052508101906113139190611e47565b905060405180606001604052807f00000000000000000000000000000000000000000000000000000000000000006001600160a01b0316639a8a05926040518163ffffffff1660e01b8152600401602060405180830381865afa15801561137e573d6000803e3d6000fd5b505050506040513d601f19601f820116820180604052508101906113a29190611b92565b61ffff1681526020016001600160a01b037f0000000000000000000000000000000000000000000000000000000000000000168152602001826001600160401b031681525091505095945050505050565b61ffff8116811461140357600080fd5b50565b8035611411816113f3565b919050565b60006020828403121561142857600080fd5b81356102f3816113f3565b634e487b7160e01b600052604160045260246000fd5b604051608081016001600160401b038111828210171561146b5761146b611433565b60405290565b60405161016081016001600160401b038111828210171561146b5761146b611433565b60405161010081016001600160401b038111828210171561146b5761146b611433565b604051601f8201601f191681016001600160401b03811182821017156114df576114df611433565b604052919050565b60006001600160401b0382111561150057611500611433565b50601f01601f191660200190565b600082601f83011261151f57600080fd5b813561153261152d826114e7565b6114b7565b81815284602083860101111561154757600080fd5b816020850160208301376000918101602001919091529392505050565b60006001600160401b0382111561157d5761157d611433565b5060051b60200190565b600080600080600060a0868803121561159f57600080fd5b85356001600160401b03808211156115b657600080fd5b6115c289838a0161150e565b96506020915081880135818111156115d957600080fd5b8801601f81018a136115ea57600080fd5b80356115f861152d82611564565b81815260059190911b8201840190848101908c83111561161757600080fd5b8584015b8381101561164f578035868111156116335760008081fd5b6116418f898389010161150e565b84525091860191860161161b565b5098505050506040880135945061166b91505060608701611406565b949793965091946080013592915050565b6001600160a01b038116811461140357600080fd5b600080600080600060a086880312156116a957600080fd5b85356116b4816113f3565b945060208601356116c48161167c565b935060408601356116d48161167c565b92506060860135915060808601356116eb8161167c565b809150509295509295909350565b6000806000806080858703121561170f57600080fd5b843561171a816113f3565b9350602085013561172a8161167c565b9250604085013561173a8161167c565b9396929550929360600135925050565b6000806040838503121561175d57600080fd5b8235611768816113f3565b946020939093013593505050565b6000806040838503121561178957600080fd5b505080516020909101519092909150565b6000602082840312156117ac57600080fd5b5051919050565b634e487b7160e01b600052601160045260246000fd5b600082198211156117dc576117dc6117b3565b500190565b634e487b7160e01b600052603260045260246000fd5b60005b838110156118125781810151838201526020016117fa565b83811115611821576000848401525b50505050565b6000815180845261183f8160208601602086016117f7565b601f01601f19169290920160200192915050565b602081526000610cb96020830184611827565b805160ff8116811461141157600080fd5b805163ffffffff8116811461141157600080fd5b8051611411816113f3565b80516001600160401b038116811461141157600080fd5b600082601f8301126118be57600080fd5b81516118cc61152d826114e7565b8181528460208386010111156118e157600080fd5b6118f28260208301602087016117f7565b949350505050565b600082601f83011261190b57600080fd5b8151602061191b61152d83611564565b82815260079290921b8401810191818101908684111561193a57600080fd5b8286015b8481101561199b57608081890312156119575760008081fd5b61195f611449565b8151815284820151858201526040611978818401611866565b908201526060611989838201611866565b9082015283529183019160800161193e565b509695505050505050565b6000602082840312156119b857600080fd5b81516001600160401b03808211156119cf57600080fd5b9083019061016082860312156119e457600080fd5b6119ec611471565b6119f583611866565b8152611a0360208401611877565b6020820152611a1460408401611877565b6040820152611a256060840161188b565b606082015260808301516080820152611a4060a08401611896565b60a0820152611a5160c08401611866565b60c082015260e083015182811115611a6857600080fd5b611a74878286016118ad565b60e083015250610100611a88818501611877565b908201526101208381015183811115611aa057600080fd5b611aac888287016118fa565b91830191909152506101409283015192810192909252509392505050565b600060208284031215611adc57600080fd5b81516001600160401b0380821115611af357600080fd5b908301906101008286031215611b0857600080fd5b611b10611494565b611b1983611866565b81526020830151602082015260408301516040820152611b3b6060840161188b565b606082015260808301516080820152611b5660a0840161188b565b60a082015260c083015160c082015260e083015182811115611b7757600080fd5b611b83878286016118ad565b60e08301525095945050505050565b600060208284031215611ba457600080fd5b81516102f3816113f3565b600060208284031215611bc157600080fd5b81516001600160401b03811115611bd757600080fd5b6118f2848285016118ad565b600060ff821660ff841680821015611bfd57611bfd6117b3565b90039392505050565b600181815b80851115611c41578160001904821115611c2757611c276117b3565b80851615611c3457918102915b93841c9390800290611c0b565b509250929050565b600082611c5857506001610cbc565b81611c6557506000610cbc565b8160018114611c7b5760028114611c8557611ca1565b6001915050610cbc565b60ff841115611c9657611c966117b3565b50506001821b610cbc565b5060208310610133831016604e8410600b8410161715611cc4575081810a610cbc565b611cce8383611c06565b8060001904821115611ce257611ce26117b3565b029392505050565b6000610cb960ff841683611c49565b6000816000190483118215151615611d1357611d136117b3565b500290565b600060018201611d2a57611d2a6117b3565b5060010190565b600060208284031215611d4357600080fd5b815180151581146102f357600080fd5b600060208284031215611d6557600080fd5b81516102f38161167c565b60008251611d828184602087016117f7565b9190910192915050565b600060208284031215611d9e57600080fd5b610cb982611866565b600061ffff8089168352602060018060a01b03891681850152604060c081860152611dd560c086018a611827565b60608681018a90526080870189905286820360a088015287518083528489019285019060005b81811015611e3357845180518916845287810151888501528601516001600160401b0316868401529386019391830191600101611dfb565b50909e9d5050505050505050505050505050565b600060208284031215611e5957600080fd5b610cb982611896565b60018060a01b038716815285602082015261ffff8516604082015283606082015263ffffffff8316608082015260c060a08201526000611ea560c0830184611827565b9897505050505050505056fea264697066735822122060ebb73342b7622e5978e8e62d5f10a672456e93dad320cbd5edb630f4651c5e64736f6c634300080d0033",
    "linkReferences": {}
  },
  "methodIdentifiers": {
    "quoteCrossChainDeposit(uint16)": "2b524c97",
    "receiveWormholeMessages(bytes,bytes[],bytes32,uint16,bytes32)": "529dca32",
    "sendCrossChainDeposit(uint16,address,address,uint256,address)": "8d3ea489",
    "sendNativeCrossChainDeposit(uint16,address,address,uint256)": "c530cbbe",
    "setRegisteredSender(uint16,bytes32)": "dd12d68b",
    "tokenBridge()": "c6328a46",
    "wormhole()": "84acd1bb",
    "wormholeRelayer()": "da25b725"
  },
  "id": 35
}