{
  "_format": "hh-sol-artifact-1",
  "contractName": "USDCTransferCengli",
  "sourceName": "contracts/USDCTransferCengli.sol",
  "abi": [
    {
      "inputs": [
        {
          "internalType": "address",
          "name": "_USDCAddress",
          "type": "address"
        },
        {
          "internalType": "address",
          "name": "_CCTPAdapterAddress",
          "type": "address"
        },
        {
          "internalType": "address",
          "name": "_IGPAddress",
          "type": "address"
        }
      ],
      "stateMutability": "nonpayable",
      "type": "constructor"
    },
    {
      "inputs": [],
      "name": "ReentrancyGuardReentrantCall",
      "type": "error"
    },
    {
      "anonymous": false,
      "inputs": [
        {
          "indexed": false,
          "internalType": "bytes32",
          "name": "messageId",
          "type": "bytes32"
        },
        {
          "indexed": true,
          "internalType": "uint32",
          "name": "destination",
          "type": "uint32"
        },
        {
          "indexed": true,
          "internalType": "bytes32",
          "name": "recipient",
          "type": "bytes32"
        },
        {
          "indexed": false,
          "internalType": "uint256",
          "name": "amount",
          "type": "uint256"
        }
      ],
      "name": "SentTransferRemote",
      "type": "event"
    },
    {
      "inputs": [],
      "name": "CCTPAdapterAddress",
      "outputs": [
        {
          "internalType": "address",
          "name": "",
          "type": "address"
        }
      ],
      "stateMutability": "view",
      "type": "function"
    },
    {
      "inputs": [],
      "name": "IGPAddress",
      "outputs": [
        {
          "internalType": "address",
          "name": "",
          "type": "address"
        }
      ],
      "stateMutability": "view",
      "type": "function"
    },
    {
      "inputs": [],
      "name": "USDCAddress",
      "outputs": [
        {
          "internalType": "address",
          "name": "",
          "type": "address"
        }
      ],
      "stateMutability": "view",
      "type": "function"
    },
    {
      "inputs": [
        {
          "internalType": "address",
          "name": "_userAddress",
          "type": "address"
        },
        {
          "internalType": "address",
          "name": "_tokenAddress",
          "type": "address"
        }
      ],
      "name": "checkBalance",
      "outputs": [
        {
          "internalType": "uint256",
          "name": "",
          "type": "uint256"
        }
      ],
      "stateMutability": "view",
      "type": "function"
    },
    {
      "inputs": [],
      "name": "getGasAmount",
      "outputs": [
        {
          "internalType": "uint256",
          "name": "",
          "type": "uint256"
        }
      ],
      "stateMutability": "view",
      "type": "function"
    },
    {
      "inputs": [],
      "name": "owner",
      "outputs": [
        {
          "internalType": "address",
          "name": "",
          "type": "address"
        }
      ],
      "stateMutability": "view",
      "type": "function"
    },
    {
      "inputs": [
        {
          "internalType": "address",
          "name": "_recipientAddress",
          "type": "address"
        },
        {
          "internalType": "uint256",
          "name": "_amount",
          "type": "uint256"
        }
      ],
      "name": "transferSameChainUSDC",
      "outputs": [],
      "stateMutability": "nonpayable",
      "type": "function"
    },
    {
      "inputs": [
        {
          "internalType": "uint32",
          "name": "_destinationDomain",
          "type": "uint32"
        },
        {
          "internalType": "bytes32",
          "name": "_recipientAddress",
          "type": "bytes32"
        },
        {
          "internalType": "uint256",
          "name": "_amount",
          "type": "uint256"
        }
      ],
      "name": "transferXchainUSDC",
      "outputs": [
        {
          "internalType": "bytes32",
          "name": "",
          "type": "bytes32"
        }
      ],
      "stateMutability": "nonpayable",
      "type": "function"
    },
    {
      "inputs": [],
      "name": "withdrawETH",
      "outputs": [],
      "stateMutability": "nonpayable",
      "type": "function"
    },
    {
      "inputs": [],
      "name": "withdrawUSDC",
      "outputs": [],
      "stateMutability": "nonpayable",
      "type": "function"
    },
    {
      "stateMutability": "payable",
      "type": "receive"
    }
  ],
  "bytecode": "0x608060405234801562000010575f80fd5b50604051620018f6380380620018f683398181016040528101906200003691906200033d565b60015f819055508260015f6101000a81548173ffffffffffffffffffffffffffffffffffffffff021916908373ffffffffffffffffffffffffffffffffffffffff1602179055508160025f6101000a81548173ffffffffffffffffffffffffffffffffffffffff021916908373ffffffffffffffffffffffffffffffffffffffff1602179055508060035f6101000a81548173ffffffffffffffffffffffffffffffffffffffff021916908373ffffffffffffffffffffffffffffffffffffffff16021790555060015f9054906101000a900473ffffffffffffffffffffffffffffffffffffffff1673ffffffffffffffffffffffffffffffffffffffff1663095ea7b360025f9054906101000a900473ffffffffffffffffffffffffffffffffffffffff16655af3107a40006040518363ffffffff1660e01b815260040162000182929190620003fa565b6020604051808303815f875af11580156200019f573d5f803e3d5ffd5b505050506040513d601f19601f82011682018060405250810190620001c591906200045f565b503360045f6101000a81548173ffffffffffffffffffffffffffffffffffffffff021916908373ffffffffffffffffffffffffffffffffffffffff16021790555060015f9054906101000a900473ffffffffffffffffffffffffffffffffffffffff1673ffffffffffffffffffffffffffffffffffffffff1663095ea7b360045f9054906101000a900473ffffffffffffffffffffffffffffffffffffffff16655af3107a40006040518363ffffffff1660e01b81526004016200028b929190620003fa565b6020604051808303815f875af1158015620002a8573d5f803e3d5ffd5b505050506040513d601f19601f82011682018060405250810190620002ce91906200045f565b505050506200048f565b5f80fd5b5f73ffffffffffffffffffffffffffffffffffffffff82169050919050565b5f6200030782620002dc565b9050919050565b6200031981620002fb565b811462000324575f80fd5b50565b5f8151905062000337816200030e565b92915050565b5f805f60608486031215620003575762000356620002d8565b5b5f620003668682870162000327565b9350506020620003798682870162000327565b92505060406200038c8682870162000327565b9150509250925092565b620003a181620002fb565b82525050565b5f819050919050565b5f819050919050565b5f819050919050565b5f620003e2620003dc620003d684620003a7565b620003b9565b620003b0565b9050919050565b620003f481620003c2565b82525050565b5f6040820190506200040f5f83018562000396565b6200041e6020830184620003e9565b9392505050565b5f8115159050919050565b6200043b8162000425565b811462000446575f80fd5b50565b5f81519050620004598162000430565b92915050565b5f60208284031215620004775762000476620002d8565b5b5f620004868482850162000449565b91505092915050565b611459806200049d5f395ff3fe608060405260043610610094575f3560e01c8063c28769d211610058578063c28769d214610195578063d8fc063d146101bd578063e086e5ec146101d3578063e9303209146101e9578063ffc5fbbf146102135761009b565b80633b8597361461009f57806361a6bfd1146100db57806377b76ec3146101055780638d8ea2c5146101415780638da5cb5b1461016b5761009b565b3661009b57005b5f80fd5b3480156100aa575f80fd5b506100c560048036038101906100c09190610e2f565b61023d565b6040516100d29190610e8e565b60405180910390f35b3480156100e6575f80fd5b506100ef61062b565b6040516100fc9190610ee6565b60405180910390f35b348015610110575f80fd5b5061012b60048036038101906101269190610f29565b610650565b6040516101389190610f76565b60405180910390f35b34801561014c575f80fd5b506101556106d6565b6040516101629190610f76565b60405180910390f35b348015610176575f80fd5b5061017f61076a565b60405161018c9190610ee6565b60405180910390f35b3480156101a0575f80fd5b506101bb60048036038101906101b69190610f8f565b61078f565b005b3480156101c8575f80fd5b506101d161091d565b005b3480156101de575f80fd5b506101e7610bde565b005b3480156101f4575f80fd5b506101fd610cf5565b60405161020a9190610ee6565b60405180910390f35b34801561021e575f80fd5b50610227610d1a565b6040516102349190610ee6565b60405180910390f35b5f610246610d3f565b8160015f9054906101000a900473ffffffffffffffffffffffffffffffffffffffff1673ffffffffffffffffffffffffffffffffffffffff166370a08231336040518263ffffffff1660e01b81526004016102a19190610ee6565b602060405180830381865afa1580156102bc573d5f803e3d5ffd5b505050506040513d601f19601f820116820180604052508101906102e09190610fe1565b1015610321576040517f08c379a00000000000000000000000000000000000000000000000000000000081526004016103189061108c565b60405180910390fd5b60015f9054906101000a900473ffffffffffffffffffffffffffffffffffffffff1673ffffffffffffffffffffffffffffffffffffffff166323b872dd3330856040518463ffffffff1660e01b815260040161037f939291906110aa565b6020604051808303815f875af115801561039b573d5f803e3d5ffd5b505050506040513d601f19601f820116820180604052508101906103bf9190611114565b505f60025f9054906101000a900473ffffffffffffffffffffffffffffffffffffffff1673ffffffffffffffffffffffffffffffffffffffff166367b50af96040518163ffffffff1660e01b8152600401602060405180830381865afa15801561042b573d5f803e3d5ffd5b505050506040513d601f19601f8201168201806040525081019061044f9190610fe1565b90505f60035f9054906101000a900473ffffffffffffffffffffffffffffffffffffffff1673ffffffffffffffffffffffffffffffffffffffff1663a692979387846040518363ffffffff1660e01b81526004016104ae92919061114e565b602060405180830381865afa1580156104c9573d5f803e3d5ffd5b505050506040513d601f19601f820116820180604052508101906104ed9190610fe1565b905080471015610532576040517f08c379a0000000000000000000000000000000000000000000000000000000008152600401610529906111e5565b60405180910390fd5b5f60025f9054906101000a900473ffffffffffffffffffffffffffffffffffffffff1673ffffffffffffffffffffffffffffffffffffffff166381b4e8b4838989896040518563ffffffff1660e01b815260040161059293929190611203565b60206040518083038185885af11580156105ae573d5f803e3d5ffd5b50505050506040513d601f19601f820116820180604052508101906105d3919061124c565b9050858763ffffffff167f3406065a52b000854dbbeef7657250820ef51eff5126a10b91ed56430362699f838860405161060e929190611277565b60405180910390a3809350505050610624610d83565b9392505050565b60025f9054906101000a900473ffffffffffffffffffffffffffffffffffffffff1681565b5f808273ffffffffffffffffffffffffffffffffffffffff166370a08231856040518263ffffffff1660e01b815260040161068b9190610ee6565b602060405180830381865afa1580156106a6573d5f803e3d5ffd5b505050506040513d601f19601f820116820180604052508101906106ca9190610fe1565b90508091505092915050565b5f60025f9054906101000a900473ffffffffffffffffffffffffffffffffffffffff1673ffffffffffffffffffffffffffffffffffffffff166367b50af96040518163ffffffff1660e01b8152600401602060405180830381865afa158015610741573d5f803e3d5ffd5b505050506040513d601f19601f820116820180604052508101906107659190610fe1565b905090565b60045f9054906101000a900473ffffffffffffffffffffffffffffffffffffffff1681565b610797610d3f565b8060015f9054906101000a900473ffffffffffffffffffffffffffffffffffffffff1673ffffffffffffffffffffffffffffffffffffffff166370a08231336040518263ffffffff1660e01b81526004016107f29190610ee6565b602060405180830381865afa15801561080d573d5f803e3d5ffd5b505050506040513d601f19601f820116820180604052508101906108319190610fe1565b1015610872576040517f08c379a00000000000000000000000000000000000000000000000000000000081526004016108699061108c565b60405180910390fd5b60015f9054906101000a900473ffffffffffffffffffffffffffffffffffffffff1673ffffffffffffffffffffffffffffffffffffffff166323b872dd3384846040518463ffffffff1660e01b81526004016108d0939291906110aa565b6020604051808303815f875af11580156108ec573d5f803e3d5ffd5b505050506040513d601f19601f820116820180604052508101906109109190611114565b50610919610d83565b5050565b60045f9054906101000a900473ffffffffffffffffffffffffffffffffffffffff1673ffffffffffffffffffffffffffffffffffffffff163373ffffffffffffffffffffffffffffffffffffffff16146109ac576040517f08c379a00000000000000000000000000000000000000000000000000000000081526004016109a39061130e565b60405180910390fd5b5f60015f9054906101000a900473ffffffffffffffffffffffffffffffffffffffff1673ffffffffffffffffffffffffffffffffffffffff166370a08231306040518263ffffffff1660e01b8152600401610a079190610ee6565b602060405180830381865afa158015610a22573d5f803e3d5ffd5b505050506040513d601f19601f82011682018060405250810190610a469190610fe1565b03610a86576040517f08c379a0000000000000000000000000000000000000000000000000000000008152600401610a7d90611376565b60405180910390fd5b60015f9054906101000a900473ffffffffffffffffffffffffffffffffffffffff1673ffffffffffffffffffffffffffffffffffffffff1663a9059cbb60045f9054906101000a900473ffffffffffffffffffffffffffffffffffffffff1660015f9054906101000a900473ffffffffffffffffffffffffffffffffffffffff1673ffffffffffffffffffffffffffffffffffffffff166370a08231306040518263ffffffff1660e01b8152600401610b3f9190610ee6565b602060405180830381865afa158015610b5a573d5f803e3d5ffd5b505050506040513d601f19601f82011682018060405250810190610b7e9190610fe1565b6040518363ffffffff1660e01b8152600401610b9b929190611394565b6020604051808303815f875af1158015610bb7573d5f803e3d5ffd5b505050506040513d601f19601f82011682018060405250810190610bdb9190611114565b50565b60045f9054906101000a900473ffffffffffffffffffffffffffffffffffffffff1673ffffffffffffffffffffffffffffffffffffffff163373ffffffffffffffffffffffffffffffffffffffff1614610c6d576040517f08c379a0000000000000000000000000000000000000000000000000000000008152600401610c649061130e565b60405180910390fd5b5f4703610caf576040517f08c379a0000000000000000000000000000000000000000000000000000000008152600401610ca690611405565b60405180910390fd5b3373ffffffffffffffffffffffffffffffffffffffff166108fc4790811502906040515f60405180830381858888f19350505050158015610cf2573d5f803e3d5ffd5b50565b60015f9054906101000a900473ffffffffffffffffffffffffffffffffffffffff1681565b60035f9054906101000a900473ffffffffffffffffffffffffffffffffffffffff1681565b60025f5403610d7a576040517f3ee5aeb500000000000000000000000000000000000000000000000000000000815260040160405180910390fd5b60025f81905550565b60015f81905550565b5f80fd5b5f63ffffffff82169050919050565b610da881610d90565b8114610db2575f80fd5b50565b5f81359050610dc381610d9f565b92915050565b5f819050919050565b610ddb81610dc9565b8114610de5575f80fd5b50565b5f81359050610df681610dd2565b92915050565b5f819050919050565b610e0e81610dfc565b8114610e18575f80fd5b50565b5f81359050610e2981610e05565b92915050565b5f805f60608486031215610e4657610e45610d8c565b5b5f610e5386828701610db5565b9350506020610e6486828701610de8565b9250506040610e7586828701610e1b565b9150509250925092565b610e8881610dc9565b82525050565b5f602082019050610ea15f830184610e7f565b92915050565b5f73ffffffffffffffffffffffffffffffffffffffff82169050919050565b5f610ed082610ea7565b9050919050565b610ee081610ec6565b82525050565b5f602082019050610ef95f830184610ed7565b92915050565b610f0881610ec6565b8114610f12575f80fd5b50565b5f81359050610f2381610eff565b92915050565b5f8060408385031215610f3f57610f3e610d8c565b5b5f610f4c85828601610f15565b9250506020610f5d85828601610f15565b9150509250929050565b610f7081610dfc565b82525050565b5f602082019050610f895f830184610f67565b92915050565b5f8060408385031215610fa557610fa4610d8c565b5b5f610fb285828601610f15565b9250506020610fc385828601610e1b565b9150509250929050565b5f81519050610fdb81610e05565b92915050565b5f60208284031215610ff657610ff5610d8c565b5b5f61100384828501610fcd565b91505092915050565b5f82825260208201905092915050565b7f496e73756666696369656e7420555344432062616c616e6365206f662073656e5f8201527f6465722e00000000000000000000000000000000000000000000000000000000602082015250565b5f61107660248361100c565b91506110818261101c565b604082019050919050565b5f6020820190508181035f8301526110a38161106a565b9050919050565b5f6060820190506110bd5f830186610ed7565b6110ca6020830185610ed7565b6110d76040830184610f67565b949350505050565b5f8115159050919050565b6110f3816110df565b81146110fd575f80fd5b50565b5f8151905061110e816110ea565b92915050565b5f6020828403121561112957611128610d8c565b5b5f61113684828501611100565b91505092915050565b61114881610d90565b82525050565b5f6040820190506111615f83018561113f565b61116e6020830184610f67565b9392505050565b7f496e73756666696369656e74206e617469766520746f6b656e20666f722067615f8201527f7320696e7369646520636f6e74726163742e0000000000000000000000000000602082015250565b5f6111cf60328361100c565b91506111da82611175565b604082019050919050565b5f6020820190508181035f8301526111fc816111c3565b9050919050565b5f6060820190506112165f83018661113f565b6112236020830185610e7f565b6112306040830184610f67565b949350505050565b5f8151905061124681610dd2565b92915050565b5f6020828403121561126157611260610d8c565b5b5f61126e84828501611238565b91505092915050565b5f60408201905061128a5f830185610e7f565b6112976020830184610f67565b9392505050565b7f4f6e6c7920746865206f776e65722063616e2063616c6c20746869732066756e5f8201527f6374696f6e000000000000000000000000000000000000000000000000000000602082015250565b5f6112f860258361100c565b91506113038261129e565b604082019050919050565b5f6020820190508181035f830152611325816112ec565b9050919050565b7f436f6e747261637420686173203020555344432e0000000000000000000000005f82015250565b5f61136060148361100c565b915061136b8261132c565b602082019050919050565b5f6020820190508181035f83015261138d81611354565b9050919050565b5f6040820190506113a75f830185610ed7565b6113b46020830184610f67565b9392505050565b7f436f6e7472616374206861732030204554482e000000000000000000000000005f82015250565b5f6113ef60138361100c565b91506113fa826113bb565b602082019050919050565b5f6020820190508181035f83015261141c816113e3565b905091905056fea2646970667358221220547185f676b69460e2095b8d279009dc5657616bd00791c4a484f072f18bf47a64736f6c63430008140033",
  "linkReferences": {},
  "deployedLinkReferences": {}
}