{
  "_format": "hh-sol-artifact-1",
  "contractName": "HypERC20Collateral",
  "sourceName": "contracts/HypERC20Collateral.sol",
  "abi": [
    {
      "inputs": [
        {
          "internalType": "address",
          "name": "erc20",
          "type": "address"
        }
      ],
      "stateMutability": "nonpayable",
      "type": "constructor"
    },
    {
      "anonymous": false,
      "inputs": [
        {
          "indexed": true,
          "internalType": "uint32",
          "name": "domain",
          "type": "uint32"
        },
        {
          "indexed": false,
          "internalType": "uint256",
          "name": "gas",
          "type": "uint256"
        }
      ],
      "name": "DestinationGasSet",
      "type": "event"
    },
    {
      "anonymous": false,
      "inputs": [
        {
          "indexed": false,
          "internalType": "uint8",
          "name": "version",
          "type": "uint8"
        }
      ],
      "name": "Initialized",
      "type": "event"
    },
    {
      "anonymous": false,
      "inputs": [
        {
          "indexed": true,
          "internalType": "address",
          "name": "interchainGasPaymaster",
          "type": "address"
        }
      ],
      "name": "InterchainGasPaymasterSet",
      "type": "event"
    },
    {
      "anonymous": false,
      "inputs": [
        {
          "indexed": true,
          "internalType": "address",
          "name": "module",
          "type": "address"
        }
      ],
      "name": "InterchainSecurityModuleSet",
      "type": "event"
    },
    {
      "anonymous": false,
      "inputs": [
        {
          "indexed": true,
          "internalType": "address",
          "name": "mailbox",
          "type": "address"
        }
      ],
      "name": "MailboxSet",
      "type": "event"
    },
    {
      "anonymous": false,
      "inputs": [
        {
          "indexed": true,
          "internalType": "address",
          "name": "previousOwner",
          "type": "address"
        },
        {
          "indexed": true,
          "internalType": "address",
          "name": "newOwner",
          "type": "address"
        }
      ],
      "name": "OwnershipTransferred",
      "type": "event"
    },
    {
      "anonymous": false,
      "inputs": [
        {
          "indexed": true,
          "internalType": "uint32",
          "name": "origin",
          "type": "uint32"
        },
        {
          "indexed": true,
          "internalType": "bytes32",
          "name": "recipient",
          "type": "bytes32"
        },
        {
          "indexed": false,
          "internalType": "uint256",
          "name": "amount",
          "type": "uint256"
        }
      ],
      "name": "ReceivedTransferRemote",
      "type": "event"
    },
    {
      "anonymous": false,
      "inputs": [
        {
          "indexed": true,
          "internalType": "uint32",
          "name": "domain",
          "type": "uint32"
        },
        {
          "indexed": false,
          "internalType": "bytes32",
          "name": "router",
          "type": "bytes32"
        }
      ],
      "name": "RemoteRouterEnrolled",
      "type": "event"
    },
    {
      "anonymous": false,
      "inputs": [
        {
          "indexed": true,
          "internalType": "uint32",
          "name": "destination",
          "type": "uint32"
        },
        {
          "indexed": true,
          "internalType": "bytes32",
          "name": "recipient",
          "type": "bytes32"
        },
        {
          "indexed": false,
          "internalType": "uint256",
          "name": "amount",
          "type": "uint256"
        }
      ],
      "name": "SentTransferRemote",
      "type": "event"
    },
    {
      "inputs": [
        {
          "internalType": "address",
          "name": "_account",
          "type": "address"
        }
      ],
      "name": "balanceOf",
      "outputs": [
        {
          "internalType": "uint256",
          "name": "",
          "type": "uint256"
        }
      ],
      "stateMutability": "view",
      "type": "function"
    },
    {
      "inputs": [
        {
          "internalType": "uint32",
          "name": "",
          "type": "uint32"
        }
      ],
      "name": "destinationGas",
      "outputs": [
        {
          "internalType": "uint256",
          "name": "",
          "type": "uint256"
        }
      ],
      "stateMutability": "view",
      "type": "function"
    },
    {
      "inputs": [],
      "name": "domains",
      "outputs": [
        {
          "internalType": "uint32[]",
          "name": "",
          "type": "uint32[]"
        }
      ],
      "stateMutability": "view",
      "type": "function"
    },
    {
      "inputs": [
        {
          "internalType": "uint32",
          "name": "_domain",
          "type": "uint32"
        },
        {
          "internalType": "bytes32",
          "name": "_router",
          "type": "bytes32"
        }
      ],
      "name": "enrollRemoteRouter",
      "outputs": [],
      "stateMutability": "nonpayable",
      "type": "function"
    },
    {
      "inputs": [
        {
          "internalType": "uint32[]",
          "name": "_domains",
          "type": "uint32[]"
        },
        {
          "internalType": "bytes32[]",
          "name": "_addresses",
          "type": "bytes32[]"
        }
      ],
      "name": "enrollRemoteRouters",
      "outputs": [],
      "stateMutability": "nonpayable",
      "type": "function"
    },
    {
      "inputs": [
        {
          "internalType": "uint32",
          "name": "_origin",
          "type": "uint32"
        },
        {
          "internalType": "bytes32",
          "name": "_sender",
          "type": "bytes32"
        },
        {
          "internalType": "bytes",
          "name": "_message",
          "type": "bytes"
        }
      ],
      "name": "handle",
      "outputs": [],
      "stateMutability": "nonpayable",
      "type": "function"
    },
    {
      "inputs": [
        {
          "internalType": "address",
          "name": "_mailbox",
          "type": "address"
        },
        {
          "internalType": "address",
          "name": "_interchainGasPaymaster",
          "type": "address"
        }
      ],
      "name": "initialize",
      "outputs": [],
      "stateMutability": "nonpayable",
      "type": "function"
    },
    {
      "inputs": [],
      "name": "interchainGasPaymaster",
      "outputs": [
        {
          "internalType": "contract IInterchainGasPaymaster",
          "name": "",
          "type": "address"
        }
      ],
      "stateMutability": "view",
      "type": "function"
    },
    {
      "inputs": [],
      "name": "interchainSecurityModule",
      "outputs": [
        {
          "internalType": "contract IInterchainSecurityModule",
          "name": "",
          "type": "address"
        }
      ],
      "stateMutability": "view",
      "type": "function"
    },
    {
      "inputs": [],
      "name": "mailbox",
      "outputs": [
        {
          "internalType": "contract IMailbox",
          "name": "",
          "type": "address"
        }
      ],
      "stateMutability": "view",
      "type": "function"
    },
    {
      "inputs": [],
      "name": "owner",
      "outputs": [
        {
          "internalType": "address",
          "name": "",
          "type": "address"
        }
      ],
      "stateMutability": "view",
      "type": "function"
    },
    {
      "inputs": [
        {
          "internalType": "uint32",
          "name": "_destinationDomain",
          "type": "uint32"
        }
      ],
      "name": "quoteGasPayment",
      "outputs": [
        {
          "internalType": "uint256",
          "name": "_gasPayment",
          "type": "uint256"
        }
      ],
      "stateMutability": "view",
      "type": "function"
    },
    {
      "inputs": [],
      "name": "renounceOwnership",
      "outputs": [],
      "stateMutability": "nonpayable",
      "type": "function"
    },
    {
      "inputs": [
        {
          "internalType": "uint32",
          "name": "_domain",
          "type": "uint32"
        }
      ],
      "name": "routers",
      "outputs": [
        {
          "internalType": "bytes32",
          "name": "",
          "type": "bytes32"
        }
      ],
      "stateMutability": "view",
      "type": "function"
    },
    {
      "inputs": [
        {
          "components": [
            {
              "internalType": "uint32",
              "name": "domain",
              "type": "uint32"
            },
            {
              "internalType": "uint256",
              "name": "gas",
              "type": "uint256"
            }
          ],
          "internalType": "struct GasRouter.GasRouterConfig[]",
          "name": "gasConfigs",
          "type": "tuple[]"
        }
      ],
      "name": "setDestinationGas",
      "outputs": [],
      "stateMutability": "nonpayable",
      "type": "function"
    },
    {
      "inputs": [
        {
          "internalType": "address",
          "name": "_interchainGasPaymaster",
          "type": "address"
        }
      ],
      "name": "setInterchainGasPaymaster",
      "outputs": [],
      "stateMutability": "nonpayable",
      "type": "function"
    },
    {
      "inputs": [
        {
          "internalType": "address",
          "name": "_module",
          "type": "address"
        }
      ],
      "name": "setInterchainSecurityModule",
      "outputs": [],
      "stateMutability": "nonpayable",
      "type": "function"
    },
    {
      "inputs": [
        {
          "internalType": "address",
          "name": "_mailbox",
          "type": "address"
        }
      ],
      "name": "setMailbox",
      "outputs": [],
      "stateMutability": "nonpayable",
      "type": "function"
    },
    {
      "inputs": [
        {
          "internalType": "address",
          "name": "newOwner",
          "type": "address"
        }
      ],
      "name": "transferOwnership",
      "outputs": [],
      "stateMutability": "nonpayable",
      "type": "function"
    },
    {
      "inputs": [
        {
          "internalType": "uint32",
          "name": "_destination",
          "type": "uint32"
        },
        {
          "internalType": "bytes32",
          "name": "_recipient",
          "type": "bytes32"
        },
        {
          "internalType": "uint256",
          "name": "_amountOrId",
          "type": "uint256"
        }
      ],
      "name": "transferRemote",
      "outputs": [
        {
          "internalType": "bytes32",
          "name": "messageId",
          "type": "bytes32"
        }
      ],
      "stateMutability": "payable",
      "type": "function"
    },
    {
      "inputs": [],
      "name": "wrappedToken",
      "outputs": [
        {
          "internalType": "contract IERC20",
          "name": "",
          "type": "address"
        }
      ],
      "stateMutability": "view",
      "type": "function"
    }
  ],
  "bytecode": "0x60a060405234801562000010575f80fd5b506040516200310b3803806200310b8339818101604052810190620000369190620000d6565b8073ffffffffffffffffffffffffffffffffffffffff1660808173ffffffffffffffffffffffffffffffffffffffff16815250505062000106565b5f80fd5b5f73ffffffffffffffffffffffffffffffffffffffff82169050919050565b5f620000a08262000075565b9050919050565b620000b28162000094565b8114620000bd575f80fd5b50565b5f81519050620000d081620000a7565b92915050565b5f60208284031215620000ee57620000ed62000071565b5b5f620000fd84828501620000c0565b91505092915050565b608051612fd7620001345f395f818161078201528181610887015281816114e501526115390152612fd75ff3fe608060405260043610610129575f3560e01c80638da5cb5b116100aa578063de523cf31161006e578063de523cf3146103c1578063e9198bf9146103eb578063f1bd6f0a14610413578063f2ed8c531461043b578063f2fde38b14610477578063f3c61d6b1461049f57610129565b80638da5cb5b146102f3578063996c6cc31461031d578063b1bd643614610347578063b49c53a71461036f578063d5438eae1461039757610129565b806356d5d475116100f157806356d5d4751461020d57806370a0823114610235578063715018a614610271578063775313a11461028757806381b4e8b4146102c357610129565b80630e72cc061461012d5780632ead72f61461015557806339bb4ad914610191578063440df4f4146101bb578063485cc955146101e5575b5f80fd5b348015610138575f80fd5b50610153600480360381019061014e9190611dff565b6104c7565b005b348015610160575f80fd5b5061017b60048036038101906101769190611e63565b6104db565b6040516101889190611ea6565b60405180910390f35b34801561019c575f80fd5b506101a5610503565b6040516101b29190611f1a565b60405180910390f35b3480156101c6575f80fd5b506101cf610528565b6040516101dc9190611fea565b60405180910390f35b3480156101f0575f80fd5b5061020b6004803603810190610206919061200a565b610539565b005b348015610218575f80fd5b50610233600480360381019061022e91906120d3565b610675565b005b348015610240575f80fd5b5061025b60048036038101906102569190611dff565b61077f565b604051610268919061215c565b60405180910390f35b34801561027c575f80fd5b5061028561081f565b005b348015610292575f80fd5b506102ad60048036038101906102a89190611e63565b610832565b6040516102ba919061215c565b60405180910390f35b6102dd60048036038101906102d8919061219f565b610847565b6040516102ea9190611ea6565b60405180910390f35b3480156102fe575f80fd5b5061030761085d565b60405161031491906121fe565b60405180910390f35b348015610328575f80fd5b50610331610885565b60405161033e9190612237565b60405180910390f35b348015610352575f80fd5b5061036d600480360381019061036891906122a5565b6108a9565b005b34801561037a575f80fd5b50610395600480360381019061039091906122f0565b610926565b005b3480156103a2575f80fd5b506103ab61093c565b6040516103b8919061234e565b60405180910390f35b3480156103cc575f80fd5b506103d5610961565b6040516103e29190612387565b60405180910390f35b3480156103f6575f80fd5b50610411600480360381019061040c919061244a565b610986565b005b34801561041e575f80fd5b5061043960048036038101906104349190611dff565b610a4d565b005b348015610446575f80fd5b50610461600480360381019061045c9190611e63565b610a61565b60405161046e919061215c565b60405180910390f35b348015610482575f80fd5b5061049d60048036038101906104989190611dff565b610b21565b005b3480156104aa575f80fd5b506104c560048036038101906104c09190611dff565b610ba3565b005b6104cf610bb7565b6104d881610c35565b50565b5f806104f78363ffffffff166098610d3990919063ffffffff16565b91505080915050919050565b60665f9054906101000a900473ffffffffffffffffffffffffffffffffffffffff1681565b60606105346098610d5d565b905090565b5f8060019054906101000a900460ff16159050808015610568575060015f8054906101000a900460ff1660ff16105b80610594575061057730610e24565b158015610593575060015f8054906101000a900460ff1660ff16145b5b6105d3576040517f08c379a00000000000000000000000000000000000000000000000000000000081526004016105ca90612548565b60405180910390fd5b60015f806101000a81548160ff021916908360ff160217905550801561060e5760015f60016101000a81548160ff0219169083151502179055505b6106188383610e46565b8015610670575f8060016101000a81548160ff0219169083151502179055507f7f26b83ff96e1f2b6a682f133852f6798a09c465da95921460cefb3847402498600160405161066791906125ab565b60405180910390a15b505050565b60655f9054906101000a900473ffffffffffffffffffffffffffffffffffffffff1673ffffffffffffffffffffffffffffffffffffffff163373ffffffffffffffffffffffffffffffffffffffff1614610704576040517f08c379a00000000000000000000000000000000000000000000000000000000081526004016106fb9061260e565b60405180910390fd5b83836107108282610eaa565b604051806080016040528060438152602001612f5f604391399061076a576040517f08c379a000000000000000000000000000000000000000000000000000000000815260040161076191906126a6565b60405180910390fd5b5061077786868686610ebe565b505050505050565b5f7f000000000000000000000000000000000000000000000000000000000000000073ffffffffffffffffffffffffffffffffffffffff166370a08231836040518263ffffffff1660e01b81526004016107d991906121fe565b602060405180830381865afa1580156107f4573d5f803e3d5ffd5b505050506040513d601f19601f8201168201806040525081019061081891906126da565b9050919050565b610827610bb7565b6108305f610f45565b565b60cc602052805f5260405f205f915090505481565b5f61085484848434611008565b90509392505050565b5f60335f9054906101000a900473ffffffffffffffffffffffffffffffffffffffff16905090565b7f000000000000000000000000000000000000000000000000000000000000000081565b6108b1610bb7565b5f5b828290508110156109215761090d8383838181106108d4576108d3612705565b5b9050604002015f0160208101906108eb9190611e63565b8484848181106108fe576108fd612705565b5b90506040020160200135611075565b60018161091a919061275f565b90506108b3565b505050565b61092e610bb7565b61093882826110d9565b5050565b60655f9054906101000a900473ffffffffffffffffffffffffffffffffffffffff1681565b60675f9054906101000a900473ffffffffffffffffffffffffffffffffffffffff1681565b61098e610bb7565b8181905084849050146109d6576040517f08c379a00000000000000000000000000000000000000000000000000000000081526004016109cd906127dc565b60405180910390fd5b5f8484905090505f5b81811015610a4557610a318686838181106109fd576109fc612705565b5b9050602002016020810190610a129190611e63565b858584818110610a2557610a24612705565b5b905060200201356110d9565b600181610a3e919061275f565b90506109df565b505050505050565b610a55610bb7565b610a5e81611137565b50565b5f60665f9054906101000a900473ffffffffffffffffffffffffffffffffffffffff1673ffffffffffffffffffffffffffffffffffffffff1663a69297938360cc5f8663ffffffff1663ffffffff1681526020019081526020015f20546040518363ffffffff1660e01b8152600401610adb929190612809565b602060405180830381865afa158015610af6573d5f803e3d5ffd5b505050506040513d601f19601f82011682018060405250810190610b1a91906126da565b9050919050565b610b29610bb7565b5f73ffffffffffffffffffffffffffffffffffffffff168173ffffffffffffffffffffffffffffffffffffffff1603610b97576040517f08c379a0000000000000000000000000000000000000000000000000000000008152600401610b8e906128a0565b60405180910390fd5b610ba081610f45565b50565b610bab610bb7565b610bb481611207565b50565b610bbf6112d7565b73ffffffffffffffffffffffffffffffffffffffff16610bdd61085d565b73ffffffffffffffffffffffffffffffffffffffff1614610c33576040517f08c379a0000000000000000000000000000000000000000000000000000000008152600401610c2a90612908565b60405180910390fd5b565b5f73ffffffffffffffffffffffffffffffffffffffff168173ffffffffffffffffffffffffffffffffffffffff161480610c745750610c73816112de565b5b610cb3576040517f08c379a0000000000000000000000000000000000000000000000000000000008152600401610caa90612970565b60405180910390fd5b8060675f6101000a81548173ffffffffffffffffffffffffffffffffffffffff021916908373ffffffffffffffffffffffffffffffffffffffff1602179055508073ffffffffffffffffffffffffffffffffffffffff167ffec811ed4e60aebdaf7a79cad8a97196bf56e35362f039705598226d30c9d24860405160405180910390a250565b5f80610d52835f1b855f0161130090919063ffffffff16565b915091509250929050565b60605f610d6983611349565b9050805167ffffffffffffffff811115610d8657610d8561298e565b5b604051908082528060200260200182016040528015610db45781602001602082028036833780820191505090505b5091505f5b8151811015610e1d57818181518110610dd557610dd4612705565b5b6020026020010151838281518110610df057610def612705565b5b602002602001019063ffffffff16908163ffffffff16815250508080610e15906129bb565b915050610db9565b5050919050565b5f808273ffffffffffffffffffffffffffffffffffffffff163b119050919050565b5f60019054906101000a900460ff16610e94576040517f08c379a0000000000000000000000000000000000000000000000000000000008152600401610e8b90612a72565b60405180910390fd5b610e9d81611137565b610ea682611400565b5050565b5f81610eb5846104db565b14905092915050565b5f610ec98383611462565b90505f610ed68484611489565b9050365f610ee486866114b3565b91509150610efc610ef4856114d3565b8484846114de565b838863ffffffff167fba20947a325f450d232530e5f5fce293e7963499d5309a07cee84a269f2f15a685604051610f33919061215c565b60405180910390a35050505050505050565b5f60335f9054906101000a900473ffffffffffffffffffffffffffffffffffffffff1690508160335f6101000a81548173ffffffffffffffffffffffffffffffffffffffff021916908373ffffffffffffffffffffffffffffffffffffffff1602179055508173ffffffffffffffffffffffffffffffffffffffff168173ffffffffffffffffffffffffffffffffffffffff167f8be0079c531659141344cd1fd0a4f28419497f9722a3daafe3b4186f6b6457e060405160405180910390a35050565b5f806110138461152f565b905061102b86611024878785611594565b85336115c3565b9150848663ffffffff167fd229aacb94204188fe8042965fa6b269c62dc5818b21238779ab64bdd17efeec86604051611064919061215c565b60405180910390a350949350505050565b8060cc5f8463ffffffff1663ffffffff1681526020019081526020015f20819055508163ffffffff167f90563f253ecb04527a6a7ae1a8cbe2bdc6caefb39d5f7b06a973cf5e7f8035a4826040516110cd919061215c565b60405180910390a25050565b6110f58263ffffffff168260986115f89092919063ffffffff16565b8163ffffffff167f97fd51fef1f80c854cbd0150c248e8b2ac4ecdc97cc05e742b5f61c9f4dc64588260405161112b9190611ea6565b60405180910390a25050565b80611141816112de565b611180576040517f08c379a000000000000000000000000000000000000000000000000000000000815260040161117790612970565b60405180910390fd5b8160665f6101000a81548173ffffffffffffffffffffffffffffffffffffffff021916908373ffffffffffffffffffffffffffffffffffffffff1602179055508173ffffffffffffffffffffffffffffffffffffffff167fb87f5a0bface22cde699143559fb99f990ae54eea236995fc54178af91af859f60405160405180910390a25050565b80611211816112de565b611250576040517f08c379a000000000000000000000000000000000000000000000000000000000815260040161124790612970565b60405180910390fd5b8160655f6101000a81548173ffffffffffffffffffffffffffffffffffffffff021916908373ffffffffffffffffffffffffffffffffffffffff1602179055508173ffffffffffffffffffffffffffffffffffffffff167f7a61e573722ff8b205c8962b59d37e7d30573f368965597a844a94872204ebd760405160405180910390a25050565b5f33905090565b5f808273ffffffffffffffffffffffffffffffffffffffff163b119050919050565b5f805f846002015f8581526020019081526020015f205490505f801b81036113395761132c8585611617565b5f801b9250925050611342565b60018192509250505b9250929050565b60605f611357835f01611635565b90508067ffffffffffffffff8111156113735761137261298e565b5b6040519080825280602002602001820160405280156113a15781602001602082028036833780820191505090505b5091505f5b818110156113f9576113c581855f015f0161164890919063ffffffff16565b5f1c8382815181106113da576113d9612705565b5b60200260200101818152505080806113f1906129bb565b9150506113a6565b5050919050565b5f60019054906101000a900460ff1661144e576040517f08c379a000000000000000000000000000000000000000000000000000000000815260040161144590612a72565b60405180910390fd5b61145781611207565b61145f61165d565b50565b5f82825f9060209261147693929190612a98565b906114819190612ae8565b905092915050565b5f828260209060409261149e93929190612a98565b906114a99190612ae8565b5f1c905092915050565b365f838360409080926114c893929190612a98565b915091509250929050565b5f815f1c9050919050565b61152984847f000000000000000000000000000000000000000000000000000000000000000073ffffffffffffffffffffffffffffffffffffffff166116b59092919063ffffffff16565b50505050565b606061157e3330847f000000000000000000000000000000000000000000000000000000000000000073ffffffffffffffffffffffffffffffffffffffff1661173b909392919063ffffffff16565b60405180602001604052805f8152509050919050565b60608383836040516020016115ab93929190612bca565b60405160208183030381529060405290509392505050565b5f6115ee858560cc5f8963ffffffff1663ffffffff1681526020019081526020015f205486866117c4565b9050949350505050565b611611825f1b82855f016118699092919063ffffffff16565b50505050565b5f61162d82845f016118a090919063ffffffff16565b905092915050565b5f611641825f016118b5565b9050919050565b5f611655835f01836118c8565b905092915050565b5f60019054906101000a900460ff166116ab576040517f08c379a00000000000000000000000000000000000000000000000000000000081526004016116a290612a72565b60405180910390fd5b6116b36118ef565b565b6117368363a9059cbb60e01b84846040516024016116d4929190612c02565b604051602081830303815290604052907bffffffffffffffffffffffffffffffffffffffffffffffffffffffff19166020820180517bffffffffffffffffffffffffffffffffffffffffffffffffffffffff838183161783525050505061194f565b505050565b6117be846323b872dd60e01b85858560405160240161175c93929190612c29565b604051602081830303815290604052907bffffffffffffffffffffffffffffffffffffffffffffffffffffffff19166020820180517bffffffffffffffffffffffffffffffffffffffffffffffffffffffff838183161783525050505061194f565b50505050565b5f6117cf8686611a14565b905060665f9054906101000a900473ffffffffffffffffffffffffffffffffffffffff1673ffffffffffffffffffffffffffffffffffffffff166311bf2c1884838988876040518663ffffffff1660e01b81526004016118329493929190612c5e565b5f604051808303818588803b158015611849575f80fd5b505af115801561185b573d5f803e3d5ffd5b505050505095945050505050565b5f81846002015f8581526020019081526020015f208190555061189783855f01611ac890919063ffffffff16565b90509392505050565b5f6118ad835f0183611add565b905092915050565b5f6118c1825f01611afd565b9050919050565b5f825f0182815481106118de576118dd612705565b5b905f5260205f200154905092915050565b5f60019054906101000a900460ff1661193d576040517f08c379a000000000000000000000000000000000000000000000000000000000815260040161193490612a72565b60405180910390fd5b61194d6119486112d7565b610f45565b565b5f6119b0826040518060400160405280602081526020017f5361666545524332303a206c6f772d6c6576656c2063616c6c206661696c65648152508573ffffffffffffffffffffffffffffffffffffffff16611b0c9092919063ffffffff16565b90505f81511115611a0f57808060200190518101906119cf9190612cd6565b611a0e576040517f08c379a0000000000000000000000000000000000000000000000000000000008152600401611a0590612d71565b60405180910390fd5b5b505050565b5f80611a1f84611b23565b905060655f9054906101000a900473ffffffffffffffffffffffffffffffffffffffff1673ffffffffffffffffffffffffffffffffffffffff1663fa31de018583866040518463ffffffff1660e01b8152600401611a7f93929190612dd7565b6020604051808303815f875af1158015611a9b573d5f803e3d5ffd5b505050506040513d601f19601f82011682018060405250810190611abf9190612e27565b91505092915050565b5f611ad5835f0183611baa565b905092915050565b5f80836001015f8481526020019081526020015f20541415905092915050565b5f815f01805490509050919050565b6060611b1a84845f85611c11565b90509392505050565b5f805f611b408463ffffffff166098610d3990919063ffffffff16565b9150915081604051806080016040528060438152602001612f5f6043913990611b9f576040517f08c379a0000000000000000000000000000000000000000000000000000000008152600401611b9691906126a6565b60405180910390fd5b508092505050919050565b5f611bb58383611add565b611c0757825f0182908060018154018082558091505060019003905f5260205f20015f9091909190915055825f0180549050836001015f8481526020019081526020015f208190555060019050611c0b565b5f90505b92915050565b606082471015611c56576040517f08c379a0000000000000000000000000000000000000000000000000000000008152600401611c4d90612ec2565b60405180910390fd5b5f808673ffffffffffffffffffffffffffffffffffffffff168587604051611c7e9190612ee0565b5f6040518083038185875af1925050503d805f8114611cb8576040519150601f19603f3d011682016040523d82523d5f602084013e611cbd565b606091505b5091509150611cce87838387611cda565b92505050949350505050565b60608315611d3b575f835103611d3357611cf3856112de565b611d32576040517f08c379a0000000000000000000000000000000000000000000000000000000008152600401611d2990612f40565b60405180910390fd5b5b829050611d46565b611d458383611d4e565b5b949350505050565b5f82511115611d605781518083602001fd5b806040517f08c379a0000000000000000000000000000000000000000000000000000000008152600401611d9491906126a6565b60405180910390fd5b5f80fd5b5f80fd5b5f73ffffffffffffffffffffffffffffffffffffffff82169050919050565b5f611dce82611da5565b9050919050565b611dde81611dc4565b8114611de8575f80fd5b50565b5f81359050611df981611dd5565b92915050565b5f60208284031215611e1457611e13611d9d565b5b5f611e2184828501611deb565b91505092915050565b5f63ffffffff82169050919050565b611e4281611e2a565b8114611e4c575f80fd5b50565b5f81359050611e5d81611e39565b92915050565b5f60208284031215611e7857611e77611d9d565b5b5f611e8584828501611e4f565b91505092915050565b5f819050919050565b611ea081611e8e565b82525050565b5f602082019050611eb95f830184611e97565b92915050565b5f819050919050565b5f611ee2611edd611ed884611da5565b611ebf565b611da5565b9050919050565b5f611ef382611ec8565b9050919050565b5f611f0482611ee9565b9050919050565b611f1481611efa565b82525050565b5f602082019050611f2d5f830184611f0b565b92915050565b5f81519050919050565b5f82825260208201905092915050565b5f819050602082019050919050565b611f6581611e2a565b82525050565b5f611f768383611f5c565b60208301905092915050565b5f602082019050919050565b5f611f9882611f33565b611fa28185611f3d565b9350611fad83611f4d565b805f5b83811015611fdd578151611fc48882611f6b565b9750611fcf83611f82565b925050600181019050611fb0565b5085935050505092915050565b5f6020820190508181035f8301526120028184611f8e565b905092915050565b5f80604083850312156120205761201f611d9d565b5b5f61202d85828601611deb565b925050602061203e85828601611deb565b9150509250929050565b61205181611e8e565b811461205b575f80fd5b50565b5f8135905061206c81612048565b92915050565b5f80fd5b5f80fd5b5f80fd5b5f8083601f84011261209357612092612072565b5b8235905067ffffffffffffffff8111156120b0576120af612076565b5b6020830191508360018202830111156120cc576120cb61207a565b5b9250929050565b5f805f80606085870312156120eb576120ea611d9d565b5b5f6120f887828801611e4f565b94505060206121098782880161205e565b935050604085013567ffffffffffffffff81111561212a57612129611da1565b5b6121368782880161207e565b925092505092959194509250565b5f819050919050565b61215681612144565b82525050565b5f60208201905061216f5f83018461214d565b92915050565b61217e81612144565b8114612188575f80fd5b50565b5f8135905061219981612175565b92915050565b5f805f606084860312156121b6576121b5611d9d565b5b5f6121c386828701611e4f565b93505060206121d48682870161205e565b92505060406121e58682870161218b565b9150509250925092565b6121f881611dc4565b82525050565b5f6020820190506122115f8301846121ef565b92915050565b5f61222182611ee9565b9050919050565b61223181612217565b82525050565b5f60208201905061224a5f830184612228565b92915050565b5f8083601f84011261226557612264612072565b5b8235905067ffffffffffffffff81111561228257612281612076565b5b60208301915083604082028301111561229e5761229d61207a565b5b9250929050565b5f80602083850312156122bb576122ba611d9d565b5b5f83013567ffffffffffffffff8111156122d8576122d7611da1565b5b6122e485828601612250565b92509250509250929050565b5f806040838503121561230657612305611d9d565b5b5f61231385828601611e4f565b92505060206123248582860161205e565b9150509250929050565b5f61233882611ee9565b9050919050565b6123488161232e565b82525050565b5f6020820190506123615f83018461233f565b92915050565b5f61237182611ee9565b9050919050565b61238181612367565b82525050565b5f60208201905061239a5f830184612378565b92915050565b5f8083601f8401126123b5576123b4612072565b5b8235905067ffffffffffffffff8111156123d2576123d1612076565b5b6020830191508360208202830111156123ee576123ed61207a565b5b9250929050565b5f8083601f84011261240a57612409612072565b5b8235905067ffffffffffffffff81111561242757612426612076565b5b6020830191508360208202830111156124435761244261207a565b5b9250929050565b5f805f806040858703121561246257612461611d9d565b5b5f85013567ffffffffffffffff81111561247f5761247e611da1565b5b61248b878288016123a0565b9450945050602085013567ffffffffffffffff8111156124ae576124ad611da1565b5b6124ba878288016123f5565b925092505092959194509250565b5f82825260208201905092915050565b7f496e697469616c697a61626c653a20636f6e747261637420697320616c7265615f8201527f647920696e697469616c697a6564000000000000000000000000000000000000602082015250565b5f612532602e836124c8565b915061253d826124d8565b604082019050919050565b5f6020820190508181035f83015261255f81612526565b9050919050565b5f819050919050565b5f60ff82169050919050565b5f61259561259061258b84612566565b611ebf565b61256f565b9050919050565b6125a58161257b565b82525050565b5f6020820190506125be5f83018461259c565b92915050565b7f216d61696c626f780000000000000000000000000000000000000000000000005f82015250565b5f6125f86008836124c8565b9150612603826125c4565b602082019050919050565b5f6020820190508181035f830152612625816125ec565b9050919050565b5f81519050919050565b5f5b83811015612653578082015181840152602081019050612638565b5f8484015250505050565b5f601f19601f8301169050919050565b5f6126788261262c565b61268281856124c8565b9350612692818560208601612636565b61269b8161265e565b840191505092915050565b5f6020820190508181035f8301526126be818461266e565b905092915050565b5f815190506126d481612175565b92915050565b5f602082840312156126ef576126ee611d9d565b5b5f6126fc848285016126c6565b91505092915050565b7f4e487b71000000000000000000000000000000000000000000000000000000005f52603260045260245ffd5b7f4e487b71000000000000000000000000000000000000000000000000000000005f52601160045260245ffd5b5f61276982612144565b915061277483612144565b925082820190508082111561278c5761278b612732565b5b92915050565b7f216c656e677468000000000000000000000000000000000000000000000000005f82015250565b5f6127c66007836124c8565b91506127d182612792565b602082019050919050565b5f6020820190508181035f8301526127f3816127ba565b9050919050565b61280381611e2a565b82525050565b5f60408201905061281c5f8301856127fa565b612829602083018461214d565b9392505050565b7f4f776e61626c653a206e6577206f776e657220697320746865207a65726f20615f8201527f6464726573730000000000000000000000000000000000000000000000000000602082015250565b5f61288a6026836124c8565b915061289582612830565b604082019050919050565b5f6020820190508181035f8301526128b78161287e565b9050919050565b7f4f776e61626c653a2063616c6c6572206973206e6f7420746865206f776e65725f82015250565b5f6128f26020836124c8565b91506128fd826128be565b602082019050919050565b5f6020820190508181035f83015261291f816128e6565b9050919050565b7f21636f6e747261637400000000000000000000000000000000000000000000005f82015250565b5f61295a6009836124c8565b915061296582612926565b602082019050919050565b5f6020820190508181035f8301526129878161294e565b9050919050565b7f4e487b71000000000000000000000000000000000000000000000000000000005f52604160045260245ffd5b5f6129c582612144565b91507fffffffffffffffffffffffffffffffffffffffffffffffffffffffffffffffff82036129f7576129f6612732565b5b600182019050919050565b7f496e697469616c697a61626c653a20636f6e7472616374206973206e6f7420695f8201527f6e697469616c697a696e67000000000000000000000000000000000000000000602082015250565b5f612a5c602b836124c8565b9150612a6782612a02565b604082019050919050565b5f6020820190508181035f830152612a8981612a50565b9050919050565b5f80fd5b5f80fd5b5f8085851115612aab57612aaa612a90565b5b83861115612abc57612abb612a94565b5b6001850283019150848603905094509492505050565b5f82905092915050565b5f82821b905092915050565b5f612af38383612ad2565b82612afe8135611e8e565b92506020821015612b3e57612b397fffffffffffffffffffffffffffffffffffffffffffffffffffffffffffffffff83602003600802612adc565b831692505b505092915050565b5f819050919050565b612b60612b5b82611e8e565b612b46565b82525050565b5f819050919050565b612b80612b7b82612144565b612b66565b82525050565b5f81519050919050565b5f81905092915050565b5f612ba482612b86565b612bae8185612b90565b9350612bbe818560208601612636565b80840191505092915050565b5f612bd58286612b4f565b602082019150612be58285612b6f565b602082019150612bf58284612b9a565b9150819050949350505050565b5f604082019050612c155f8301856121ef565b612c22602083018461214d565b9392505050565b5f606082019050612c3c5f8301866121ef565b612c4960208301856121ef565b612c56604083018461214d565b949350505050565b5f608082019050612c715f830187611e97565b612c7e60208301866127fa565b612c8b604083018561214d565b612c9860608301846121ef565b95945050505050565b5f8115159050919050565b612cb581612ca1565b8114612cbf575f80fd5b50565b5f81519050612cd081612cac565b92915050565b5f60208284031215612ceb57612cea611d9d565b5b5f612cf884828501612cc2565b91505092915050565b7f5361666545524332303a204552433230206f7065726174696f6e20646964206e5f8201527f6f74207375636365656400000000000000000000000000000000000000000000602082015250565b5f612d5b602a836124c8565b9150612d6682612d01565b604082019050919050565b5f6020820190508181035f830152612d8881612d4f565b9050919050565b5f82825260208201905092915050565b5f612da982612b86565b612db38185612d8f565b9350612dc3818560208601612636565b612dcc8161265e565b840191505092915050565b5f606082019050612dea5f8301866127fa565b612df76020830185611e97565b8181036040830152612e098184612d9f565b9050949350505050565b5f81519050612e2181612048565b92915050565b5f60208284031215612e3c57612e3b611d9d565b5b5f612e4984828501612e13565b91505092915050565b7f416464726573733a20696e73756666696369656e742062616c616e636520666f5f8201527f722063616c6c0000000000000000000000000000000000000000000000000000602082015250565b5f612eac6026836124c8565b9150612eb782612e52565b604082019050919050565b5f6020820190508181035f830152612ed981612ea0565b9050919050565b5f612eeb8284612b9a565b915081905092915050565b7f416464726573733a2063616c6c20746f206e6f6e2d636f6e74726163740000005f82015250565b5f612f2a601d836124c8565b9150612f3582612ef6565b602082019050919050565b5f6020820190508181035f830152612f5781612f1e565b905091905056fe4e6f20726f7574657220656e726f6c6c656420666f7220646f6d61696e2e2044696420796f7520737065636966792074686520726967687420646f6d61696e2049443fa2646970667358221220b0bac889c6f848d574c43920c80f2e15ab7d5caf45209adf1028d2fe476c226e64736f6c63430008140033",
  "linkReferences": {},
  "deployedLinkReferences": {}
}