{
  "contractName": "CengliP2PEscrow",
  "abi": [
    {
      "inputs": [
        {
          "internalType": "address",
          "name": "initialOwner",
          "type": "address"
        }
      ],
      "stateMutability": "nonpayable",
      "type": "constructor"
    },
    {
      "inputs": [
        {
          "internalType": "address",
          "name": "owner",
          "type": "address"
        }
      ],
      "name": "OwnableInvalidOwner",
      "type": "error"
    },
    {
      "inputs": [
        {
          "internalType": "address",
          "name": "account",
          "type": "address"
        }
      ],
      "name": "OwnableUnauthorizedAccount",
      "type": "error"
    },
    {
      "anonymous": false,
      "inputs": [
        {
          "indexed": true,
          "internalType": "uint256",
          "name": "orderId",
          "type": "uint256"
        },
        {
          "indexed": false,
          "internalType": "enum CengliP2PEscrow.OrderStatus",
          "name": "newStatus",
          "type": "uint8"
        }
      ],
      "name": "OrderUpdated",
      "type": "event"
    },
    {
      "anonymous": false,
      "inputs": [
        {
          "indexed": true,
          "internalType": "address",
          "name": "previousOwner",
          "type": "address"
        },
        {
          "indexed": true,
          "internalType": "address",
          "name": "newOwner",
          "type": "address"
        }
      ],
      "name": "OwnershipTransferred",
      "type": "event"
    },
    {
      "inputs": [],
      "name": "orderIdCounter",
      "outputs": [
        {
          "internalType": "uint256",
          "name": "",
          "type": "uint256"
        }
      ],
      "stateMutability": "view",
      "type": "function"
    },
    {
      "inputs": [
        {
          "internalType": "uint256",
          "name": "",
          "type": "uint256"
        }
      ],
      "name": "orders",
      "outputs": [
        {
          "internalType": "address",
          "name": "buyer",
          "type": "address"
        },
        {
          "internalType": "address",
          "name": "partner",
          "type": "address"
        },
        {
          "internalType": "address",
          "name": "token",
          "type": "address"
        },
        {
          "internalType": "uint256",
          "name": "amount",
          "type": "uint256"
        },
        {
          "internalType": "enum CengliP2PEscrow.OrderStatus",
          "name": "status",
          "type": "uint8"
        }
      ],
      "stateMutability": "view",
      "type": "function"
    },
    {
      "inputs": [],
      "name": "owner",
      "outputs": [
        {
          "internalType": "address",
          "name": "",
          "type": "address"
        }
      ],
      "stateMutability": "view",
      "type": "function"
    },
    {
      "inputs": [],
      "name": "renounceOwnership",
      "outputs": [],
      "stateMutability": "nonpayable",
      "type": "function"
    },
    {
      "inputs": [
        {
          "internalType": "address",
          "name": "newOwner",
          "type": "address"
        }
      ],
      "name": "transferOwnership",
      "outputs": [],
      "stateMutability": "nonpayable",
      "type": "function"
    },
    {
      "inputs": [
        {
          "internalType": "address",
          "name": "buyer",
          "type": "address"
        },
        {
          "internalType": "address",
          "name": "partner",
          "type": "address"
        },
        {
          "internalType": "address",
          "name": "token",
          "type": "address"
        },
        {
          "internalType": "uint256",
          "name": "amount",
          "type": "uint256"
        }
      ],
      "name": "acceptOrder",
      "outputs": [
        {
          "internalType": "uint256",
          "name": "",
          "type": "uint256"
        }
      ],
      "stateMutability": "nonpayable",
      "type": "function"
    },
    {
      "inputs": [
        {
          "internalType": "uint256",
          "name": "orderId",
          "type": "uint256"
        }
      ],
      "name": "cancelOrder",
      "outputs": [],
      "stateMutability": "nonpayable",
      "type": "function"
    },
    {
      "inputs": [
        {
          "internalType": "uint256",
          "name": "orderId",
          "type": "uint256"
        }
      ],
      "name": "releaseFunds",
      "outputs": [],
      "stateMutability": "nonpayable",
      "type": "function"
    },
    {
      "inputs": [
        {
          "internalType": "uint256",
          "name": "orderId",
          "type": "uint256"
        }
      ],
      "name": "getOrder",
      "outputs": [
        {
          "internalType": "address",
          "name": "buyer",
          "type": "address"
        },
        {
          "internalType": "address",
          "name": "partner",
          "type": "address"
        },
        {
          "internalType": "address",
          "name": "token",
          "type": "address"
        },
        {
          "internalType": "uint256",
          "name": "amount",
          "type": "uint256"
        },
        {
          "internalType": "enum CengliP2PEscrow.OrderStatus",
          "name": "status",
          "type": "uint8"
        }
      ],
      "stateMutability": "view",
      "type": "function"
    }
  ],
  "bytecode": "0x608060405260018055348015610013575f80fd5b50604051610b01380380610b01833981016040819052610032916100bf565b806001600160a01b03811661006057604051631e4fbdf760e01b81525f600482015260240160405180910390fd5b61006981610070565b50506100ec565b5f80546001600160a01b038381166001600160a01b0319831681178455604051919092169283917f8be0079c531659141344cd1fd0a4f28419497f9722a3daafe3b4186f6b6457e09190a35050565b5f602082840312156100cf575f80fd5b81516001600160a01b03811681146100e5575f80fd5b9392505050565b610a08806100f95f395ff3fe608060405234801561000f575f80fd5b506004361061009f575f3560e01c80638da5cb5b11610072578063be37442311610058578063be37442314610172578063d09ef2411461017b578063f2fde38b146101cd575f80fd5b80638da5cb5b146100f9578063a85c38ef14610113575f80fd5b80634d68282f146100a3578063514fcac7146100b857806351c40301146100cb578063715018a6146100f1575b5f80fd5b6100b66100b136600461086f565b6101e0565b005b6100b66100c636600461086f565b61038d565b6100de6100d93660046108a1565b61052b565b6040519081526020015b60405180910390f35b6100b6610765565b5f546040516001600160a01b0390911681526020016100e8565b61016161012136600461086f565b600260208190525f9182526040909120805460018201549282015460038301546004909301546001600160a01b0392831694831693919092169160ff1685565b6040516100e895949392919061091d565b6100de60015481565b61016161018936600461086f565b5f908152600260208190526040909120805460018201549282015460038301546004909301546001600160a01b03928316959483169492909116929160ff90911690565b6100b66101db36600461095b565b610778565b6101e86107ce565b60015f8281526002602052604090206004015460ff16600381111561020f5761020f6108e9565b146102615760405162461bcd60e51b815260206004820152601460248201527f496e76616c6964206f726465722073746174757300000000000000000000000060448201526064015b60405180910390fd5b5f818152600260208190526040918290209081015481546003830154935163a9059cbb60e01b81526001600160a01b03918216600482015260248101949094529192911690819063a9059cbb906044016020604051808303815f875af11580156102cd573d5f803e3d5ffd5b505050506040513d601f19601f820116820180604052508101906102f1919061097b565b61033d5760405162461bcd60e51b815260206004820152601560248201527f546f6b656e207472616e73666572206661696c656400000000000000000000006044820152606401610258565b60048201805460ff1916600390811790915560405184917f575764e5527275e78fb8b8cecd6ae324a82d9904ef7a29349dabdff1e1f54c3591610380919061099a565b60405180910390a2505050565b6103956107ce565b60015f8281526002602052604090206004015460ff1660038111156103bc576103bc6108e9565b146104095760405162461bcd60e51b815260206004820152601460248201527f496e76616c6964206f72646572207374617475730000000000000000000000006044820152606401610258565b5f818152600260208190526040918290209081015460018201546003830154935163a9059cbb60e01b81526001600160a01b03918216600482015260248101949094529192911690819063a9059cbb906044016020604051808303815f875af1158015610478573d5f803e3d5ffd5b505050506040513d601f19601f8201168201806040525081019061049c919061097b565b6104e85760405162461bcd60e51b815260206004820152601360248201527f546f6b656e2072657475726e206661696c6564000000000000000000000000006044820152606401610258565b60048201805460ff1916600290811790915560405184917f575764e5527275e78fb8b8cecd6ae324a82d9904ef7a29349dabdff1e1f54c3591610380919061099a565b5f6105346107ce565b600180545f9182610544836109ae565b909155506040517f23b872dd0000000000000000000000000000000000000000000000000000000081526001600160a01b0387811660048301523060248301526044820186905291925085918216906323b872dd906064016020604051808303815f875af11580156105b8573d5f803e3d5ffd5b505050506040513d601f19601f820116820180604052508101906105dc919061097b565b6106285760405162461bcd60e51b815260206004820152601560248201527f546f6b656e207472616e73666572206661696c656400000000000000000000006044820152606401610258565b6040518060a00160405280886001600160a01b03168152602001876001600160a01b03168152602001866001600160a01b0316815260200185815260200160016003811115610679576106796108e9565b90525f838152600260208181526040928390208451815473ffffffffffffffffffffffffffffffffffffffff199081166001600160a01b03928316178355928601516001808401805486169284169290921790915594860151938201805490931693169290921790556060830151600380830191909155608084015160048301805493949193909260ff199091169190849081111561071a5761071a6108e9565b0217905550905050817f575764e5527275e78fb8b8cecd6ae324a82d9904ef7a29349dabdff1e1f54c356001604051610753919061099a565b60405180910390a25095945050505050565b61076d6107ce565b6107765f610813565b565b6107806107ce565b6001600160a01b0381166107c2576040517f1e4fbdf70000000000000000000000000000000000000000000000000000000081525f6004820152602401610258565b6107cb81610813565b50565b5f546001600160a01b03163314610776576040517f118cdaa7000000000000000000000000000000000000000000000000000000008152336004820152602401610258565b5f80546001600160a01b0383811673ffffffffffffffffffffffffffffffffffffffff19831681178455604051919092169283917f8be0079c531659141344cd1fd0a4f28419497f9722a3daafe3b4186f6b6457e09190a35050565b5f6020828403121561087f575f80fd5b5035919050565b80356001600160a01b038116811461089c575f80fd5b919050565b5f805f80608085870312156108b4575f80fd5b6108bd85610886565b93506108cb60208601610886565b92506108d960408601610886565b9396929550929360600135925050565b634e487b7160e01b5f52602160045260245ffd5b6004811061091957634e487b7160e01b5f52602160045260245ffd5b9052565b6001600160a01b0386811682528581166020830152841660408201526060810183905260a0810161095160808301846108fd565b9695505050505050565b5f6020828403121561096b575f80fd5b61097482610886565b9392505050565b5f6020828403121561098b575f80fd5b81518015158114610974575f80fd5b602081016109a882846108fd565b92915050565b5f600182016109cb57634e487b7160e01b5f52601160045260245ffd5b506001019056fea26469706673582212208c52eaf9fe8b9bdc06b3f2b76814561bec3cceaa07a7dbccd7ddca16ed37f57264736f6c63430008140033",
  "immutableReferences": {},
  "source": "// SPDX-License-Identifier: MIT\npragma solidity ^0.8.19;\n\nimport \"@openzeppelin/contracts/token/ERC20/IERC20.sol\";\nimport \"@openzeppelin/contracts/access/Ownable.sol\";\n\n/// @title CengliP2PEscrow - Peer to peer escrow contract for Cengli\n/// @author YourName\n/// @notice This contract facilitates a P2P exchange between a buyer and a partner.\n/// @dev All function calls are currently implemented without side effects\ncontract CengliP2PEscrow is Ownable {\n    /// @notice Order status enumeration for better tracking and logic handling\n    enum OrderStatus {\n        NONE,\n        WFBP,\n        CANCEL,\n        COMPLETE\n    }\n\n    /// @notice Struct to hold the order data\n    struct Order {\n        address buyer;\n        address partner;\n        address token;\n        uint256 amount;\n        OrderStatus status;\n    }\n\n    // constructor\n    constructor(address initialOwner) Ownable(initialOwner) {}\n\n    /// @notice Counter to generate unique order IDs\n    uint256 public orderIdCounter = 1;\n\n    /// @notice Mapping to hold the orders\n    mapping(uint256 => Order) public orders;\n\n    /// @notice Event emitted whenever an order is updated\n    event OrderUpdated(uint256 indexed orderId, OrderStatus newStatus);\n\n    /// @notice Accepts a new order or updates an existing one\n    /// @dev Only callable by the contract owner\n    /// @return uint256 The newly generated Order ID\n    function acceptOrder(\n        address buyer,\n        address partner,\n        address token,\n        uint256 amount\n    ) external onlyOwner returns (uint256) {\n        uint256 newOrderId = orderIdCounter++;\n\n        IERC20 erc20Token = IERC20(token);\n        require(\n            erc20Token.transferFrom(partner, address(this), amount),\n            \"Token transfer failed\"\n        );\n\n        orders[newOrderId] = Order(\n            buyer,\n            partner,\n            token,\n            amount,\n            OrderStatus.WFBP\n        );\n        emit OrderUpdated(newOrderId, OrderStatus.WFBP);\n\n        return newOrderId;\n    }\n\n    /// @notice Cancels an existing order\n    /// @dev Only callable by the contract owner\n    /// @param orderId Unique identifier for the order\n    function cancelOrder(uint256 orderId) external onlyOwner {\n        require(\n            orders[orderId].status == OrderStatus.WFBP,\n            \"Invalid order status\"\n        );\n\n        Order storage order = orders[orderId];\n        IERC20 erc20Token = IERC20(order.token);\n        require(\n            erc20Token.transfer(order.partner, order.amount),\n            \"Token return failed\"\n        );\n\n        order.status = OrderStatus.CANCEL;\n        emit OrderUpdated(orderId, OrderStatus.CANCEL);\n    }\n\n    /// @notice Releases the escrowed funds to the buyer\n    /// @dev Only callable by the contract owner\n    /// @param orderId Unique identifier for the order\n    function releaseFunds(uint256 orderId) external onlyOwner {\n        require(\n            orders[orderId].status == OrderStatus.WFBP,\n            \"Invalid order status\"\n        );\n\n        Order storage order = orders[orderId];\n        IERC20 erc20Token = IERC20(order.token);\n        require(\n            erc20Token.transfer(order.buyer, order.amount),\n            \"Token transfer failed\"\n        );\n\n        order.status = OrderStatus.COMPLETE;\n        emit OrderUpdated(orderId, OrderStatus.COMPLETE);\n    }\n\n    /// @notice Fetches the details of an order\n    /// @param orderId The ID of the order\n    /// @return buyer The buyer's address\n    /// @return partner The partner's address\n    /// @return token The ERC20 token address used for the payment\n    /// @return amount The amount escrowed\n    /// @return status The status of the order\n    function getOrder(\n        uint256 orderId\n    )\n        external\n        view\n        returns (\n            address buyer,\n            address partner,\n            address token,\n            uint256 amount,\n            OrderStatus status\n        )\n    {\n        Order storage order = orders[orderId];\n        return (\n            order.buyer,\n            order.partner,\n            order.token,\n            order.amount,\n            order.status\n        );\n    }\n}\n",
  "sourcePath": "/Users/kelvinadithya/Desktop/ETHOnline-2023/Cengli/Cengli/contracts/p2p/contracts/CengliP2PEscrow.sol",
  "compiler": {
    "name": "solc",
    "version": "0.8.20+commit.a1b79de6.Emscripten.clang"
  },
  "schemaVersion": "3.4.13",
  "updatedAt": "2023-10-15T18:55:35.987Z",
  "devdoc": {
    "author": "YourName",
    "details": "All function calls are currently implemented without side effects",
    "errors": {
      "OwnableInvalidOwner(address)": [
        {
          "details": "The owner is not a valid owner account. (eg. `address(0)`)"
        }
      ],
      "OwnableUnauthorizedAccount(address)": [
        {
          "details": "The caller account is not authorized to perform an operation."
        }
      ]
    },
    "kind": "dev",
    "methods": {
      "acceptOrder(address,address,address,uint256)": {
        "details": "Only callable by the contract owner",
        "returns": {
          "_0": "uint256 The newly generated Order ID"
        }
      },
      "cancelOrder(uint256)": {
        "details": "Only callable by the contract owner",
        "params": {
          "orderId": "Unique identifier for the order"
        }
      },
      "getOrder(uint256)": {
        "params": {
          "orderId": "The ID of the order"
        },
        "returns": {
          "amount": "The amount escrowed",
          "buyer": "The buyer's address",
          "partner": "The partner's address",
          "status": "The status of the order",
          "token": "The ERC20 token address used for the payment"
        }
      },
      "owner()": {
        "details": "Returns the address of the current owner."
      },
      "releaseFunds(uint256)": {
        "details": "Only callable by the contract owner",
        "params": {
          "orderId": "Unique identifier for the order"
        }
      },
      "renounceOwnership()": {
        "details": "Leaves the contract without owner. It will not be possible to call `onlyOwner` functions. Can only be called by the current owner. NOTE: Renouncing ownership will leave the contract without an owner, thereby disabling any functionality that is only available to the owner."
      },
      "transferOwnership(address)": {
        "details": "Transfers ownership of the contract to a new account (`newOwner`). Can only be called by the current owner."
      }
    },
    "title": "CengliP2PEscrow - Peer to peer escrow contract for Cengli",
    "version": 1
  },
  "userdoc": {
    "events": {
      "OrderUpdated(uint256,uint8)": {
        "notice": "Event emitted whenever an order is updated"
      }
    },
    "kind": "user",
    "methods": {
      "acceptOrder(address,address,address,uint256)": {
        "notice": "Accepts a new order or updates an existing one"
      },
      "cancelOrder(uint256)": {
        "notice": "Cancels an existing order"
      },
      "getOrder(uint256)": {
        "notice": "Fetches the details of an order"
      },
      "orderIdCounter()": {
        "notice": "Counter to generate unique order IDs"
      },
      "orders(uint256)": {
        "notice": "Mapping to hold the orders"
      },
      "releaseFunds(uint256)": {
        "notice": "Releases the escrowed funds to the buyer"
      }
    },
    "notice": "This contract facilitates a P2P exchange between a buyer and a partner.",
    "version": 1
  }
}