{
  "contractName": "CengliRelayer",
  "abi": [
    {
      "inputs": [
        {
          "internalType": "address",
          "name": "forwarderAddress",
          "type": "address"
        }
      ],
      "stateMutability": "nonpayable",
      "type": "constructor"
    },
    {
      "inputs": [
        {
          "internalType": "address",
          "name": "owner",
          "type": "address"
        }
      ],
      "name": "OwnableInvalidOwner",
      "type": "error"
    },
    {
      "inputs": [
        {
          "internalType": "address",
          "name": "account",
          "type": "address"
        }
      ],
      "name": "OwnableUnauthorizedAccount",
      "type": "error"
    },
    {
      "anonymous": false,
      "inputs": [
        {
          "indexed": true,
          "internalType": "address",
          "name": "previousOwner",
          "type": "address"
        },
        {
          "indexed": true,
          "internalType": "address",
          "name": "newOwner",
          "type": "address"
        }
      ],
      "name": "OwnershipTransferred",
      "type": "event"
    },
    {
      "inputs": [],
      "name": "owner",
      "outputs": [
        {
          "internalType": "address",
          "name": "",
          "type": "address"
        }
      ],
      "stateMutability": "view",
      "type": "function",
      "constant": true
    },
    {
      "inputs": [],
      "name": "renounceOwnership",
      "outputs": [],
      "stateMutability": "nonpayable",
      "type": "function"
    },
    {
      "inputs": [
        {
          "internalType": "address",
          "name": "newOwner",
          "type": "address"
        }
      ],
      "name": "transferOwnership",
      "outputs": [],
      "stateMutability": "nonpayable",
      "type": "function"
    },
    {
      "inputs": [
        {
          "internalType": "contract IERC20",
          "name": "token",
          "type": "address"
        },
        {
          "internalType": "address",
          "name": "to",
          "type": "address"
        }
      ],
      "name": "sweepTokens",
      "outputs": [],
      "stateMutability": "nonpayable",
      "type": "function"
    },
    {
      "inputs": [
        {
          "internalType": "address payable",
          "name": "to",
          "type": "address"
        }
      ],
      "name": "sweepEther",
      "outputs": [],
      "stateMutability": "nonpayable",
      "type": "function"
    },
    {
      "inputs": [],
      "name": "getChainId",
      "outputs": [
        {
          "internalType": "uint256",
          "name": "",
          "type": "uint256"
        }
      ],
      "stateMutability": "view",
      "type": "function",
      "constant": true
    }
  ],
  "bytecode": "0x608060405234801561000f575f80fd5b5060405161060f38038061060f83398101604081905261002e91610142565b338061005457604051631e4fbdf760e01b81525f60048201526024015b60405180910390fd5b61005d81610088565b50600180546001600160a01b0319166001600160a01b038316179055610082336100d7565b5061016f565b5f80546001600160a01b038381166001600160a01b0319831681178455604051919092169283917f8be0079c531659141344cd1fd0a4f28419497f9722a3daafe3b4186f6b6457e09190a35050565b6100df610114565b6001600160a01b03811661010857604051631e4fbdf760e01b81525f600482015260240161004b565b61011181610088565b50565b5f546001600160a01b031633146101405760405163118cdaa760e01b815233600482015260240161004b565b565b5f60208284031215610152575f80fd5b81516001600160a01b0381168114610168575f80fd5b9392505050565b6104938061017c5f395ff3fe608060405234801561000f575f80fd5b506004361061006f575f3560e01c8063715018a61161004d578063715018a6146100ae5780638da5cb5b146100b6578063f2fde38b146100d0575f80fd5b80631609be1d146100735780633408e47014610088578063475cae3d1461009b575b5f80fd5b6100866100813660046103ce565b6100e3565b005b6040514681526020015b60405180910390f35b6100866100a9366004610405565b6101fd565b6100866102a5565b5f546040516001600160a01b039091168152602001610092565b6100866100de366004610405565b6102b8565b6100eb61030e565b6040517f70a082310000000000000000000000000000000000000000000000000000000081523060048201526001600160a01b0383169063a9059cbb90839083906370a0823190602401602060405180830381865afa158015610150573d5f803e3d5ffd5b505050506040513d601f19601f820116820180604052508101906101749190610427565b6040517fffffffff0000000000000000000000000000000000000000000000000000000060e085901b1681526001600160a01b03909216600483015260248201526044016020604051808303815f875af11580156101d4573d5f803e3d5ffd5b505050506040513d601f19601f820116820180604052508101906101f8919061043e565b505050565b61020561030e565b4780610272576040517f08c379a000000000000000000000000000000000000000000000000000000000815260206004820181905260248201527f43656e676c6952656c617965723a206e6f20657468657220746f20737765657060448201526064015b60405180910390fd5b6040516001600160a01b0383169082156108fc029083905f818181858888f193505050501580156101f8573d5f803e3d5ffd5b6102ad61030e565b6102b65f610353565b565b6102c061030e565b6001600160a01b038116610302576040517f1e4fbdf70000000000000000000000000000000000000000000000000000000081525f6004820152602401610269565b61030b81610353565b50565b5f546001600160a01b031633146102b6576040517f118cdaa7000000000000000000000000000000000000000000000000000000008152336004820152602401610269565b5f80546001600160a01b038381167fffffffffffffffffffffffff0000000000000000000000000000000000000000831681178455604051919092169283917f8be0079c531659141344cd1fd0a4f28419497f9722a3daafe3b4186f6b6457e09190a35050565b6001600160a01b038116811461030b575f80fd5b5f80604083850312156103df575f80fd5b82356103ea816103ba565b915060208301356103fa816103ba565b809150509250929050565b5f60208284031215610415575f80fd5b8135610420816103ba565b9392505050565b5f60208284031215610437575f80fd5b5051919050565b5f6020828403121561044e575f80fd5b81518015158114610420575f80fdfea26469706673582212207f126340c19db37d29ead15bab494e8fa38cceed2812c1f3db187f458c74254264736f6c63430008140033",
  "immutableReferences": {},
  "source": "// SPDX-License-Identifier: MIT\npragma solidity ^0.8.19;\n\nimport \"@openzeppelin/contracts/metatx/ERC2771Forwarder.sol\";\nimport \"@openzeppelin/contracts/access/Ownable.sol\";\nimport \"@openzeppelin/contracts/token/ERC20/IERC20.sol\";\n\ncontract CengliRelayer is Ownable {\n    ERC2771Forwarder private forwarder;\n\n    constructor(address forwarderAddress) Ownable(msg.sender) {\n        forwarder = ERC2771Forwarder(forwarderAddress);\n        transferOwnership(msg.sender);\n    }\n\n    function sweepTokens(IERC20 token, address to) external onlyOwner {\n        token.transfer(to, token.balanceOf(address(this)));\n    }\n\n    function sweepEther(address payable to) external onlyOwner {\n        uint256 balance = address(this).balance;\n\n        require(balance > 0, \"CengliRelayer: no ether to sweep\");\n        to.transfer(balance);\n    }\n\n    function getChainId() external view returns (uint256) {\n        return block.chainid;\n    }\n}\n",
  "sourcePath": "/Users/kelvinadithya/Desktop/ETHOnline-2023/Cengli/Cengli 2/contracts/CengliRelayer.sol",
  "compiler": {
    "name": "solc",
    "version": "0.8.20+commit.a1b79de6.Emscripten.clang"
  },
  "schemaVersion": "3.4.16",
  "updatedAt": "2023-10-14T18:04:04.543Z",
  "networkType": "ethereum",
  "devdoc": {
    "errors": {
      "OwnableInvalidOwner(address)": [
        {
          "details": "The owner is not a valid owner account. (eg. `address(0)`)"
        }
      ],
      "OwnableUnauthorizedAccount(address)": [
        {
          "details": "The caller account is not authorized to perform an operation."
        }
      ]
    },
    "kind": "dev",
    "methods": {
      "owner()": {
        "details": "Returns the address of the current owner."
      },
      "renounceOwnership()": {
        "details": "Leaves the contract without owner. It will not be possible to call `onlyOwner` functions. Can only be called by the current owner. NOTE: Renouncing ownership will leave the contract without an owner, thereby disabling any functionality that is only available to the owner."
      },
      "transferOwnership(address)": {
        "details": "Transfers ownership of the contract to a new account (`newOwner`). Can only be called by the current owner."
      }
    },
    "version": 1
  },
  "userdoc": {
    "kind": "user",
    "methods": {},
    "version": 1
  }
}