{
  "contractName": "TestContract",
  "abi": [
    {
      "inputs": [
        {
          "internalType": "address",
          "name": "trustedForwarder",
          "type": "address"
        }
      ],
      "stateMutability": "nonpayable",
      "type": "constructor"
    },
    {
      "inputs": [],
      "name": "flagCapturer",
      "outputs": [
        {
          "internalType": "address",
          "name": "",
          "type": "address"
        }
      ],
      "stateMutability": "view",
      "type": "function",
      "constant": true
    },
    {
      "inputs": [
        {
          "internalType": "address",
          "name": "forwarder",
          "type": "address"
        }
      ],
      "name": "isTrustedForwarder",
      "outputs": [
        {
          "internalType": "bool",
          "name": "",
          "type": "bool"
        }
      ],
      "stateMutability": "view",
      "type": "function",
      "constant": true
    },
    {
      "inputs": [],
      "name": "trustedForwarder",
      "outputs": [
        {
          "internalType": "address",
          "name": "",
          "type": "address"
        }
      ],
      "stateMutability": "view",
      "type": "function",
      "constant": true
    },
    {
      "inputs": [],
      "name": "captureFlag",
      "outputs": [],
      "stateMutability": "payable",
      "type": "function",
      "payable": true
    },
    {
      "inputs": [],
      "name": "withdraw",
      "outputs": [],
      "stateMutability": "nonpayable",
      "type": "function"
    }
  ],
  "bytecode": "0x60a060405234801561000f575f80fd5b5060405161033638038061033683398101604081905261002e9161003f565b6001600160a01b031660805261006c565b5f6020828403121561004f575f80fd5b81516001600160a01b0381168114610065575f80fd5b9392505050565b6080516102ad6100895f395f8181608e015260e101526102ad5ff3fe608060405260043610610058575f3560e01c80637da0a877116100415780637da0a877146100d35780639561dace14610119578063d481972f14610137575f80fd5b80633ccfd60b1461005c578063572b6c0514610072575b5f80fd5b348015610067575f80fd5b5061007061013f565b005b34801561007d575f80fd5b506100be61008c36600461024a565b7f00000000000000000000000000000000000000000000000000000000000000006001600160a01b0390811691161490565b60405190151581526020015b60405180910390f35b3480156100de575f80fd5b507f00000000000000000000000000000000000000000000000000000000000000005b6040516001600160a01b0390911681526020016100ca565b348015610124575f80fd5b505f54610101906001600160a01b031681565b6100706101c9565b5f546001600160a01b0316331461019d5760405162461bcd60e51b815260206004820152601f60248201527f4f6e6c7920666c61672063617074757265722063616e2077697468647261770060448201526064015b60405180910390fd5b60405133904780156108fc02915f818181858888f193505050501580156101c6573d5f803e3d5ffd5b50565b34662386f26fc100001461021f5760405162461bcd60e51b815260206004820152601360248201527f4d7573742070617920302e3031206574686572000000000000000000000000006044820152606401610194565b5f80547fffffffffffffffffffffffff00000000000000000000000000000000000000001633179055565b5f6020828403121561025a575f80fd5b81356001600160a01b0381168114610270575f80fd5b939250505056fea2646970667358221220a2f35553e207da4567f780be7850688d2f8cf56eaf5e3f66eec1c2758e8dd8a664736f6c63430008140033",
  "immutableReferences": {
    "9": [
      {
        "length": 32,
        "start": 142
      },
      {
        "length": 32,
        "start": 225
      }
    ]
  },
  "source": "// SPDX-License-Identifier: MIT\npragma solidity ^0.8.19;\n\nimport {ERC2771Context} from \"@openzeppelin/contracts/metatx/ERC2771Context.sol\";\n\ncontract TestContract is ERC2771Context {\n    address public flagCapturer;\n\n    function captureFlag() public payable {\n        require(msg.value == 0.01 ether, \"Must pay 0.01 ether\");\n\n        flagCapturer = msg.sender;\n    }\n\n    function withdraw() public {\n        require(msg.sender == flagCapturer, \"Only flag capturer can withdraw\");\n\n        payable(msg.sender).transfer(address(this).balance);\n    }\n\n    constructor(address trustedForwarder) ERC2771Context(trustedForwarder) {}\n}\n",
  "sourcePath": "/Users/kelvinadithya/Desktop/ETHOnline-2023/Cengli/Cengli 2/contracts/TestContract.sol",
  "compiler": {
    "name": "solc",
    "version": "0.8.20+commit.a1b79de6.Emscripten.clang"
  },
  "schemaVersion": "3.4.16",
  "updatedAt": "2023-10-14T18:04:04.545Z",
  "networkType": "ethereum",
  "devdoc": {
    "kind": "dev",
    "methods": {
      "isTrustedForwarder(address)": {
        "details": "Indicates whether any particular address is the trusted forwarder."
      },
      "trustedForwarder()": {
        "details": "Returns the address of the trusted forwarder."
      }
    },
    "version": 1
  },
  "userdoc": {
    "kind": "user",
    "methods": {},
    "version": 1
  }
}