{
  "contractName": "TestContract",
  "abi": [
    {
      "inputs": [
        {
          "internalType": "address",
          "name": "trustedForwarder",
          "type": "address"
        }
      ],
      "stateMutability": "nonpayable",
      "type": "constructor"
    },
    {
      "inputs": [],
      "name": "flagCapturer",
      "outputs": [
        {
          "internalType": "address",
          "name": "",
          "type": "address"
        }
      ],
      "stateMutability": "view",
      "type": "function"
    },
    {
      "inputs": [
        {
          "internalType": "address",
          "name": "forwarder",
          "type": "address"
        }
      ],
      "name": "isTrustedForwarder",
      "outputs": [
        {
          "internalType": "bool",
          "name": "",
          "type": "bool"
        }
      ],
      "stateMutability": "view",
      "type": "function"
    },
    {
      "inputs": [],
      "name": "trustedForwarder",
      "outputs": [
        {
          "internalType": "address",
          "name": "",
          "type": "address"
        }
      ],
      "stateMutability": "view",
      "type": "function"
    },
    {
      "inputs": [],
      "name": "captureFlag",
      "outputs": [],
      "stateMutability": "payable",
      "type": "function"
    },
    {
      "inputs": [],
      "name": "withdraw",
      "outputs": [],
      "stateMutability": "nonpayable",
      "type": "function"
    }
  ],
  "bytecode": "0x60a060405234801561000f575f80fd5b5060405161038b38038061038b83398101604081905261002e9161003f565b6001600160a01b031660805261006c565b5f6020828403121561004f575f80fd5b81516001600160a01b0381168114610065575f80fd5b9392505050565b6080516102fb6100905f395f8181608e0152818160e1015261024a01526102fb5ff3fe608060405260043610610058575f3560e01c80637da0a877116100415780637da0a877146100d35780639561dace14610119578063d481972f14610137575f80fd5b80633ccfd60b1461005c578063572b6c0514610072575b5f80fd5b348015610067575f80fd5b5061007061013f565b005b34801561007d575f80fd5b506100be61008c366004610298565b7f00000000000000000000000000000000000000000000000000000000000000006001600160a01b0390811691161490565b60405190151581526020015b60405180910390f35b3480156100de575f80fd5b507f00000000000000000000000000000000000000000000000000000000000000005b6040516001600160a01b0390911681526020016100ca565b348015610124575f80fd5b505f54610101906001600160a01b031681565b610070610206565b5f546001600160a01b0316610152610247565b6001600160a01b0316146101c6576040517f08c379a000000000000000000000000000000000000000000000000000000000815260206004820152601f60248201527f4f6e6c7920666c61672063617074757265722063616e20776974686472617700604482015260640160405180910390fd5b6101ce610247565b6001600160a01b03166108fc4790811502906040515f60405180830381858888f19350505050158015610203573d5f803e3d5ffd5b50565b61020e610247565b5f80547fffffffffffffffffffffffff0000000000000000000000000000000000000000166001600160a01b0392909216919091179055565b5f7f00000000000000000000000000000000000000000000000000000000000000006001600160a01b031633148015610281575060143610155b15610293575060131936013560601c90565b503390565b5f602082840312156102a8575f80fd5b81356001600160a01b03811681146102be575f80fd5b939250505056fea2646970667358221220a095f144a0507beaba747b558df82857a34da4d1eaba2cabfddee2e12fa5e80064736f6c63430008140033",
  "immutableReferences": {
    "34": [
      {
        "length": 32,
        "start": 142
      },
      {
        "length": 32,
        "start": 225
      },
      {
        "length": 32,
        "start": 586
      }
    ]
  },
  "source": "// SPDX-License-Identifier: MIT\npragma solidity ^0.8.19;\n\nimport {ERC2771Context} from \"@openzeppelin/contracts/metatx/ERC2771Context.sol\";\n\ncontract TestContract is ERC2771Context {\n    address public flagCapturer;\n\n    function captureFlag() public payable {\n        flagCapturer = _msgSender();\n    }\n\n    function withdraw() public {\n        require(_msgSender() == flagCapturer, \"Only flag capturer can withdraw\");\n        payable(_msgSender()).transfer(address(this).balance);\n    }\n\n    constructor(address trustedForwarder) ERC2771Context(trustedForwarder) {}\n}\n",
  "sourcePath": "/Users/kelvinadithya/Desktop/ETHOnline-2023/Cengli/Cengli 2/contracts/TestContract.sol",
  "compiler": {
    "name": "solc",
    "version": "0.8.20+commit.a1b79de6.Emscripten.clang"
  },
  "schemaVersion": "3.4.16",
  "updatedAt": "2023-10-14T19:27:49.055Z",
  "devdoc": {
    "kind": "dev",
    "methods": {
      "isTrustedForwarder(address)": {
        "details": "Indicates whether any particular address is the trusted forwarder."
      },
      "trustedForwarder()": {
        "details": "Returns the address of the trusted forwarder."
      }
    },
    "version": 1
  },
  "userdoc": {
    "kind": "user",
    "methods": {},
    "version": 1
  }
}