{
  "abi": [
    {
      "inputs": [
        {
          "internalType": "address",
          "name": "_wormholeRelayer",
          "type": "address"
        },
        {
          "internalType": "address",
          "name": "_tokenBridge",
          "type": "address"
        },
        {
          "internalType": "address",
          "name": "_wormhole",
          "type": "address"
        }
      ],
      "stateMutability": "nonpayable",
      "type": "constructor"
    },
    {
      "inputs": [
        {
          "internalType": "bytes32",
          "name": "",
          "type": "bytes32"
        }
      ],
      "name": "NotAnEvmAddress",
      "type": "error"
    },
    {
      "inputs": [
        {
          "internalType": "uint16",
          "name": "targetChain",
          "type": "uint16"
        }
      ],
      "name": "quoteCrossChainDeposit",
      "outputs": [
        {
          "internalType": "uint256",
          "name": "cost",
          "type": "uint256"
        }
      ],
      "stateMutability": "view",
      "type": "function"
    },
    {
      "inputs": [
        {
          "internalType": "bytes",
          "name": "payload",
          "type": "bytes"
        },
        {
          "internalType": "bytes[]",
          "name": "additionalVaas",
          "type": "bytes[]"
        },
        {
          "internalType": "bytes32",
          "name": "sourceAddress",
          "type": "bytes32"
        },
        {
          "internalType": "uint16",
          "name": "sourceChain",
          "type": "uint16"
        },
        {
          "internalType": "bytes32",
          "name": "deliveryHash",
          "type": "bytes32"
        }
      ],
      "name": "receiveWormholeMessages",
      "outputs": [],
      "stateMutability": "payable",
      "type": "function"
    },
    {
      "inputs": [
        {
          "internalType": "uint16",
          "name": "targetChain",
          "type": "uint16"
        },
        {
          "internalType": "address",
          "name": "targetHelloTokens",
          "type": "address"
        },
        {
          "internalType": "address",
          "name": "recipient",
          "type": "address"
        },
        {
          "internalType": "uint256",
          "name": "amountA",
          "type": "uint256"
        },
        {
          "internalType": "address",
          "name": "tokenA",
          "type": "address"
        },
        {
          "internalType": "uint256",
          "name": "amountB",
          "type": "uint256"
        },
        {
          "internalType": "address",
          "name": "tokenB",
          "type": "address"
        }
      ],
      "name": "sendCrossChainDeposit",
      "outputs": [],
      "stateMutability": "payable",
      "type": "function"
    },
    {
      "inputs": [
        {
          "internalType": "uint16",
          "name": "sourceChain",
          "type": "uint16"
        },
        {
          "internalType": "bytes32",
          "name": "sourceAddress",
          "type": "bytes32"
        }
      ],
      "name": "setRegisteredSender",
      "outputs": [],
      "stateMutability": "nonpayable",
      "type": "function"
    },
    {
      "inputs": [],
      "name": "tokenBridge",
      "outputs": [
        {
          "internalType": "contract ITokenBridge",
          "name": "",
          "type": "address"
        }
      ],
      "stateMutability": "view",
      "type": "function"
    },
    {
      "inputs": [],
      "name": "wormhole",
      "outputs": [
        {
          "internalType": "contract IWormhole",
          "name": "",
          "type": "address"
        }
      ],
      "stateMutability": "view",
      "type": "function"
    },
    {
      "inputs": [],
      "name": "wormholeRelayer",
      "outputs": [
        {
          "internalType": "contract IWormholeRelayer",
          "name": "",
          "type": "address"
        }
      ],
      "stateMutability": "view",
      "type": "function"
    }
  ],
  "bytecode": {
    "object": "0x60e06040523480156200001157600080fd5b5060405162001fb938038062001fb9833981016040819052620000349162000080565b6001600160a01b03928316608052821660a052600180546001600160a01b031916331790551660c052620000ca565b80516001600160a01b03811681146200007b57600080fd5b919050565b6000806000606084860312156200009657600080fd5b620000a18462000063565b9250620000b16020850162000063565b9150620000c16040850162000063565b90509250925092565b60805160a05160c051611e49620001706000396000818161012e015281816104380152818161051a0152818161068c01528181610cb0015281816110ef01528181611170015261133501526000818160cf0152818161024b0152818161036e015281816105a401528181610a7101528181610c020152818161119f01526112a2015260008181610162015281816101da01528181610a420152610de00152611e496000f3fe6080604052600436106100705760003560e01c8063949d8e651161004e578063949d8e6514610109578063c6328a461461011c578063da25b72514610150578063dd12d68b1461018457600080fd5b80632b524c9714610075578063529dca32146100a857806384acd1bb146100bd575b600080fd5b34801561008157600080fd5b50610095610090366004611396565b6101a4565b6040519081526020015b60405180910390f35b6100bb6100b6366004611507565b6102e7565b005b3480156100c957600080fd5b506100f17f000000000000000000000000000000000000000000000000000000000000000081565b6040516001600160a01b03909116815260200161009f565b6100bb610117366004611611565b610818565b34801561012857600080fd5b506100f17f000000000000000000000000000000000000000000000000000000000000000081565b34801561015c57600080fd5b506100f17f000000000000000000000000000000000000000000000000000000000000000081565b34801561019057600080fd5b506100bb61019f366004611695565b610b81565b60405163c23ee3c360e01b815261ffff8216600482015260006024820181905262061a8060448301529081906001600160a01b037f0000000000000000000000000000000000000000000000000000000000000000169063c23ee3c3906064016040805180830381865afa158015610220573d6000803e3d6000fd5b505050506040513d601f19601f8201168201806040525081019061024491906116c1565b50809150507f00000000000000000000000000000000000000000000000000000000000000006001600160a01b0316631a90a2196040518163ffffffff1660e01b8152600401602060405180830381865afa1580156102a7573d6000803e3d6000fd5b505050506040513d601f19601f820116820180604052508101906102cb91906116e5565b6102d6906002611714565b6102e09082611733565b9392505050565b600084516001600160401b03811115610302576103026113b3565b60405190808252806020026020018201604052801561035b57816020015b6040805160a0810182526000808252602080830182905292820181905260608201819052608082015282526000199092019101816103205790505b50905060005b85518110156108025760007f00000000000000000000000000000000000000000000000000000000000000006001600160a01b031663a9e118938884815181106103ad576103ad61174b565b60200260200101516040518263ffffffff1660e01b81526004016103d191906117bd565b600060405180830381865afa1580156103ee573d6000803e3d6000fd5b505050506040513d6000823e601f3d908101601f191682016040526104169190810190611910565b606081015160405163ad66a5f160e01b815261ffff90911660048201529091507f00000000000000000000000000000000000000000000000000000000000000006001600160a01b03169063ad66a5f190602401602060405180830381865afa158015610487573d6000803e3d6000fd5b505050506040513d601f19601f820116820180604052508101906104ab91906116e5565b8160800151146104fb5760405162461bcd60e51b81526020600482015260166024820152754e6f74206120546f6b656e204272696467652056414160501b60448201526064015b60405180910390fd5b60e081015160405163ea63738d60e01b81526000916001600160a01b037f0000000000000000000000000000000000000000000000000000000000000000169163ea63738d9161054d916004016117bd565b600060405180830381865afa15801561056a573d6000803e3d6000fd5b505050506040513d6000823e601f3d908101601f191682016040526105929190810190611a34565b905030816080015114801561063357507f00000000000000000000000000000000000000000000000000000000000000006001600160a01b0316639a8a05926040518163ffffffff1660e01b8152600401602060405180830381865afa158015610600573d6000803e3d6000fd5b505050506040513d601f19601f820116820180604052508101906106249190611afc565b61ffff168160a0015161ffff16145b61068a5760405162461bcd60e51b815260206004820152602260248201527f546f6b656e20776173206e6f742073656e7420746f2074686973206164647265604482015261737360f01b60648201526084016104f2565b7f00000000000000000000000000000000000000000000000000000000000000006001600160a01b031663c3f511c18985815181106106cb576106cb61174b565b60200260200101516040518263ffffffff1660e01b81526004016106ef91906117bd565b6000604051808303816000875af115801561070e573d6000803e3d6000fd5b505050506040513d6000823e601f3d908101601f191682016040526107369190810190611b19565b50600061074b82606001518360400151610bfe565b9050600061075882610d3a565b6020840151909150600860ff8316111561078f57610777600883611b4d565b61078290600a611c54565b61078c9082611714565b90505b6040518060a0016040528085604001518152602001856060015161ffff168152602001846001600160a01b0316815260200182815260200185602001518152508787815181106107e1576107e161174b565b60200260200101819052505050505050806107fb90611c63565b9050610361565b506108108682868686610dd5565b505050505050565b6040516323b872dd60e01b8152336004820152306024820152604481018590526001600160a01b038416906323b872dd906064016020604051808303816000875af115801561086b573d6000803e3d6000fd5b505050506040513d601f19601f8201168201806040525081019061088f9190611c7c565b506040516323b872dd60e01b8152336004820152306024820152604481018390526001600160a01b038216906323b872dd906064016020604051808303816000875af11580156108e3573d6000803e3d6000fd5b505050506040513d601f19601f820116820180604052508101906109079190611c7c565b50604080516001600160a01b03871660208201526000910160408051808303601f19018152600280845260608401909252925060009190816020015b604080516060810182526000808252602080830182905292820152825260001990920191018161094357905050905061097e85878b8b61104d565b816000815181106109915761099161174b565b60200260200101819052506109a883858b8b61104d565b816001815181106109bb576109bb61174b565b602002602001018190525060006109d18a6101a4565b9050803414610a405760405162461bcd60e51b815260206004820152603560248201527f6d73672e76616c7565206d7573742062652071756f746543726f7373436861696044820152746e4465706f73697428746172676574436861696e2960581b60648201526084016104f2565b7f00000000000000000000000000000000000000000000000000000000000000006001600160a01b031663329a2be77f00000000000000000000000000000000000000000000000000000000000000006001600160a01b0316631a90a2196040518163ffffffff1660e01b8152600401602060405180830381865afa158015610acd573d6000803e3d6000fd5b505050506040513d601f19601f82011682018060405250810190610af191906116e5565b610afc906002611714565b610b069084611c9e565b8c8c87600062061a80896040518863ffffffff1660e01b8152600401610b3196959493929190611cb5565b60206040518083038185885af1158015610b4f573d6000803e3d6000fd5b50505050506040513d601f19601f82011682018060405250810190610b749190611d55565b5050505050505050505050565b6001546001600160a01b03163314610be75760405162461bcd60e51b8152602060048201526024808201527f4e6f7420616c6c6f77656420746f207365742072656769737465726564207365604482015263373232b960e11b60648201526084016104f2565b61ffff909116600090815260026020526040902055565b60007f00000000000000000000000000000000000000000000000000000000000000006001600160a01b0316639a8a05926040518163ffffffff1660e01b8152600401602060405180830381865afa158015610c5e573d6000803e3d6000fd5b505050506040513d601f19601f82011682018060405250810190610c829190611afc565b61ffff168361ffff1614610d2857604051630ff8f14360e11b815261ffff84166004820152602481018390527f00000000000000000000000000000000000000000000000000000000000000006001600160a01b031690631ff1e28690604401602060405180830381865afa158015610cff573d6000803e3d6000fd5b505050506040513d601f19601f82011682018060405250810190610d239190611d70565b610d31565b610d318261108f565b90505b92915050565b60408051600481526024810182526020810180516001600160e01b031663313ce56760e01b179052905160009182916001600160a01b03851691610d7d91611d8d565b600060405180830381855afa9150503d8060008114610db8576040519150601f19603f3d011682016040523d82523d6000602084013e610dbd565b606091505b50915050808060200190518101906102e09190611da9565b336001600160a01b037f00000000000000000000000000000000000000000000000000000000000000001614610e585760405162461bcd60e51b815260206004820152602260248201527f4d73672e73656e646572206973206e6f7420576f726d686f6c652052656c617960448201526132b960f11b60648201526084016104f2565b8351600214610ea95760405162461bcd60e51b815260206004820152601a60248201527f4578706563746564203220746f6b656e207472616e736665727300000000000060448201526064016104f2565b600085806020019051810190610ebf9190611d70565b905084600081518110610ed457610ed461174b565b6020026020010151604001516001600160a01b031663a9059cbb8287600081518110610f0257610f0261174b565b6020026020010151606001516040518363ffffffff1660e01b8152600401610f3f9291906001600160a01b03929092168252602082015260400190565b6020604051808303816000875af1158015610f5e573d6000803e3d6000fd5b505050506040513d601f19601f82011682018060405250810190610f829190611c7c565b5084600181518110610f9657610f9661174b565b6020026020010151604001516001600160a01b031663a9059cbb8287600181518110610fc457610fc461174b565b6020026020010151606001516040518363ffffffff1660e01b81526004016110019291906001600160a01b03929092168252602082015260400190565b6020604051808303816000875af1158015611020573d6000803e3d6000fd5b505050506040513d601f19601f820116820180604052508101906110449190611c7c565b50505050505050565b604080516060810182526000808252602082018190529181019190915261108685858585604051806020016040528060008152506110bb565b95945050505050565b600060a082901c156110b75760405163033b960d60e41b8152600481018390526024016104f2565b5090565b604080516060810182526000808252602082018190529181019190915260405163095ea7b360e01b81526001600160a01b037f0000000000000000000000000000000000000000000000000000000000000000811660048301526024820187905287169063095ea7b3906044016020604051808303816000875af1158015611147573d6000803e3d6000fd5b505050506040513d601f19601f8201168201806040525081019061116b9190611c7c565b5060007f00000000000000000000000000000000000000000000000000000000000000006001600160a01b031663c5a5ebda7f00000000000000000000000000000000000000000000000000000000000000006001600160a01b0316631a90a2196040518163ffffffff1660e01b8152600401602060405180830381865afa1580156111fb573d6000803e3d6000fd5b505050506040513d601f19601f8201168201806040525081019061121f91906116e5565b8989896001600160a01b038a1660008a6040518863ffffffff1660e01b815260040161125096959493929190611dc4565b60206040518083038185885af115801561126e573d6000803e3d6000fd5b50505050506040513d601f19601f820116820180604052508101906112939190611d55565b905060405180606001604052807f00000000000000000000000000000000000000000000000000000000000000006001600160a01b0316639a8a05926040518163ffffffff1660e01b8152600401602060405180830381865afa1580156112fe573d6000803e3d6000fd5b505050506040513d601f19601f820116820180604052508101906113229190611afc565b61ffff1681526020016001600160a01b037f0000000000000000000000000000000000000000000000000000000000000000168152602001826001600160401b031681525091505095945050505050565b61ffff8116811461138357600080fd5b50565b803561139181611373565b919050565b6000602082840312156113a857600080fd5b81356102e081611373565b634e487b7160e01b600052604160045260246000fd5b604051608081016001600160401b03811182821017156113eb576113eb6113b3565b60405290565b60405161016081016001600160401b03811182821017156113eb576113eb6113b3565b60405161010081016001600160401b03811182821017156113eb576113eb6113b3565b604051601f8201601f191681016001600160401b038111828210171561145f5761145f6113b3565b604052919050565b60006001600160401b03821115611480576114806113b3565b50601f01601f191660200190565b600082601f83011261149f57600080fd5b81356114b26114ad82611467565b611437565b8181528460208386010111156114c757600080fd5b816020850160208301376000918101602001919091529392505050565b60006001600160401b038211156114fd576114fd6113b3565b5060051b60200190565b600080600080600060a0868803121561151f57600080fd5b85356001600160401b038082111561153657600080fd5b61154289838a0161148e565b965060209150818801358181111561155957600080fd5b8801601f81018a1361156a57600080fd5b80356115786114ad826114e4565b81815260059190911b8201840190848101908c83111561159757600080fd5b8584015b838110156115cf578035868111156115b35760008081fd5b6115c18f898389010161148e565b84525091860191860161159b565b509850505050604088013594506115eb91505060608701611386565b949793965091946080013592915050565b6001600160a01b038116811461138357600080fd5b600080600080600080600060e0888a03121561162c57600080fd5b873561163781611373565b96506020880135611647816115fc565b95506040880135611657816115fc565b945060608801359350608088013561166e816115fc565b925060a0880135915060c0880135611685816115fc565b8091505092959891949750929550565b600080604083850312156116a857600080fd5b82356116b381611373565b946020939093013593505050565b600080604083850312156116d457600080fd5b505080516020909101519092909150565b6000602082840312156116f757600080fd5b5051919050565b634e487b7160e01b600052601160045260246000fd5b600081600019048311821515161561172e5761172e6116fe565b500290565b60008219821115611746576117466116fe565b500190565b634e487b7160e01b600052603260045260246000fd5b60005b8381101561177c578181015183820152602001611764565b8381111561178b576000848401525b50505050565b600081518084526117a9816020860160208601611761565b601f01601f19169290920160200192915050565b602081526000610d316020830184611791565b805160ff8116811461139157600080fd5b805163ffffffff8116811461139157600080fd5b805161139181611373565b80516001600160401b038116811461139157600080fd5b600082601f83011261182857600080fd5b81516118366114ad82611467565b81815284602083860101111561184b57600080fd5b61185c826020830160208701611761565b949350505050565b600082601f83011261187557600080fd5b815160206118856114ad836114e4565b82815260079290921b840181019181810190868411156118a457600080fd5b8286015b8481101561190557608081890312156118c15760008081fd5b6118c96113c9565b81518152848201518582015260406118e28184016117d0565b9082015260606118f38382016117d0565b908201528352918301916080016118a8565b509695505050505050565b60006020828403121561192257600080fd5b81516001600160401b038082111561193957600080fd5b90830190610160828603121561194e57600080fd5b6119566113f1565b61195f836117d0565b815261196d602084016117e1565b602082015261197e604084016117e1565b604082015261198f606084016117f5565b6060820152608083015160808201526119aa60a08401611800565b60a08201526119bb60c084016117d0565b60c082015260e0830151828111156119d257600080fd5b6119de87828601611817565b60e0830152506101006119f28185016117e1565b908201526101208381015183811115611a0a57600080fd5b611a1688828701611864565b91830191909152506101409283015192810192909252509392505050565b600060208284031215611a4657600080fd5b81516001600160401b0380821115611a5d57600080fd5b908301906101008286031215611a7257600080fd5b611a7a611414565b611a83836117d0565b81526020830151602082015260408301516040820152611aa5606084016117f5565b606082015260808301516080820152611ac060a084016117f5565b60a082015260c083015160c082015260e083015182811115611ae157600080fd5b611aed87828601611817565b60e08301525095945050505050565b600060208284031215611b0e57600080fd5b81516102e081611373565b600060208284031215611b2b57600080fd5b81516001600160401b03811115611b4157600080fd5b61185c84828501611817565b600060ff821660ff841680821015611b6757611b676116fe565b90039392505050565b600181815b80851115611bab578160001904821115611b9157611b916116fe565b80851615611b9e57918102915b93841c9390800290611b75565b509250929050565b600082611bc257506001610d34565b81611bcf57506000610d34565b8160018114611be55760028114611bef57611c0b565b6001915050610d34565b60ff841115611c0057611c006116fe565b50506001821b610d34565b5060208310610133831016604e8410600b8410161715611c2e575081810a610d34565b611c388383611b70565b8060001904821115611c4c57611c4c6116fe565b029392505050565b6000610d3160ff841683611bb3565b600060018201611c7557611c756116fe565b5060010190565b600060208284031215611c8e57600080fd5b815180151581146102e057600080fd5b600082821015611cb057611cb06116fe565b500390565b600061ffff8089168352602060018060a01b03891681850152604060c081860152611ce360c086018a611791565b60608681018a90526080870189905286820360a088015287518083528489019285019060005b81811015611d4157845180518916845287810151888501528601516001600160401b0316868401529386019391830191600101611d09565b50909e9d5050505050505050505050505050565b600060208284031215611d6757600080fd5b610d3182611800565b600060208284031215611d8257600080fd5b81516102e0816115fc565b60008251611d9f818460208701611761565b9190910192915050565b600060208284031215611dbb57600080fd5b610d31826117d0565b60018060a01b038716815285602082015261ffff8516604082015283606082015263ffffffff8316608082015260c060a08201526000611e0760c0830184611791565b9897505050505050505056fea26469706673582212201fc0962940dacd551dc76ffe06dc3ac953d102e1150f1490df7e2030374e749364736f6c634300080d0033",
    "linkReferences": {}
  },
  "methodIdentifiers": {
    "quoteCrossChainDeposit(uint16)": "2b524c97",
    "receiveWormholeMessages(bytes,bytes[],bytes32,uint16,bytes32)": "529dca32",
    "sendCrossChainDeposit(uint16,address,address,uint256,address,uint256,address)": "949d8e65",
    "setRegisteredSender(uint16,bytes32)": "dd12d68b",
    "tokenBridge()": "c6328a46",
    "wormhole()": "84acd1bb",
    "wormholeRelayer()": "da25b725"
  },
  "id": 34
}